:020000040800F2
:1000000060A8002029020008A10900089909000839
:100010009D090008F3020008690E000800000000B6
:10002000000000000000000000000000890B000834
:1000300079040008000000001D0A0008E50C000813
:100040004D0200084D0200084D0200084D02000854
:100050004D0200084D0200084D0200084D02000844
:100060004D0200084D0200084D0200084D02000834
:10007000F90200084D0200084D0200084D02000878
:100080004D0200084D0200084D0200084D02000814
:100090004D0200084D0200084D0200084D02000804
:1000A0004D0200084D0200084D0200084D020008F4
:1000B0004D0200084D0200084D0200084D020008E4
:1000C0004D0200084D0200084D0200084D020008D4
:1000D0004D0200084D0200084D0200084D020008C4
:1000E0004D0200084D0200084D0200084D020008B4
:1000F0004D0200084D0200084D0200084D020008A4
:100100004D0200084D0200084D0200084D02000893
:100110004D0200084D0200084D0200084D02000883
:100120004D0200084D0200084D0200084D02000873
:100130004D0200084D0200084D0200084D02000863
:100140004D0200084D0200084D0200084D02000853
:100150004D0200084D0200084D0200084D02000843
:100160004D0200084D0200084D0200084D02000833
:100170004D0200084D0200084D0200084D02000823
:100180004D0200084D02000800F002F800F03CF8B3
:100190000AA090E8000C82448344AAF10107DA45E2
:1001A00001D100F031F8AFF2090EBAE80F0013F0F8
:1001B000010F18BFFB1A43F0010318472C0F000072
:1001C0004C0F0000103A24BF78C878C1FAD8520703
:1001D00024BF30C830C144BF04680C6070470000C1
:1001E0000023002400250026103A28BF78C1FBD840
:1001F000520728BF30C148BF0B6070471FB500F0E1
:100200006DFF1FBD10B510BD00F039F81146FFF7A6
:10021000F5FF00F015FF00F057F803B4FFF7F2FF09
:1002200003BC00F05FF800000C48016841F4700165
:1002300001600B4880470B480047FEE7FEE7FEE7FA
:10024000FEE7FEE7FEE7FEE7FEE7FEE7FEE700006B
:1002500005480649064A074B7047000088ED00E054
:10026000010D0008890100086008002060A8002036
:10027000602800206028002070477047704775464E
:1002800000F02CF8AE4605006946534620F0070002
:10029000854618B020B5FFF7DBFFBDE820404FF0E2
:1002A00000064FF000074FF000084FF0000B21F060
:1002B0000701AC46ACE8C009ACE8C009ACE8C0092D
:1002C000ACE8C0098D46704710B50446AFF3008016
:1002D0002046BDE81040FFF7A0BF0000004870476F
:1002E0000008002001491820ABBEFEE726000200EE
:1002F000704700BFFEE7000010B51449144800F035
:100300004DF814484078303812490978303901EBFB
:10031000810100EB4100104908600E48C078303878
:100320000E49087008460078C0010D49086008466B
:10033000006809490968084309490860012009491A
:1003400008700121024800F043F810BD0088001039
:100350002860024019000020140000201000002036
:100360000C000020080000200246094B9A4201D2EE
:10037000084801E00648103801F000531BB1064B55
:100380000B40C36002E0044B0B40836070470000E9
:1003900010640240006002407D0F7D0F0246094B51
:1003A0009A4201D2084801E00648103801F0005393
:1003B0001BB1064B0B40C36002E0044B0B40836053
:1003C0007047000010640240006002407D0F7D0F06
:1003D00021B1026842F00102026003E0026822F0EB
:1003E00001020260704710B501F080034BB122B1E9
:1003F000436943F08003436103E0436923F08003D2
:10040000436180290BD02AB1036801F01E04234305
:10041000036004E0036801F01E04A343036010BD01
:1004200010B500220268134B1A40CC680B682343B6
:100430004C6923438C692343CC6923430C6A2343CF
:100440004C6A23438C6A23434C6B23438C6B2343BA
:100450001A430260426922F00702D1E90B342343B8
:100460001A4342610B6943604B6883608B68C360C9
:1004700010BD00003F801CF07047000000B585B043
:100480000121022000F0CCFA0121880300F0F8FAE3
:1004900000208DF810008DF8120002208DF8130056
:1004A000C002039003A9134800F007FA0C210120B1
:1004B00000F06CFB4FF48050009000208DF8040099
:1004C00010208DF8050001208DF80600684600F028
:1004D00013F828208DF8080000208DF809008DF809
:1004E0000A0001208DF80B0002A800F05BFA05B0AD
:1004F00000BD000000040240002123498279002A47
:100500003AD00A46126803689A430B461A600A1DDD
:10051000126803689A430B1D1A60027911440A6835
:1005200003681A430A60184A0832126803689A433B
:10053000154B08331A601A1D126803689A43124B50
:100540000C331A604279102A0ED11A1F1268036800
:100550001A430D4B08331A601A1D126803681A43B8
:10056000094B0C331A600DE00749427911440A68BF
:1005700003681A430A6005E0027911440A680368B7
:100580009A430A6070470000003C014010B592B0E9
:1005900003AC0121084600F053FA0121022000F0CB
:1005A0003FFA0121082000F03BFA0121102000F061
:1005B00037FA0C220021754800F0C7F90C220121FE
:1005C000724800F0C2F90C220421704800F0BDF915
:1005D0000C2205216D4800F0B8F90C2207216B4868
:1005E00000F0B3F90C220821684800F0AEF90C22A3
:1005F0000921664800F0A9F90C220A21634800F09D
:10060000A4F90C220E21614800F09FF90C220F2161
:100610005E4800F09AF90C2207215D4800F095F938
:100620000C2208215A4800F090F90C220921584860
:1006300000F08BF90C220A21554800F086F90C22B3
:100640000B21534800F081F90C221146504800F06C
:100650007CF90C220D214E4800F077F90C220E2176
:100660004B4800F072F90C220F21494800F06DF957
:100670000C220721474800F068F94CF2B370019052
:1006800002208DF8080003208DF8090000208DF865
:100690000A008DF80B0001A93C4800F00EF94FF656
:1006A0008070019001A93A4800F007F9802001907C
:1006B00001A9384800F001F90020206002206060A4
:1006C0000820A0601020E060002020616061A0612F
:1006D000E06120624FF4805060620020A062E0621E
:1006E00020630F20616B0860616B4860616B8860FC
:1006F0000020616BC860616B0861616B48614FF0FD
:100700000050616B88610F20A16B0860A16B48608D
:100710002020A16B88600020A16BC860A16B0861DC
:10072000A16B48614FF00050A16B886103A800F0F5
:100730004FF819484FF0204148600121002000F097
:100740002DF841F20400019001208DF808000320EB
:100750008DF8090000208DF80A008DF80B0001A922
:100760000A4800F0AAF80421084800F011F94FF4F3
:100770000050019000208DF808008DF80B0001A9B1
:10078000024800F09AF812B010BD0000000C0240C0
:1007900000100240000402400303012051B1820016
:1007A000A2F1C042126842F001038200A2F1C042ED
:1007B000136009E08200A2F1C0421268034B1A40A4
:1007C0008300A3F1C0431A6070470000FEFF0F00D2
:1007D000D0E901121143C268114302691143426911
:1007E000114382691143C2691143026A1143426A8B
:1007F0001143826A1143C26A1143026B11430268BA
:100800009200A2F1C0421160816808290BD10168F1
:100810008900A1F1C041096841F0400201688900E6
:10082000A1F1C0410A60416B0968426B526841EA1C
:100830000211426B926841EA0221426B928941EABD
:100840000241426B128A41EA0251426B127D41EA37
:100850000261426B926911430268521C9200A2F13C
:10086000C0421160C16AB1F5804F1BD1816B09682C
:10087000826B526841EA0211826B926841EA02215E
:10088000826B128A41EA0251826B127D41EA026157
:10089000826B9269114302689200A2F1C042C2F8D1
:1008A000041107E06FF0704201688900A1F1C041B6
:1008B000C1F80421704701807047F0B50A46002155
:1008C0000023002400BF3DE0012505FA01F315686F
:1008D00005EA03049C4234D105684F000326BE405C
:1008E000B543056015794E00B5400668354305608F
:1008F0001579012D02D01579022D16D185684F008A
:100900000326BE40B543856055794E00B5408668E4
:1009100035438560456801268E40B543456045688E
:1009200096798E40B6B235434560C5684F000326C0
:10093000BE40B543C560D5794E00B540C668354365
:10094000C560491C1029BFD3F0BDF0B500230024B9
:100950004D07ED0E02FA05F3CE1000F1200555F813
:1009600026504E07F70E0F26BE40B543CF1000F1BC
:10097000200646F82750CE1000F1200555F82650E5
:1009800045EA0304CE1000F1200545F82640F0BDED
:10099000418370470183704700BFFEE700BFFEE759
:1009A0007047000070B5002100230F22C4781CB3EB
:1009B000174C246804F4E064C4F5E064C4F3072130
:1009C000C1F10404E3B20A4144789C40E1B2847866
:1009D000144021430C07210E0E4C05786155047814
:1009E00004F01F050124AC4005786D11AD0005F140
:1009F000E025C5F8004109E0047804F01F05012452
:100A0000AC40054D0678761145F8264070BD0000D3
:100A10000CED00E000E400E080E100E07047000041
:100A200029B1064A12680243044B1A6004E0034AE3
:100A300012688243014B1A60704700003038024050
:100A400029B1064A12680243044B1A6004E0034AC3
:100A500012688243014B1A60704700003838024028
:100A600029B1064A12680243044B1A6004E0034AA3
:100A700012688243014B1A60704700004038024000
:100A800029B1064A12680243044B1A6004E0034A83
:100A900012688243014B1A607047000044380240DC
:100AA000F0B5002100220024022500260223324F47
:100AB0003F6807F00C0121B1042905D0082937D17E
:100AC00005E02E4F076036E02D4F076033E02A4FD8
:100AD0003F1F3F68C7F38056274F3F1F3F6807F00F
:100AE0003F036EB1264FB7FBF3F7DFF88CC0ACF1D4
:100AF000040CDCF800C0CCF3881C07FB0CF40CE001
:100B00001E4FB7FBF3F7DFF870C0ACF1040CDCF854
:100B100000C0CCF3881C07FB0CF4174F3F1F3F6845
:100B2000C7F301477F1C7D00B4FBF5F7076002E0C7
:100B3000124F076000BF00BF0F4F3F6807F0F00182
:100B40000909104F7A5C0768D74047600A4F3F6831
:100B500007F4E051890A0B4F7A5C4768D7408760F9
:100B6000054F3F6807F46041490B064F7A5C4768C0
:100B7000D740C760F0BD0000083802400024F400F0
:100B8000002D31011D0000207047000030B500220B
:100B90008B071C0F0F2303FA04F20B4B8C1053F836
:100BA00024309343084C8D1044F8253023468C1094
:100BB00053F824308C07240F00FA04F42343024C2A
:100BC0008D1044F8253030BD0838014070B503461B
:100BD0000C460025322B00D93223E5011D4429465D
:100BE0004FF0C040FFF767FE0025322600BF301EE1
:100BF000A6F10106FBD170BD0CB50020019000905C
:100C00003448006840F480303249086000BF314801
:100C1000006800F4003000900198401C019000989A
:100C200018B90198B0F5A04FF1D12A48006800F436
:100C3000003010B10120009001E0002000900098E9
:100C4000012846D123484030006840F080502149B7
:100C5000403108602048006840F440401E49086068
:100C60001C48083000681B490831086008460068C5
:100C700040F4004008600846006840F4A050086056
:100C80001648091F0860081F006840F08070091F9F
:100C9000086000BF0F48006800F000700028F9D01D
:100CA00040F205700E4908600A480830006820F0DC
:100CB00003000849083108600846006840F0020057
:100CC000086000BF03480830006800F00C000828E6
:100CD000F8D10CBD003802400070004014544007A9
:100CE000003C024001200449086004480068401CA0
:100CF0000249086070470000040000200000002046
:100D000010B51548006840F4700013490860134896
:100D1000006840F001001149086000200F490831C7
:100D200008600E4800680E4908400C4908600D48EC
:100D3000091D0860081F006820F48020091F086052
:100D4000002006490C310860FFF756FF4FF00060A5
:100D500001498039086010BD88ED00E0003802408C
:100D6000FFFFF6FE1030002421B1828942F40052C8
:100D7000828104E082894DF6FF731A4082817047B8
:100D80001AB1838A0B43838202E0838A8B43838276
:100D9000704700002DE9FF4705460E460024A14696
:100DA00000BFA046B08900B100BF2C8A24F4405493
:100DB000F08804432C82AC8941F20C608443B088F3
:100DC00031890843718908430443AC81AC8A24F417
:100DD0004074B0890443AC826846FFF761FE204846
:100DE000854202D01F48854202D1DDF80C9001E017
:100DF000DDF80890A88900F4004040B109EBC90073
:100E000000EB091031684900B0FBF1F707E009EB8E
:100E1000C90000EB091031688900B0FBF1F76420CC
:100E2000B7FBF0F004012009642101FB1078A889C8
:100E300000F4004040B1322000EBC800B0FBF1F0FC
:100E400000F00700044308E0322000EB08106421A2
:100E5000B0FBF1F000F00F0004432C81BDE8FF87E8
:100E6000001001400014014000BFFEE710B5044629
:100E700001211020FFF7F4FD42F2CF000C49088554
:100E8000601EC8620020486201208882002008821B
:100E90000120088000BF0648008A0028FBD00020FF
:100EA0000349088000211020FFF7DAFD10BD000083
:100EB0000010004000B597B001210220FFF7B0FDFF
:100EC00001218804FFF7CCFD01214805FFF7A8FDAB
:100ED00007220A215548FFF738FD07220B21534806
:100EE000FFF733FD4FF48060159002208DF8580015
:100EF00000208DF85A0001208DF85B0002208DF84B
:100F0000590015A94948FFF7D8FC4FF40060159027
:100F100002208DF8580015A94448FFF7CEFC4FF485
:100F2000E13011900020ADF84800ADF84A00ADF86E
:100F30004C00ADF850000C20ADF84E0011A93C4813
:100F4000FFF728FF01213A48FFF70EFF0122802119
:100F50003748FFF715FF012240213548FFF710FF02
:100F60004FF0006002903248001D03903148049019
:100F70000020059004200690002007904FF4806028
:100F80000890002009900A900B904FF400300C90CC
:100F900000200D9001200E9000200F90109002A9CB
:100FA0002548FFF73DFA01212348FFF711FA0C20ED
:100FB0008DF8040000208DF805008DF80600012052
:100FC0008DF8070001A8FFF7EDFC012210211A4857
:100FD000FFF709FA4FF0006002901548001D0390DA
:100FE00016480490402005900120069000200790AC
:100FF0004FF480600890002009900A900B904FF405
:1010000000300C9000200D9001200E9000200F90D9
:10101000109002A908483030FFF702FA0121064873
:101020003030FFF7D5F917B000BD000000040240D2
:1010300000480040190000202860024018000020ED
:1010400001201F490870FFF735FFFFF79FFAFFF7F0
:1010500015FA00210846FFF7B9FD2FE0194800787E
:10106000C0B11948017819480068FFF7AFFD4FF487
:1010700080511748FFF78EFC0A2400BF201EA4F100
:101080000104FBD14FF480511148FFF781FC00208F
:101090000C4908704F200F4908704FF0C0510E489E
:1010A000FFF762F901200C495839C86501210A4847
:1010B000FFF78EF94FF4FA70FFF7D8FECEE7000085
:1010C0003000002008000020100000201400002044
:1010D000000C024018000020586002404FF04070A1
:1010E000E1EE100A7047000008110008000000201F
:1010F00030000000C4010008381100083000002052
:1011000030A80000E001000800000000000000001E
:1011100000000000000000000000000000000000CF
:1011200000000000000000000001020304010203AF
:08113000040607080900000095
:0400000508000229C4
:00000001FF
