:020000040800F2
:1000000068A3002029020008DD0E0008D50E0008B4
:10001000D90E00083B0600086D150008000000001E
:100020000000000000000000000000006511000852
:100030007907000800000000F90F00089512000879
:100040004D0200084D0200084D0200084D02000854
:100050004D0200084D0200084D0200084D02000844
:100060004D0200084D0200084D0200084D02000834
:10007000410600084D0200084D0200084D0200082C
:100080004D0200084D0200084D0200084D02000814
:100090004D0200084D0200084D0200084D02000804
:1000A0004D0200084D0200084D0200084D020008F4
:1000B0004D0200084D0200084D0200084D020008E4
:1000C0004D0200084D0200084D0200084D020008D4
:1000D0004D0200084D0200084D0200084D020008C4
:1000E0004D0200084D0200084D0200084D020008B4
:1000F0004D0200084D0200084D0200084D020008A4
:100100004D0200084D0200084D0200084D02000893
:100110004D0200084D0200084D0200084D02000883
:100120004D0200084D0200084D0200084D02000873
:100130004D0200084D0200084D0200084D02000863
:100140004D0200084D0200084D0200084D02000853
:100150004D0200084D0200084D0200084D02000843
:100160004D0200084D0200084D0200084D02000833
:100170004D0200084D0200084D0200084D02000823
:100180004D0200084D02000800F002F800F03CF8B3
:100190000AA090E8000C82448344AAF10107DA45E2
:1001A00001D100F031F8AFF2090EBAE80F0013F0F8
:1001B000010F18BFFB1A43F00103184764570000F2
:1001C00084570000103A24BF78C878C1FAD8520783
:1001D00024BF30C830C144BF04680C6070470000C1
:1001E0000023002400250026103A28BF78C1FBD840
:1001F000520728BF30C148BF0B6070471FB505F0DC
:100200008DF81FBD10B510BD00F060F91146FFF765
:10021000F5FF02F093FE00F07EF903B4FFF7F2FF62
:1002200003BC00F0E3F900000C48016841F47001E0
:1002300001600B4880470B480047FEE7FEE7FEE7FA
:10024000FEE7FEE7FEE7FEE7FEE7FEE7FEE700006B
:1002500005480649064A074B7047000088ED00E054
:10026000B1120008890100086803002068A300207B
:10027000682300206823002001804280436070478B
:100280002DE9F04F82B0466853680193058847888E
:100290004B88002000900888874201BFB2F800C058
:1002A0006545528893421EBF6FF0020002B0BDE860
:1002B000F08F9FED412A4FEA970EC7F3400B00BF26
:1002C000DDE9000202EB800A4A6898464FF0000917
:1002D000B0EE420AB4465FEA0E0025D092ED001A55
:1002E000DCED001A02EB8302DCED010A01EE810A6B
:1002F00092ED001A02EB8302401ED2ED001A02EBCF
:10030000830200EE810A9CED021ADCED030A000470
:100310000CF1100C000C01EE210A92ED001A02EB18
:10032000830200EE810AD9D117F0030026D0ACF188
:100330000404A2EB830210F0010F08D002EB830249
:10034000D4ED010A92ED001A241D00EE810A5FEA45
:100350000B0013D002EB830CD4ED010A9CED001AC4
:1003600002EBC302401E00EE810AD4ED020A92EDB8
:10037000001A04F1080400EE810AEBD109F1010032
:10038000AAEC010A1FFA80F9486800EB8902A8F17B
:1003900001001FFA80F8B8F1000F99D1009806EB20
:1003A0008706184480B20090681E05042D0C87D182
:1003B00002B00020BDE8F08F0000000010B5203A28
:1003C000C0F00B80B1E81850203AA0E81850B1E80E
:1003D0001850A0E81850BFF4F5AF5FEA027C24BFC4
:1003E000B1E81850A0E8185044BF18C918C0BDE8BB
:1003F00010405FEA827C24BF51F8043B40F8043B84
:1004000008BF7047D20728BF31F8023B48BF11F838
:10041000012B28BF20F8023B48BF00F8012B704792
:100420004FF0000200B5134694469646203922BF8D
:10043000A0E80C50A0E80C50B1F12001BFF4F7AFD8
:10044000090728BFA0E80C5048BF0CC05DF804EBBA
:10045000890028BF40F8042B08BF704748BF20F828
:10046000022B11F0804F18BF00F8012B7047704726
:100470007047704710B500F009F8006810BD10B55E
:10048000044600F003F8046010BD00000048704707
:10049000040300201FB584B000200A9C06AB04AA08
:1004A00002A90094AFF3008018B1DDE9020108B0A1
:1004B00010BD0348204000F037F800200146F6E761
:1004C0000000207C00487047040300207546FFF7B9
:1004D000F9FFAE4605006946534620F00700854601
:1004E00018B020B5FFF7B4FEBDE820404FF000067D
:1004F0004FF000074FF000084FF0000B21F007010C
:10050000AC46ACE8C009ACE8C009ACE8C009ACE84E
:10051000C0098D46704710B50446AFF300802046F1
:10052000BDE81040FFF779BE10B500F009F8BDE84E
:100530001040AFF30080002801D000F057B870479A
:1005400010B5022803D0410103D50DA112E000200F
:1005500010BD010101D50FA10CE0C10001D511A111
:1005600008E0810001D512A104E0400001D513A1EB
:1005700000E0002115A000F03FF8012010BD0000B0
:10058000496E76616C6964204F7065726174696F41
:100590006E000000446976696465204279205A65DE
:1005A000726F00004F766572666C6F770000000016
:1005B000556E646572666C6F77000000496E6578F1
:1005C00061637420526573756C740000534947462B
:1005D00050453A2041726974686D6574696320659D
:1005E0007863657074696F6E3A20000001491820C5
:1005F000ABBEFEE72600020070B505460C460A2099
:1006000000E06D1C00F011F835B128780028F8D111
:1006100002E0641C00F009F814B120780028F8D139
:10062000BDE870400A20AFF3008008B569468DF838
:1006300000000320ABBE08BD704700BFFEE700000E
:1006400010B50649064800F029F801200549087050
:100650000121034800F03CF810BD000000880010A4
:1006600028600240200000200246094B9A4201D235
:10067000084801E00648103801F000531BB1064B52
:100680000B40C36002E0044B0B40836070470000E6
:1006900010640240006002407D0F7D0F0246094B4E
:1006A0009A4201D2084801E00648103801F0005390
:1006B0001BB1064B0B40C36002E0044B0B40836050
:1006C0007047000010640240006002407D0F7D0F03
:1006D00021B1026842F00102026003E0026822F0E8
:1006E00001020260704710B501F080034BB122B1E6
:1006F000436943F08003436103E0436923F08003CF
:10070000436180290BD02AB1036801F01E04234302
:10071000036004E0036801F01E04A343036010BDFE
:1007200010B500220268134B1A40CC680B682343B3
:100730004C6923438C692343CC6923430C6A2343CC
:100740004C6A23438C6A23434C6B23438C6B2343B7
:100750001A430260426922F00702D1E90B342343B5
:100760001A4342610B6943604B6883608B68C360C6
:1007700010BD00003F801CF07047000000B585B040
:100780000121022000F03AFC0121880300F066FC00
:1007900000208DF810008DF8120002208DF8130053
:1007A000C002039003A9134800F01CFB0C21012098
:1007B00000F0DAFC4FF48050009000208DF8040027
:1007C00010208DF8050001208DF80600684600F025
:1007D00013F828208DF8080000208DF809008DF806
:1007E0000A0001208DF80B0002A800F079FB05B08B
:1007F00000BD000000040240002123498279002A44
:100800003AD00A46126803689A430B461A600A1DDA
:10081000126803689A430B1D1A60027911440A6832
:1008200003681A430A60184A0832126803689A4338
:10083000154B08331A601A1D126803689A43124B4D
:100840000C331A604279102A0ED11A1F12680368FD
:100850001A430D4B08331A601A1D126803681A43B5
:10086000094B0C331A600DE00749427911440A68BC
:1008700003681A430A6005E0027911440A680368B4
:100880009A430A6070470000003C0140024901EBB6
:10089000800191ED000A70472401002010B500206E
:1008A0000EE09FED0F0A0F4901EB800181ED000A78
:1008B00000210D4A42F820100C4A42F82010401C3A
:1008C0000428EEDB4FF40061094800F001FB05202D
:1008D00001F002FE4FF40061054800F0F7FA10BD88
:1008E00000000000240100204401002054010020E9
:1008F000000C024010B54FF40061064800F0E8FA21
:10090000052001F0E9FD4FF40061024800F0DEFA35
:1009100010BD0000000C024010B50024B8E02046D5
:1009200000F054FA5C4941F82400084650F82400CD
:100930005A4951F82410401A00EE100AB8EEC00AC5
:10094000574800EB840080ED000A554800EB840016
:1009500090ED000ADFED530AB4EEE00AF1EE10FA72
:100960000EDD4F4800EB840090ED000ADFED4E0AEB
:1009700030EE600A4A4800EB840080ED000A19E07E
:10098000474800EB840090ED000ADFED480AB4EE22
:10099000E00AF1EE10FA0DD2414800EB840090ED30
:1009A000000ADFED410A30EE200A3D4800EB8400EA
:1009B00080ED000A384850F82400384941F82400F6
:1009C000022C27D03A4800EB840090ED000AF1EEAB
:1009D000000A20EE200A374800EB8400D0ED000A20
:1009E00020EE200A2E4800EB8400D0ED000A9FED97
:1009F000321A60EE810A80EE801A304800EB8400E3
:100A000090ED000A31EE000A2C4800EB840080EDE6
:100A1000000A3CE0224800EB840090ED000AB5EEAD
:100A2000C00AF1EE10FA19D21D4800EB840090EDD7
:100A3000000ADFED210A20EE200ADFED210A80EE18
:100A4000201A1E4800EB840090ED000A31EE000AE7
:100A50001A4800EB840080ED000A18E0104800EB13
:100A6000840090ED000ADFED140A20EE200ADFED8D
:100A7000140A80EE201A114800EB840090ED000A61
:100A800031EE000A0D4800EB840080ED000A641C82
:100A9000042CFFF644AF10BD440100205401002097
:100AA000340100200000004700008047000000C71C
:100AB0009C550008000000200000B44324010020E1
:100AC0000080A24410B592B003AC0121084600F0AA
:100AD000A5FA0121022000F091FA0121082000F07E
:100AE0008DFA0121102000F089FA0C2200216C48B7
:100AF00000F0C0F90C220121694800F0BBF90C227A
:100B00000421674800F0B6F90C220521644800F082
:100B1000B1F90C220721624800F0ACF90C2208213F
:100B20005F4800F0A7F90C2209215D4800F0A2F906
:100B30000C220A215A4800F09DF90C220E21584837
:100B400000F098F90C220F21554800F093F90C227F
:100B50000721544800F08EF90C220821514800F07A
:100B600089F90C2209214F4800F084F90C220A214E
:100B70004C4800F07FF90C220B214A4800F07AF92A
:100B80000C221146474800F075F90C220D2145480A
:100B900000F070F90C220E21424800F06BF90C2293
:100BA0000F21404800F066F90C2207213E4800F072
:100BB00061F94CF2B370019002208DF80800032017
:100BC0008DF8090000208DF80A008DF80B0001A9AE
:100BD000334800F007F94FF68070019001A93148C1
:100BE00000F000F98020019001A92F4800F0FAF8E8
:100BF00000202060022060600820A0601020E060DB
:100C0000002020616061A061E06120624FF48050AB
:100C100060620020A062E06220630F20616B0860C8
:100C2000616B4860616B88600020616BC860616BBC
:100C30000861616B48614FF00050616B886103A8E7
:100C400000F050F819484FF0204148600121002081
:100C500000F02EF84FF4C050019001208DF80800EC
:100C600003208DF8090000208DF80A008DF80B0094
:100C700001A90B4800F0B6F84FF40061084800F0F5
:100C800025F942F20C00019000208DF808008DF843
:100C90000B0001A9024800F0A5F812B010BD000039
:100CA000000C024000100240000402400303012037
:100CB00051B18200A2F1C042126842F001038200E9
:100CC000A2F1C042136009E08200A2F1C0421268A2
:100CD000034B1A408300A3F1C0431A607047000021
:100CE000FEFF0F00D0E901121143C26811430269EF
:100CF00011434269114382691143C2691143026A77
:100D00001143426A1143826A1143C26A1143026B62
:100D1000114302689200A2F1C04211608168082963
:100D20000BD101688900A1F1C041096841F040027E
:100D300001688900A1F1C0410A60416B0968426BFA
:100D4000526841EA0211426B926841EA0221426B09
:100D5000928941EA0241426B128A41EA0251426B96
:100D6000127D41EA0261426B926911430268521C92
:100D70009200A2F1C0421160C16AB1F5804F1BD14F
:100D8000816B0968826B526841EA0211826B92683A
:100D900041EA0221826B128A41EA0251826B127D82
:100DA00041EA0261826B9269114302689200A2F1EA
:100DB000C042C2F8041107E06FF070420168890078
:100DC000A1F1C041C1F80421704700000146002094
:100DD000024B03EB410210887047000020000060C6
:100DE00001807047F0B50A4600210023002400BFAF
:100DF0003DE0012505FA01F3156805EA03049C426C
:100E000034D105684F000326BE40B543056015790F
:100E10004E00B5400668354305601579012D02D0B6
:100E20001579022D16D185684F000326BE40B543C3
:100E3000856055794E00B5408668354385604568C4
:100E400001268E40B5434560456896798E40B6B21E
:100E500035434560C5684F000326BE40B543C560B5
:100E6000D5794E00B540C6683543C560491C102988
:100E7000BFD3F0BDF0B5002300244D07ED0E02FAFC
:100E800005F3CE1000F1200555F826504E07F70E59
:100E90000F26BE40B543CF1000F1200646F827507C
:100EA000CE1000F1200555F8265045EA0304CE1077
:100EB00000F1200545F82640F0BD024600201369E8
:100EC0000B400BB1012000E00020704741837047C8
:100ED0000183704700BFFEE700BFFEE770470000D8
:100EE00070B5002100230F22C4781CB3174C24686E
:100EF00004F4E064C4F5E064C4F30721C1F1040420
:100F0000E3B20A4144789C40E1B284781440214322
:100F10000C07210E0E4C05786155047804F01F056E
:100F20000124AC4005786D11AD0005F1E025C5F850
:100F3000004109E0047804F01F050124AC40054D90
:100F40000678761145F8264070BD00000CED00E0F3
:100F500000E400E080E100E000B58BB0012108462C
:100F600000F04CF8012202212248FFF783FF042001
:100F7000099000208DF82A008DF82B0002208DF8B2
:100F8000280003208DF8290009A91A48FFF72AFF35
:100F90000121084600F052F8C720ADF818000020E3
:100FA000ADF81A0042F2CF0007900020ADF8200003
:100FB0008DF8220006A94FF0804000F015FA0121BB
:100FC000880700F0A9F97020ADF804000120ADF801
:100FD00006000220ADF8100040F27520039001A930
:100FE000800700F0A5F90821C80600F0F1F90BB060
:100FF00000BD0000000002407047000029B1064A11
:1010000012680243044B1A6004E0034A12688243E8
:10101000014B1A60704700003038024029B1064A7F
:1010200012680243044B1A6004E0034A12688243C8
:10103000014B1A60704700003838024029B1064A57
:1010400012680243044B1A6004E0034A12688243A8
:10105000014B1A60704700004038024029B1064A2F
:1010600012680243044B1A6004E0034A1268824388
:10107000014B1A607047000044380240F0B500216F
:1010800000220024022500260223324F3F6807F089
:101090000C0121B1042905D0082937D105E02E4FD4
:1010A000076036E02D4F076033E02A4F3F1F3F684F
:1010B000C7F38056274F3F1F3F6807F03F036EB1CD
:1010C000264FB7FBF3F7DFF88CC0ACF1040CDCF86B
:1010D00000C0CCF3881C07FB0CF40CE01E4FB7FBE0
:1010E000F3F7DFF870C0ACF1040CDCF800C0CCF30F
:1010F000881C07FB0CF4174F3F1F3F68C7F30147DD
:101100007F1C7D00B4FBF5F7076002E0124F07601B
:1011100000BF00BF0F4F3F6807F0F0010909104FF3
:101120007A5C0768D74047600A4F3F6807F4E05190
:10113000890A0B4F7A5C4768D7408760054F3F6844
:1011400007F46041490B064F7A5C4768D740C76097
:10115000F0BD0000083802400024F40000127A00BC
:10116000740000207047000030B500228B071C0F70
:101170000F2303FA04F20B4B8C1053F824309343E3
:10118000084C8D1044F8253023468C1053F8243039
:101190008C07240F00FA04F42343024C8D1044F80A
:1011A000253030BD083801400CB50020019000907A
:1011B0003448006840F480303249086000BF31484C
:1011C000006800F4003000900198401C01900098E5
:1011D00018B90198B0F5A04FF1D12A48006800F481
:1011E000003010B10120009001E000200090009834
:1011F000012846D123484030006840F08050214902
:10120000403108602048006840F440401E490860B2
:101210001C48083000681B4908310860084600680F
:1012200040F4004008600846006840F4A0500860A0
:101230001648091F0860081F006840F08070091FE9
:10124000086000BF0F48006800F000700028F9D067
:1012500040F205700E4908600A480830006820F026
:1012600003000849083108600846006840F00200A1
:10127000086000BF03480830006800F00C00082830
:10128000F8D10CBD003802400070004008544007FF
:10129000003C024001200449086004480068401CEA
:1012A00002490860704700001C0000201800002060
:1012B00010B51548006840F47000134908601348E1
:1012C000006840F001001149086000200F49083112
:1012D00008600E4800680E4908400C4908600D4837
:1012E000091D0860081F006820F48020091F08609D
:1012F000002006490C310860FFF756FF4FF00060F0
:1013000001498039086010BD88ED00E000380240D6
:10131000FFFFF6FE1030002421B1028842F00102E6
:10132000028004E002884FF6FE731A400280704784
:1013300070B5002400220023058C4FF6FF6635406F
:101340000584028C8388848B4FF68F752C404FF672
:10135000FC752C400D882C434FF6FF552A408D8993
:101360004FF6FF7606EA05252A434D8806EA05254D
:101370002A43154DA84202D0144DA8421DD14FF268
:10138000FF752A40CD894FF6FF7606EA05252A43E8
:101390004FF6FF352A408D8806EA05252A434EF68A
:1013A000FF752B404DF6FF752B400D8A06EA05159B
:1013B0002B434D8A06EA05152B43838084838D6871
:1013C000C563028470BD00000000014000040140BC
:1013D0000A460021818B4FF6F77319401143818330
:1013E0007047C1637047000000220288184B984282
:1013F0000ED0184B98420BD0B0F1804F08D0164B4E
:10140000984205D0154B984202D0154B984204D112
:101410004FF68F731A404B881A43124B984207D0ED
:10142000114B984204D04FF6FF431A400B891A43E0
:1014300002804B68C3620B880385054B984202D03B
:10144000044B984201D18B7A038601238382704733
:10145000000001400004014000040040000800407A
:10146000000C0040001000400014004021B18289AF
:1014700042F40052828104E082894DF6FF731A40E3
:10148000828170471AB1838A0B43838202E0838A88
:101490008B438382704700002DE9FF4705460E46C7
:1014A0000024A14600BFA046B08900B100BF2C8A2D
:1014B00024F44054F08804432C82AC8941F20C603F
:1014C0008443B08831890843718908430443AC815F
:1014D000AC8A24F44074B0890443AC826846FFF7B8
:1014E000CDFD2048854202D01F48854202D1DDF85B
:1014F0000C9001E0DDF80890A88900F4004040B1AC
:1015000009EBC90000EB091031684900B0FBF1F7A5
:1015100007E009EBC90000EB091031688900B0FB56
:10152000F1F76420B7FBF0F004012009642101FB0E
:101530001078A88900F4004040B1322000EBC800C8
:10154000B0FBF1F000F00700044308E0322000EBAC
:1015500008106421B0FBF1F000F00F0004432C816F
:10156000BDE8FF87001001400014014000BFFEE706
:1015700003B401984100009850EAC12018BF04202C
:101580004A0D18BF40F0010040F2FF72B2EB515F0C
:1015900008BF40F00200012808BF052002B07047D4
:1015A00070B59B482DED020B2DED068B079D25F0A8
:1015B0000044A04218DC9748844202DC0AD1069815
:1015C00040B19DED060BBDEC068B02B0BDE870404E
:1015D00000F046BF002DCCBF9FED8F0B9FED900B11
:1015E000BDEC068B02B070BD8F48A04215DD8F4860
:1015F000A042D8BF4FF0FF3458DD9DED060B51ECF3
:10160000100BFFF7B5FF042808BF00F04DFF9DED5C
:10161000060BBDEC068B02B070BD9DED060B51ECC8
:10162000100B00F07DFFCDE9060181489FED828B14
:10163000A0423CDD8248A0421FDD00249FED82AB2A
:101640009DED060B53EC1A2B51EC100B02F0EAFB4C
:101650009DED060B41EC190B53EC1A2B51EC100BC2
:1016600002F0A8FF53EC182B03F0A0FA53EC192B4F
:1016700002F00AFDCDE9060149E09DED060B0124CB
:1016800053EC182B51EC100B02F0CCFB9DED060B2C
:1016900041EC190B53EC182B51EC100B03F086FAAC
:1016A00053EC192B02F0F0FCCDE906012FE068485D
:1016B000A0421FDD02249FED689B9DED060B53ECBD
:1016C000192B51EC100B02F075FF53EC182B02F0A4
:1016D000A9FB9DED060B41EC180B53EC192B51ECBB
:1016E000100B03F063FA53EC182B02F0CDFCCDE99C
:1016F00006010CE09DED060B032453EC102B9FED2F
:10170000580B51EC100B02F0BFFCCDE906019DED2A
:10171000060B53EC102B51EC100B02F04BFF41EC7D
:10172000180B53EC182B02F045FF41EC190B4E48F7
:101730000621B0EE490AF0EE690A784400F07CFD1B
:1017400053EC182B51EC100B02F034FF41EC180B4A
:101750004648B0EE490AF0EE690A0521784400F0E7
:101760006BFD53EC192B51EC100B02F023FF41ECF5
:10177000100B51EC180B53EC102B002C0EDA02F06E
:1017800051FB9DED061B53EC112B02F013FF9DED59
:10179000061B53EC112B03F0DDF835E002F042FBA1
:1017A0009DED061B53EC112B02F004FF41EC100BD6
:1017B0002F48784400EBC40090ED001B51EC100B57
:1017C00053EC112B03F0F2F99DED061B53EC112B9A
:1017D00003F0ECF941EC100B2648784400EBC40010
:1017E00090ED001B51EC100B53EC112B03F0B2F8F1
:1017F00041EC100B002DA2BFBDEC068B02B070BDFA
:1018000051EC100B02F0A0F941EC100B01E70000C5
:10181000000010440000F07F182D4454FB21F93FD4
:10182000182D4454FB21F9BF0000DC3F0000203E8E
:101830000000F33F00000000000000000000F03F47
:101840000000E63F00000000000000000000004033
:101850000080034000000000000000000000F83F8E
:10186000000000000000F0BF8A400000404000007F
:10187000CA3F0000823F000070B56B4E2DED040B97
:101880002DED028B82B0DDF81CC0DDE905235C4242
:101890002CF000411C4341EAD474049D22F0004026
:1018A000B44205D86C422C4340EAD474B4420BD9FC
:1018B0009DED061B9DED040B02B0BDEC028B04B048
:1018C000BDE8704000F0D6BDACF14054A4F17F6497
:1018D0001C430BD0022404EAAC7444EAD2740543DE
:1018E0009FED538B9FED542B07D015E09DED040B1E
:1018F00051EC100B00F0E8FD42E0002C11BF012C70
:101900009DED040B02B0BDEC028B04BF04B070BDB2
:10191000022C38D0032C3BD00B439FED491B9FED8D
:101920004A0B0AD0B14218D1B04209D121F080410E
:1019300020F08040079105900FE0002A15DA10E0B2
:10194000434B7B44002C08BF93ED000B0DD0012CC2
:1019500010D0022C17D0032C1AD0B0421DD1002A6F
:1019600003DAB0EE410AF0EE610A02B0BDEC028B80
:1019700004B070BD93ED000B51EC100B02F0E4F8D5
:1019800041EC100BF1E7B0EE480AF0EE680AECE724
:10199000B0EE420AF0EE620AE7E7401A00153C2872
:1019A000C8BF8DED000B19DCBCF1000FBEBF10F1FC
:1019B0003C0F9FED290B8DED000B0FDB9DED060B12
:1019C00053EC102B9DED040B51EC100B02F05CFB63
:1019D00000F0A6FD00F078FDCDE90001002C08BF65
:1019E0009DED000BC1D0012C10D0022C9FED1C0BE3
:1019F00053EC102B9DED000B51EC100B0DD003F0B0
:101A0000D5F853EC182B03F0D1F8B9E7019880F022
:101A1000004001909DED000BA7E703F0C7F853ECE1
:101A2000182B02F097FFABE70000F07F00000000EA
:101A3000182D4454FB210940182D4454FB2109C0A2
:101A4000182D4454FB21F9BF182D4454FB21F93FB4
:101A5000E23E000000000000000000000000000066
:101A6000075C143326A6A13C10B52F499FED2C1B13
:101A70002DED020B84B0059820F000408842D8BFBD
:101A80009DED040B2DDD2949884209D1049840B908
:101A90004FF00100FEF7F3FC00F0F6FC06B010BDBD
:101AA00005DB9DED040B00F0DBFC06B010BD6846C5
:101AB0009DED040B00F0ECF810F0030004BF9DED69
:101AC000021B9DED000B0CD001280ED09DED021BDA
:101AD0009DED000B022817D0012000F029FC06B074
:101AE00010BD00F0F1FA06B010BD9DED021B9DED9A
:101AF000000B012000F01CFC51EC100B02F024F84C
:101B000006B041EC100B10BD00F0DEFA51EC100BEA
:101B100002F01AF806B041EC100B10BD00000000F6
:101B20000000000000000000FB21E93F0000F07F02
:101B30002DED020B019820F0004001909DED000B6F
:101B400002B070470000000010B52F499FED2C1B1C
:101B50002DED020B84B0059820F000408842DCBFD8
:101B600000209DED040B32DD2849884209D10498FC
:101B700040B94FF00100FEF782FC00F085FC06B092
:101B800010BD05DB9DED040B00F06AFC06B010BD36
:101B900068469DED040B00F07BF810F0030011D0B7
:101BA000012818D09DED021B9DED000B02281AD0D4
:101BB00000F08AFA51EC100B01F0C6FF06B041ECC0
:101BC000100B10BD9DED021B9DED000B012000F0E0
:101BD000AFFB06B010BD9DED021B9DED000B00F0AC
:101BE00073FA06B010BD012000F0A2FB51EC100BFF
:101BF00001F0AAFF06B041EC100B10BD0000000080
:101C00000000000000000000FB21E93F0000F07F21
:101C100000B52DED048BB0EE409AF0EE609A83B0E3
:101C200051EC190B02F0BEFE41EC180B18EE100A35
:101C300018EE901A8DED008B002818BF0120084384
:101C400020F00040C0F17F6000F1E040C00F14D0F0
:101C500019EE101A19EE900A8DED009B002918BF9D
:101C60000121084320F00040C0F17F6000F1E04016
:101C7000C00F04BF0120FEF702FCB0EE480A03B01B
:101C8000F0EE680ABDEC048B00BD0000000000000F
:101C90002DE9F14F04462DED020B2DED088B8AB096
:101CA0009FEDE70B80ED020B139EE74826F0004501
:101CB00085420ADC9DED120B002084ED000B0AB07A
:101CC000BDEC088B03B0BDE8F08FE0489FEDE0ABC2
:101CD0009FEDE1BBA84247DDE14F9FEDE39B9FED08
:101CE000E48B9DED120B53EC1A2B51EC100B002ED4
:101CF0001CDD02F05BFF41EC100BBD4208D053EC41
:101D00001B2B51EC100B02F051FFC4E900010BE05A
:101D100053EC192B51EC100B02F048FF53EC182B2D
:101D200002F044FFC4E900010120C8E702F07AF89C
:101D300041EC100BBD4208D053EC1B2B51EC100BA7
:101D400002F070F8C4E900010BE053EC192B51ECE0
:101D5000100B02F067F853EC182B02F063F8C4E99B
:101D600000014FF0FF30AAE7C348A84279DB9DEDA0
:101D7000120B51EC100B00F0D3FB41EC180B9FED54
:101D8000C00B53EC102B02F015FC9FEDBF1B53EC66
:101D9000112B02F047F802F035FB074602F096FBE4
:101DA00041EC190B53EC1A2B02F004FC53EC182BEA
:101DB00002F0D0FD41EC180B53EC1B2B51EC190B2E
:101DC00002F0F8FBDFF8C8A241EC100B4FEA1558FF
:101DD0000125FA4453EC102B51EC180B02F0E6FEEF
:101DE000032DC4E900013DD0C1F30A5005EB4511B4
:101DF000A8EB00001139814234DA0AEB051BB0EE82
:101E000048AA9BED000BF0EE68AA53EC102B51ECA6
:101E1000190B02F0CFFB41EC1B0B51EC1A0B53ECEE
:101E20001B2B02F0C3FE41EC180B51EC1A0B53ECC8
:101E3000182B02F0BBFE53EC1B2B02F0B7FE9BED00
:101E4000020B41EC1A0B53EC102B51EC190B02F066
:101E5000B1FB53EC1A2B02F0A9FE41EC100B6D1CE8
:101E6000B8E70EE0002EA8BF3846BFF628AF94EDC5
:101E7000000B51EC100B01F067FEC4E90001784241
:101E80001DE7C6F3130040F4801EC6F30A50A0F20B
:101E9000F530471100F01F05C5F12000DDF848B00E
:101EA00008900020069007900520EC467949002D07
:101EB00007EB0002794408BF51F8221009D051F80D
:101EC000223001EB8201AB404A68089922FA01F105
:101ED0001943A1FB0E26A1FB0B131A449A4234BFEF
:101EE0000123002303EB06080CEB8003D3E901A6D2
:101EF0000E448E4234BF0121002192448A4411B124
:101F0000924502D903E0924501D2012100E000216F
:101F1000C3E901A641444CF82010011EA0F10100C4
:101F2000C4DC029800F10050850F0298DDE90367D8
:101F30008000DDF8148002F0C9FA41EC1A0B30463B
:101F400002F0E8FA9FED541B53EC112B02F032FB28
:101F500041EC1B0B384602F0DDFA9FED511B53ECB0
:101F6000112B02F027FB41EC180B404602F0D2FA8D
:101F70009FED4D1B53EC112B02F01CFB41EC190B98
:101F800051EC180B53EC192B01F04CFF53EC1B2BAD
:101F900001F048FF53EC1A2B01F044FFCDE9080192
:101FA000002008909DED080B53EC1A2B51EC100B00
:101FB00002F0FCFD53EC1B2B02F0F8FD53EC182B48
:101FC00002F0F4FD53EC192B02F0C4FC9FED381B1A
:101FD00053EC112B02F0EEFA9FED370B41EC180B8E
:101FE00053EC102B9DED080B51EC100B02F0E2FAB4
:101FF00053EC182B01F016FF9FED310B41EC180B41
:1020000053EC102B9DED080B51EC100B02F0D2FAA3
:1020100053EC182B01F006FF41EC100B139810F055
:10202000004F06D06D4251EC100B01F08DFD41ECDC
:10203000100B284684ED000B41E600000000000074
:102040000000000000000000FB21E93F7CD90240B5
:1020500000004054FB21F93F3163621A61B4D03D66
:10206000FB21F93F000000000000601A61B4D03D80
:102070007370032E8A19A33BFB2139410000000035
:1020800083C8C96D305FE43F000000000000E03FFE
:102090005A3A0000A8390000000000000000103E7D
:1020A000000000000000103C000000000000103A9A
:1020B000182D4454FB21F93D3326A611460B113C43
:1020C00000000054FB21F93D10B52DED040B2DED62
:1020D000088B82B0B0EE419AF0EE619A0B9820F036
:1020E00000449FED4BABB4F1795F11DA9DED0A0B23
:1020F00051EC100B02F086F9002801BFB0EE4A0A3D
:10210000F0EE6A0A02B0BDEC088B04BF04B010BD4B
:102110009DED0A0B53EC102B51EC100B02F04AFA18
:1021200041EC180B3C480621B0EE480AF0EE680A74
:10213000784400F081F853EC182B51EC100B02F0AE
:1021400039FA9DED0A0B41EC1B0B53EC192B51ECAA
:10215000100B02F02FFA41EC190B53EC1B2B51EC36
:10216000180B02F027FA53EC192B02F01FFD9FED1C
:102170002C0B41EC190B53EC102B51EC180B02F00B
:1021800019FA41EC100B2848844210DA53EC192B51
:1021900051EC100B02F00AFD53EC1A2B02F0DAFBA3
:1021A00041EC100B02B0BDEC088B04B010BD1F4811
:1021B000A042BCBF9FED1E1B8DED001B06DBA4F5EE
:1021C00000100190002000909DED001B51EC100BC1
:1021D00053EC112B02F0EAFC9DED000B41EC180BC7
:1021E00053EC102B51EC1A0B02F0E0FC41EC1A0BF3
:1021F00053EC192B51EC180B02F0D8FC53EC1A2BB2
:1022000002F0A8FB41EC100BCCE70000000000003E
:10221000000000000000F03FC43600000000000095
:10222000000000000000E03F3333D33F0000E93FEF
:10223000000000000000D23F70B504462DED028B77
:102240004D1E00EBC500B0EE408AF0EE608A90EDC6
:10225000000B35F0060017D053EC182B51EC100B87
:1022600002F0A8F941EC100B6D1E04EBC50090EDD7
:10227000001B51EC100B53EC112B01F0D3FD41EC82
:10228000100B35F00600E7D1022D36D0042D1CD0FE
:10229000062D1CBFBDEC028B70BD53EC182B51EC0E
:1022A000100B02F087F994ED0A1B53EC112B01F08F
:1022B000B9FD53EC182B02F07DF994ED081B53EC9B
:1022C000112B01F0AFFD41EC100B53EC182B51EC2E
:1022D000100B02F06FF994ED061B53EC112B01F07B
:1022E000A1FD53EC182B02F065F994ED040B53ECAF
:1022F000102B01F097FD41EC100B53EC182B51EC17
:10230000100B02F057F994ED021B53EC112B01F066
:1023100089FD53EC182B02F04DF994ED001B53ECA2
:10232000112B01F07FFDBDEC028B41EC100B70BD59
:1023300031B504462DED040B2DED0A8BB0EE41BAFC
:10234000F0EE61BA0B989DED0A0B20F00040B0F161
:10235000795F0DDA51EC100BFFF70AF9042808BF7A
:1023600000F0A2F89DED0A0BBDEC0A8B05B030BD64
:1023700053EC102B51EC100B02F01CF941EC180B34
:102380009DED0A0B53EC182B51EC100B02F012F9D7
:1023900041EC190B2C48B0EE480AF0EE680A052112
:1023A0007844FFF749FF9FED2ACBB0EE40AAF0EE4C
:1023B00060AA9CB353EC1C2B51EC190B02F0FAF8F9
:1023C00041EC1C0B53EC1A2B51EC190B02F0F2F8F8
:1023D0009FED210B41EC190B53EC102B51EC1B0B17
:1023E00002F0E8F853EC192B02F0E0FB53EC182B49
:1023F00002F0E0F853EC1B2B02F0D8FB53EC1C2B43
:1024000002F0D4FB9DED0A1B53EC112B02F0A2FA53
:10241000BDEC0A8B05B041EC100B30BDFFE753EC6F
:102420001A2B51EC180B02F0C5F853EC1C2B01F0E1
:10243000F9FC53EC192B02F0BDF89DED0A1B53EC8F
:10244000112B01F0EFFCE3E7543500000000000021
:10245000495555555555C5BF000000000000E03FE7
:1024600010B553EC102B51EC100B01F0DBFC41ECE0
:10247000100B10BD10B553EC112B51EC100B01F0EB
:10248000D1FC41EC100B10BD9FED050B10B553ECCA
:10249000102B51EC100B01F0F7FD41EC100B10BDAF
:1024A00000000000000000009FED050B10B553EC8C
:1024B000102B51EC100B02F07DF841EC100B10BD0D
:1024C000000000000000001010B541EC100BFFF7F9
:1024D00067F851EC100B10BD10B504460121102017
:1024E000FEF7ACFD42F2CF000C490885601EC862C1
:1024F0000020486201208882002008820120088094
:1025000000BF0648008A0028FBD00020034908804D
:1025100000211020FEF792FD10BD000000100040C9
:1025200082B0CDE9000121F0004001909DED000B4B
:1025300002B051EC100B704770B52DED048BB0B0AC
:10254000B0EE408AF0EE608A0446B0EE419A18215F
:1025500006A8FDF765FF8DED068ACDED098AB4EE7C
:10256000688AF1EE10FA37D0BDEEC90A10EE100AF3
:10257000012802D002280CD105E090221F490CA8A6
:10258000FDF71CFF0BE090221D490CA8FDF716FF7C
:1025900005E090221B490CA8FDF710FF00BF00BF0B
:1025A00006250626324629460CAB04A8FDF764FE34
:1025B00000BF01263246294606AB02A8FDF75CFEA5
:1025C0003246294623466846FDF756FE6A4602A96A
:1025D00004A8FDF755FE0DE09FED0B0A84ED050AFA
:1025E00084ED040A84ED030A84ED020A84ED010AF5
:1025F00084ED000A30B0BDEC048B70BDB05500080E
:1026000040560008D05600080000000010B52DED1F
:10261000068BF0EE408AB0EE609AF0EE419AB0EE92
:10262000618AF0EE481AB0EE691AF0EE490AB0EE8F
:10263000680A00F0D3F99FED070AB0EE40AA002423
:10264000C8216420B0EE480A01F0FAF9BDEC068B0F
:1026500010BD00000000000010B52DED048B01F04E
:102660008FF814206A49C87000206A49C8700BE0CE
:10267000684AD178664AD078032201F0D5F801F093
:102680004FF86420FFF728FF4FF400516248FEF72F
:1026900014FC0128ECD1FEF701F9B7EE001A5F48EF
:1026A000DFED5F0A9FED5E0AFFF746FFB7EE001A07
:1026B0005C48DFED5B0A9FED5A0AFFF73DFFB7EE7E
:1026C000001A5948DFED560A9FED550AFFF734FF0F
:1026D000B7EE001A5548DFED560A9FED510AFFF795
:1026E0002BFF64210F20B7EE000A01F0A9F90520A5
:1026F000474908700120487000204649087048701A
:1027000010E0002407E0434A115D414A105D224673
:1027100001F08AF8641C022CF5DB01F001F80F20AF
:10272000FFF7DAFE08213C48FEF7C7FB0128E8D195
:102730000220374988700020364988700BE0354AFE
:102740009178334A9078022201F06EF800F0E8FFA9
:102750000F20FFF7C1FE04212F48FEF7AEFB012832
:10276000EDD1FEF7C7F8002007E00021314A42F81A
:102770002010314A42F82010401C0428F5DB0020CC
:1027800012E09FED270A2D4901EB800181ED000A3F
:102790009FED230A2A4901EB800181ED000A002107
:1027A000284A42F82010401C0328EADB42F210704D
:1027B000FFF792FE00F0F4FF9FED190A204880ED2C
:1027C000020A9FED170A1D4880ED020A9FED140AC8
:1027D0001B4880ED010A9FED120A184880ED010A9E
:1027E00090ED000A10EE101A084602F0E1FC41ECF0
:1027F000190B9FED150B53EC102B01F0DBFE41EC98
:10280000180B01F0ADF90E490860BDEC048B10BD4A
:102810003C00002040000020000C0240A4000020EA
:1028200000000000BC000020D4000020EC000020CC
:102830000000B44344010020540100202401002082
:1028400084000020040100206666666666662040FB
:1028500000B597B001210220FEF7D0FB01218804CA
:10286000FEF7ECFB01214805FEF7C8FB07220A2111
:102870005548FEF7FFFA07220B215348FEF7FAFAF4
:102880004FF48060159002208DF8580000208DF8DC
:102890005A0001208DF85B0002208DF8590015A91F
:1028A0004948FEF79FFA4FF40060159002208DF81A
:1028B000580015A94448FEF795FA4FF4E1301190FD
:1028C0000020ADF84800ADF84A00ADF84C00ADF876
:1028D00050000C20ADF84E0011A93C48FEF7DCFD7D
:1028E00001213A48FEF7C2FD012280213748FEF758
:1028F000C9FD012240213548FEF7C4FD4FF00060BC
:1029000002903248001D0390314804900020059049
:1029100015200690002007904FF48060089000205A
:1029200009900A900B904FF400300C9000200D900D
:1029300001200E9000200F90109002A92548FDF76D
:10294000EFFE01212348FDF7C3FE0C208DF80400A3
:1029500000208DF805008DF8060001208DF8070095
:1029600001A8FEF7BDFA012210211A48FDF7BBFEAF
:102970004FF0006002901548001D03901648049027
:102980004020059001200690002007904FF48060C1
:102990000890002009900A900B904FF400300C90A2
:1029A00000200D9001200E9000200F90109002A9A1
:1029B00008483030FDF7B4FE012106483030FDF7FD
:1029C00087FE17B000BD0000000402400048004030
:1029D000EC020020286002405C00002030B52DEDA4
:1029E000108B8FB0B0EE409AF0EE608AF0EE419A14
:1029F000F0EE61AA29EE090A08EEA80ADFEDFE0A48
:102A000030EE600ADFEDFD0A30EE600ADFEDFC0A11
:102A100080EE201AB0EE41AAB7EE000A0AEE4A0A8A
:102A200010EE101A084602F0C3FB41EC1C0BB0EE8E
:102A30004C0AF0EE6C0AFFF7EBF8B0EE40DAF0EE7D
:102A400060DA51EC1D0B01F08BF804461AEE100A07
:102A500002F0AEFB41EC1E0B204602F0A9FB41EC5C
:102A60001C0BB0EE4E1AF0EE6E1AB0EE4C0AF0EE01
:102A70006C0AFEF701FFB0EE40DAF0EE60DA51ECDE
:102A80001D0B01F06DF808EE100A18EE100A02F0A6
:102A90008FFB41EC1D0BB0EE4D0AF0EE6D0AFEF718
:102AA000E3FFB0EE40CAF0EE60CA9FEDD60B53ECE8
:102AB000102B51EC1C0B01F07DFD41EC1E0B9FED2A
:102AC000D30B53EC102B01F0ADF941EC1F0B18EEBA
:102AD000100A02F06DFB41EC1C0BB0EE4C0AF0EE5C
:102AE0006C0AFFF731F8B0EE40DAF0EE60DA9FEDF5
:102AF000C50B53EC102B51EC1D0B01F05BFDB0EE40
:102B00004F1AF0EE6F1ACDE900019DED000BFEF7B4
:102B1000B3FE8DED040B19EE100A02F049FB41ECF7
:102B20001D0B18EE900A02F043FB41EC1C0BB0EEBB
:102B30004D1AF0EE6D1AB0EE4C0AF0EE6C0AFEF78C
:102B40009BFE8DED020B9DED040B53EC102B9DEDC8
:102B5000020B51EC100B02F029F89FEDAE0B53EC79
:102B6000102BCDE906019DED060B51EC100B01F089
:102B700021FD9FEDAA0B53EC102BCDE908019DED33
:102B8000080B51EC100B01F07FFA9FEDA60B53ECF4
:102B9000102BCDE90A019DED0A0B51EC100B01F051
:102BA00009FDCDE90C019DED0C0B51EC100B00F073
:102BB000D7FF0BEE100AB1EE480AB0EE408A18EECD
:102BC000100A02F0F5FA41EC1D0BB0EE4D0AF0EEE2
:102BD0006D0AFEF749FFB0EE40EAF0EE60EA9FEDC5
:102BE000890B53EC102B51EC1E0B01F0E3FC41EC74
:102BF0001C0B9FED860B53EC102B01F013F941ECED
:102C00001F0B18EE100A02F0D3FA41EC1D0BB0EEC8
:102C10004D0AF0EE6D0AFEF797FFB0EE40CAF0EEF7
:102C200060CA9FED780B53EC102B51EC1C0B01F09C
:102C3000C1FCB0EE4F1AF0EE6F1ACDE900019DED28
:102C4000000BFEF719FE8DED040B19EE100A02F0D1
:102C5000AFFA41EC1C0B18EE900A02F0A9FA41EC15
:102C60001D0BB0EE4C1AF0EE6C1AB0EE4D0AF0EE01
:102C70006D0AFEF701FE8DED020B9DED040B53EC8A
:102C8000102B9DED020B51EC100B01F08FFF9FED0F
:102C9000610B53EC102BCDE906019DED060B51ECB9
:102CA000100B01F087FC9FED5D0B53EC102BCDE971
:102CB00008019DED080B51EC100B01F0E5F99FEDBB
:102CC000590B53EC102BCDE90A019DED0A0B51EC89
:102CD000100B01F06FFCCDE90C019DED0C0B51ECDC
:102CE000100B00F03DFF0BEE900A504890ED000AEB
:102CF0003BEEC00A10EE101A084602F059FA41ECF9
:102D00001C0BB0EE4C0AF0EE6C0AFEF711FFB0EEB1
:102D100040EAF0EE60EA454890ED000A3BEE400ADA
:102D200010EE101A084602F043FA41EC1C0BB0EE0C
:102D30004C0AF0EE6C0AFEF7FBFEB0EE40FAF0EE45
:102D400060FA53EC1E2B51EC1F0B01F02FFF41ECEE
:102D50001D0B9FED370B53EC102B01F0CAFD0DD866
:102D60009FED350A28EE000ADFED340A80EE201AC6
:102D7000334880ED011AC0ED00BA0EE0B1EE480A0A
:102D8000DFED2D0A20EE200ADFED2C0A80EE201A5E
:102D90002B4880ED011A80ED00BA2948D0ED000AD9
:102DA0009FED281A80EE810ADFED270AB4EEE00AD3
:102DB000F1EE10FA4AD890ED000ADFED220A80EE1B
:102DC000201A90ED010A31EE000A30EE290A10EEC9
:102DD000105A284602F0ECF941EC1C0B9FED0D0B4C
:102DE00053EC102B01F0B6FD41EC1D0B00F0B8FECA
:102DF0001349886066E000000080DC430020D24375
:102E000000405744000000000080344000000000F3
:102E100000003540000000000080664000000060B7
:102E2000FB210940666666666666204084000020D5
:102E3000000000000000000000003443DB0F4940A8
:102E400094000020333303410000B44219EE900A8D
:102E500002F0AEF941EC1C0B334890ED010A10EE84
:102E6000101A084602F0A4F9CDE90A012E4890EDA7
:102E7000000A5FED0C0A80EE201A11EE105A284667
:102E800002F096F941EC1D0B1FED1E0B53EC102BBD
:102E900001F060FD41EC1E0B9DED0A0B53EC102B75
:102EA00001F084FE41EC1F0B53EC1C2B01F07EFE65
:102EB000CDE90C019DED0C0B51EC100B00F050FE18
:102EC00019498860184890ED001AF0EE410A174839
:102ED00090ED001AB0EE410AB0EE6A1A1448FFF7FE
:102EE0002BFB114890ED011AF0EE410A0F4890EDCE
:102EF000011AB0EE410AB0EE6A1A0E48FFF71CFB49
:102F0000094890ED021AF0EE410A084890ED021AC5
:102F1000B0EE410AB0EE6A1A0748FFF70DFB0FB09A
:102F2000BDEC108B30BD0000940000208400002018
:102F3000A4000020BC000020D40000202DED0C8B4C
:102F4000E54800684FF47A72B0FBF2F1481EB0F128
:102F5000807F00D31BE0481E4FF0E02250615017E5
:102F60000F22002804DB13071C0EDC4B1C5406E068
:102F700013071D0EDA4B00F00F04241F1D5500BF70
:102F800000204FF0E02290610720106100BFFFF7A2
:102F90005FFCFDF797FDFDF7F1FBFDF7DDFF42F26A
:102FA0001070FFF799FA00214FF08040FEF719FAF0
:102FB0000020CC490870FDF771FC002410E00020CF
:102FC000C9490855C94908550A46115DC64A105DE8
:102FD000224600F029FC0020C54941F82400641C69
:102FE000042CECDB00F09CFB75E1BE480078002867
:102FF0007ED0C0480078672867D0682804D06F2842
:1030000077D0742811D111E0FFF726FB40F29B31F5
:103010004FF08040FEF7E5F942F21070FFF75CFADE
:1030200000214FF08040FEF7DCF93CE1002045E054
:1030300000EB8001C91CAF4A515C3039642211FB9E
:1030400002F200EB8001091DAA4B595C303901EBFB
:10305000810102EB410200EB8001491D595C3039CE
:103060001144A54A116000EB8001891C1A46515C8D
:10307000302911D1A14901EB8001D1ED000A9E490F
:1030800091ED000AB8EEC00A30EE800A9C4901EBCF
:10309000800181ED000A10E0984901EB8001D1ED3B
:1030A000000A954991ED000AB8EEC00A30EEC00A58
:1030B000934901EB800181ED000A401C0428B7DB35
:1030C000B7EE000A00F0C8FBEDE08E4890ED000A74
:1030D00010EE101A084602F06BF841EC190B9FED48
:1030E0008A0B53EC102B01F065FA41EC180B01E050
:1030F000DDE0D2E000F034FD8049086001200AE004
:10310000804901EB800191ED000A7C4901EB8001CF
:1031100081ED000A401C0428F2DB76498979A1F18F
:10312000300001F0D3F99FED7A0B53EC102B01F036
:1031300041FA41EC190B6F494979A1F1300001F0D6
:10314000C5F99FED750B53EC102B01F033FA41ECF0
:103150001B0B684909793039664AD278303A02EB5C
:10316000820201EB420001F0B1F953EC1B2B00F09D
:1031700059FE53EC192B00F055FE00F0F1FC6849A4
:1031800008605C49097BA1F1300001F09FF99FEDD7
:10319000600B53EC102B01F00DFA41EC1A0B554962
:1031A000C97AA1F1300001F091F99FED5B0B53EC6E
:1031B000102B01F0FFF941EC1B0B4E49897A303995
:1031C0004C4A527A303A02EB820201EB420001F0A3
:1031D0007DF953EC1B2B00F025FE53EC1A2B00F06D
:1031E00021FE00F0BDFC4F4908604249897CA1F1F5
:1031F000300001F06BF99FED480B53EC102B01F000
:10320000D9F941EC190B3B49C97B3039642211FBD8
:1032100002F23849097C303901EB810102EB4102AD
:103220003449497C3039501801F050F953EC192BCE
:1032300000F0F8FD00F094FC3B4908602D488078D0
:10324000312806D1364890ED000AB1EE400A80EDF3
:10325000000A2848007A312806D1324890ED000A49
:10326000B1EE400A80ED000A2248407B312806D1A9
:103270002D4890ED000AB1EE400A80ED000AF0EE14
:10328000041A294890ED001A2648D0ED000A244877
:1032900090ED000AFFF7BAF905E040F275218807C2
:1032A000FEF79FF800BF00BF00200E4908704F20B6
:1032B0001E4908704FF0C0511D48FDF7D5F9012097
:1032C0001B495839C86501211948FDF701FA4FF427
:1032D000FA70FFF701F988E66000002000E400E0E2
:1032E00018ED00E0200000203C00002040000020FD
:1032F00004010020EC02002058000020840000207F
:103300009400002024010020666666666666204000
:103310007B14AE47E17A843F9A9999999999B93F7C
:103320003000002034000020380000205C00002025
:103330005860024070B52DED0E8B04460D46B0EE80
:10334000408A95ED000AB5EEC00AF1EE10FA28D1D8
:1033500095ED010AB5EEC00AF1EE10FA21D195ED16
:10336000020AB5EEC00AF1EE10FA1AD195ED030A81
:10337000B5EEC00AF1EE10FA13D195ED040AB5EEE0
:10338000C00AF1EE10FA0CD195ED050AB5EEC00AAF
:10339000F1EE10FA05D10020B6490855B649085596
:1033A00065E195ED000AD5ED010A00EE880AD5ED3C
:1033B000020A60EE880A00EE880AD5ED030A60EE84
:1033C000880A60EE880A00EE880AD5ED040A60EEED
:1033D000880A60EE880A60EE880A00EE880AD5ED59
:1033E000050A60EE880A60EE880A60EE880A60EEE0
:1033F000880A00EE880AA14800EB840080ED000AEC
:103400009F48006801F0D4FE41EC1B0B9B4800EB89
:10341000840090ED000A9B4800EB8400D0ED000A88
:1034200030EE600A10EE101A084601F0C1FE41ECC1
:103430001D0BB0EE4D0AF0EE6D0AFEF779FBB0EE13
:1034400040CAF0EE60CA53EC1B2B51EC1C0B01F090
:10345000B1F841EC1A0B9FED8C0B53EC102B00F0E4
:1034600013FE41EC190B854800EB840090ED000A37
:10347000844800EB8400D0ED000A30EE600AB5EE1F
:10348000C00AF1EE10FA03D800207B49085502E08B
:1034900001207949085551EC190B00F0B3FF06469D
:1034A00001F014F841EC1B0B53EC192B01F052FA0C
:1034B00041EC1A0B9FED760B53EC102B01F019FA2F
:1034C00035D251EC190B00F09DFF401C694908559D
:1034D00051EC190B00F096FF064600F0F7FF41ECA7
:1034E0001E0B53EC192B01F035FA41EC1C0B6A480A
:1034F00000EB840090ED000A10EE101A084601F06F
:1035000057FE41EC1D0B53EC1C2B00F08BFC41ECE7
:103510001B0B9FED620B53EC102B01F047FB41ECB2
:103520001A0B00F01DFB5C4941F824002BE051EC24
:10353000190B00F067FF4F49085551EC190B00F0CB
:1035400061FF064600F0C2FF41EC1D0B53EC192B46
:1035500001F000FA41EC1B0B4F4800EB840090EDAA
:10356000000A10EE101A084601F022FE41EC1C0B76
:1035700053EC1B2B00F056FC41EC1A0B00F0F0FA58
:10358000454941F82400444800EB840090ED000ACE
:10359000F7EE000AB4EEE00AF1EE10FA13DB3E4853
:1035A00000EB840090ED000AF7EE000A30EE600AAE
:1035B000394800EB840080ED000A2E48005D401C75
:1035C0002C49085522E0344800EB840090ED000AB5
:1035D000FFEE000AB4EEE00AF1EE10FA16D8254824
:1035E000005D00280DDD2C4800EB840090ED000A02
:1035F000F7EE000A30EE200A274800EB840080ED49
:10360000000A1C48005D401E1A490855254850F81C
:10361000240000280CDD1748005D401C15490855A2
:10362000204850F82400401E1E4941F8240014E0B0
:103630001C4850F8240000280FDA0E48005D0128CD
:103640000BDD0C48005D401E0A490855154850F82E
:103650002400401C134941F82400084800EB840072
:1036600090ED000A074800EB840080ED000ABDECF5
:103670000E8B70BD3C000020400000209400002014
:10368000AC55000884000020000000000080764057
:103690005C8FC2F5285CE73F1401002000000000A9
:1036A0000000F03F0401002010B52DED068B04460C
:1036B000204600F02FFF41EC1A0B9FED130B53EC4B
:1036C000102B00F077FF41EC190B00F049FA08EEDF
:1036D000100AB0EE480A0E490020FFF72BFEB0EEAC
:1036E000480A0C490120FFF725FEB0EE480A0A49B6
:1036F0000220FFF71FFEB0EE480A08490320FFF73B
:1037000019FEBDEC068B10BD7B14AE47E17A843FF9
:10371000A4000020BC000020D4000020EC00002009
:1037200010B54FF480510F48FDF7D2FB0A2400BFBB
:10373000201EA4F10104FBD14FF480510948FDF78C
:10374000C5FB4FF480510748FDF7C2FB0A2400BFB8
:10375000201EA4F10104FBD14FF480510148FDF774
:10376000B5FB10BD000C0240002004E00021034A1C
:1037700042F82010401C0428F8DB704704010020A8
:10378000002005E00021044A1154044A1154401C51
:103790000428F7DB704700003C00002040000020B8
:1037A00010B52DED028BB0EE041A1848DFED180AA3
:1037B0009FED180AFEF7C0FEB0EE041A1648DFEDC2
:1037C000170A9FED140AFEF7B7FEB0EE041A14486C
:1037D000DFED100A9FED0F0AFEF7AEFEB0EE041A01
:1037E0001048DFED0C0A9FED0B0AFEF7A5FE9FEDDA
:1037F000090AB0EE408A0024C8210B20B0EE040A6A
:1038000000F01EF9BDEC028B10BD0000A4000020EA
:103810000080384400000000BC00002000801843F5
:10382000D4000020EC000020F0B503460D461446FD
:1038300064000027322B00DD3223EF011F4404F126
:10384000C0403946FDF7CCFA0027322600BF301EB3
:10385000A6F10106FBD1F0BD2DE9F0412DED088B5D
:10386000B0EE408A0026664890ED000AB0EE40BAFD
:103870009FED640AF0EE408A18EE100A01F098FC01
:1038800041EC1A0B9FED600B53EC102B00F092FEF5
:1038900041EC190B00F0B6FD07465D4890ED001AAB
:1038A000F0EE410A5B4890ED001AB0EE410AB0EE2E
:1038B000481A5948FEF740FE554890ED011AF0EEBF
:1038C000410A544890ED011AB0EE410AB0EE481A90
:1038D0005248FEF731FE4E4890ED021AF0EE410AD2
:1038E0004C4890ED021AB0EE410AB0EE481A4C482E
:1038F000FEF722FE464890ED031AF0EE410A4548D5
:1039000090ED031AB0EE410AB0EE481A4548FEF7B2
:1039100013FE012561E0A8B2FFF7C6FE002407E010
:10392000414A115D414A105D2246FFF77DFF641C4C
:10393000042CF5DBFFF7F4FE6420FEF7CDFDFCF769
:10394000EBFF642095FBF0F100FB115090BB0024CD
:1039500040E0E0B2FCF79AFF354800EB840080EDD0
:10396000000A84B92A4800EB840090ED000A304830
:1039700000EB8400D0ED000A9FED2E1A10EE810AB4
:10398000F0EE408A25E0012C15D1294800EB840097
:1039900090ED000A1E4800EB8400D0ED000A30EEE6
:1039A000600AF0EE408A244800EB8600C0ED008AF1
:1039B000761C0EE010E01E4800EB840090ED000A3B
:1039C000134800EB8400D0ED000A30EE600AF0EE00
:1039D000408A641C042CBCDB6D1C9FED180A68EE49
:1039E000000A00EE105AB8EEC00AF4EEC00AF1EE7A
:1039F00010FA90DAFFF7B8FEBDEC088BBDE8F08155
:103A0000AC55000800000000000000000000494024
:103A10009400002084000020A4000020BC000020AE
:103A2000D4000020EC000020400000203C000020DA
:103A30006401002033330341840100200000C842A8
:103A40002DE9F0412DED048BB0EE408A80460E4604
:103A5000354890ED000AB0EE409A0027012550E06D
:103A6000A8B2FFF721FE002407E0304A115D304A7A
:103A7000105D2246FFF7D8FE641C042CF5DBFFF72F
:103A80004FFE4046FEF728FDFCF746FF95FBF6F09B
:103A900006FB1050A0BB002430E0E0B2FCF7F6FEBD
:103AA000244800EB840080ED000A84B9224800EB32
:103AB000840090ED000A1F4800EB8400D0ED000A5E
:103AC0009FED1E1A10EE810AF0EE408A15E0012CDF
:103AD00013D1184800EB840090ED000A164800EB63
:103AE0008400D0ED000A30EE600AF0EE408A1448FF
:103AF00000EB8700C0ED008A7F1C641C042CCCDB2B
:103B00006D1C9FED100A68EE000A00EE105AB8EE28
:103B1000C00AF4EEC00AF1EE10FAA1DAFFF724FEB3
:103B2000BDEC048BBDE8F081AC55000840000020DE
:103B30003C00002064010020940000203333034146
:103B4000840100200000C84281F00041704780F0ED
:103B50000040704721F00041704720F0004070475E
:103B600021F00042A2F16052B2F5801F01F0004343
:103B700028BFD2F17E6C51D9F1EE10CA1CF4400F6F
:103B800014D15FEAC00C43EAC20202EB507008BFD6
:103B900070475FEA4C0C40F10000DFF880C241F052
:103BA000118228BF20F0010001F00CBAC30001F01F
:103BB000004343EAC20202EB507008BF70471B4249
:103BC00048BF4FEA4C0C1CF4000F08BF401CDFF844
:103BD0004CC201F0F7B9C30001F0004343EAC2024E
:103BE00002EB507204BF104670471B4248BF4FEAB9
:103BF0004C0C1CF4000FDFF824C218BF104641F033
:103C0000E18108BF521C12F4000F08BF104601F0FA
:103C1000D98121F0004201F0004330E050EA410C2C
:103C200004BF084670475FEA125CBCF1FE0F1ED16C
:103C3000F1EE10CA1CF4400FCDD15FEAC00C9BD04E
:103C40005FEA001C4FEAC20C4CEB507C04BFC20080
:103C50002CEAD27C1CF4000F04BF4CEA0300DFF80E
:103C6000BCC101F0AF8121F00042A2F16052B2F577
:103C7000801F4FEA410C2ADB1CF5001F16D2F1EE23
:103C800010CA1CF4806F06D02CF0005C4CF0805CF5
:103C9000A1F140612AE04FF07F40DFF884C143EAA0
:103CA000500001F08FB9084601F03DBB70B500F03F
:103CB00061FD00BF000000B988000004FFF7F3BFFA
:103CC00021F0704243EA507040EAC2007047F1EEC2
:103CD00010CA2CF0805C4CF0005C1CF4006F25D006
:103CE0004B00B3F5001F51D301F140611CF4400FAC
:103CF00040F07E800CF0405CC3004CF0880C11D08A
:103D00005CF0404C10F0805F0CD0034610F1005086
:103D100041F10001020108BF20F00050834218BFAA
:103D20002CF0004C00F0604001F0F9BB1CF4400F97
:103D30001AD01B4248BF4FEA4C0C1CF4000F13D1A1
:103D400012F1406248BF22F07F424FEAC00CBCF142
:103D5000010F43EAC20242EB50704FF0880228BFC5
:103D600042F0804201F0E4BA12F1406248BF22F012
:103D70007F425FEAC00C43EAC20242EA50704FF051
:103D8000880218BF42F0404201F0D2BA01F000436D
:103D900021F00041094214D0B1FA81FCACF10B0CC6
:103DA000CCF1200201FA0CF120FA02F241EA020100
:103DB0004FEA0C5200FA0CF0A1EB020181EA030178
:103DC0000FE0B0FA80F200FA02F002F115024FEAB9
:103DD000D0214FEA0252A1EB02014FEA405081EAA2
:103DE0000301F1EE10CA2CF0805C4CF0005C7BE724
:103DF00062460CF0405CC3004CF0880C92D05CF042
:103E0000404C094248BF520012F4000F8AD110F111
:103E1000005041F100012CF0004C83D1880000409B
:103E20008800001010B5DFF840E211F5801C13F592
:103E300080141EEA4C0F18BF1EEA440F00F0C88021
:103E400091EA030F48BF83F0004300F1C486841A4F
:103E500071EB030C05D2121943EB0C03001B61EB51
:103E60000C014FEA1154A4EB135C23EA6E0321EA20
:103E7000045143F48013DCF1200E53D322FA0CFEDC
:103E800010EB0E0023FA0CFE41EB0E01CCF1200EDC
:103E900003FA0EFE10EB0E0051F10001B1F5801F88
:103EA000CCF1200E53D201EB045112FA0EF2BDE810
:103EB000104008BF7047F1EE10CA1CF4400F1ED12D
:103EC0004FF0110C92F0000F4CF0804C41F17A80D1
:103ED000401C38BF5FEA420241F07480002814BFE2
:103EE00020F0010041F100014FEA410313F5001FEA
:103EF00024BF4CF0805CA1F1C04101F063B811F027
:103F0000004F54BF1CF4000F1CF4800F4FF0110C35
:103F10004CF0804C41F05680401CC1F0538041F180
:103F20000001E1E7012A43EB0302ACF1200CDCF1D4
:103F30001F0E32BF4FF0000E23FA0CF310EB0300FC
:103F400041EB0451B4EB115FAFD0A1EB045101F58B
:103F5000801149085FEA300002FA0EF242EA42029A
:103F600001EB04515FEA320213D0BDE81040F1EEDC
:103F700010CA1CF4400F1AD14FF0110C92F0000F30
:103F80004CF0804CB0D5401C38BF5FEA4202ABD148
:103F9000A4E7BDE810404FEA410313F5001F38BF06
:103FA0007047DFF8C8C0A1F1C04101F00BB811F0B3
:103FB000004F54BF1CF4000F1CF4800F4FF0110C85
:103FC0004CF0804C90D1401C8ED341F100018BE726
:103FD0004EF4001E3EEA410418BF3EEA430439D0C5
:103FE00091EA030F48BF83F0004300F1EF86841A83
:103FF00071EB030C05D2121943EB0C03001B61EBB0
:104000000C0152EA430E4FEA1154A4EB135C13D097
:104010005FEA445E21EA04511CBF23F00043ACF187
:10402000010C7FF428AFBDE810404FF0110C801850
:1040300041EB030100F0B1BE5FEA445EBDE8104011
:1040400018BF704750EA410C08BF70474FF0110C81
:1040500000F0A3BEBDE8104070B500F08BFB00BFC0
:1040600064FBBE3E110000040000C0FF1100001000
:10407000491058BFC1F140415B1058BFC3F14043E4
:104080008B42EFF3008070472DE9C04130B4DFF878
:1040900064C33CEA111418BF3CEA131400F04B81CE
:1040A00081EA03051CEA111444EAD57418BF1CEA1E
:1040B000131500F01D81A4EB05044FF0004545EAFF
:1040C000C12145EAC32341EA505143EA525304F166
:1040D0007F74994204F500344FEAC0204FEAC222AF
:1040E00008BF904200F0D0804FEA13650FF204261B
:1040F000765D4FEA134506FB05F7C7F1807706FBAF
:1041000007F74FEAD737A7FB03687642C8F5803830
:10411000A7FB06CE38BFA8F1010807FB08E64FF061
:10412000000EA6FB028CE6FB03CEDCF1000CCEF108
:10413000004E38BFAEF1010EA6FB0C584FF0000741
:104140004FF00005E6FB0E87A1FB08C6A0FB07CEDB
:1041500016EB0E0645F10005E1FB076515F1E04E93
:104160007EBFA4F580345FEA46066D4116F18007F4
:10417000F1EE10CA45F100054FEA172747EA056737
:104180001CF4400F4FEA152536D14FEA4666A6F1DA
:104190005E46B6F1085F2FD9B4F1FE6F2CD83846D1
:1041A00024F0010C05EBC471BCF1FE6F01EB0C11A6
:1041B000DFF844C202D8F0BCBDE8004140F20287FB
:1041C00024425CBF01F5801E9EEAC47F02D4F0BC8D
:1041D000BDE8004140F1F686244277D4DFF81CC2E6
:1041E00056EA080EA1F1C04118BF4CF0804CF0BC5B
:1041F000BDE8004100F0E6BE4FEAD22242EA435257
:104200004FEAD323A7FB02864FEAD02040EA415071
:1042100007FB03661EEA0E0F4FEAD12105FB02667B
:1042200058BFA6EB0056B6EB00564FEA520E4EEAC8
:10423000C37E18EB0E0E56EB530E05D518EB020895
:104240005E417F1C55F1000556EA080E24D01CF48F
:10425000400FA4D014F0010F18BF4FEA4C0C1CF40F
:10426000000F08D036429AD4B8EB02089E417F1E58
:1042700075F1000593E7364291D518EB02085E41CF
:104280007F1C55F100058AE74FF480154FF00007B9
:104290004FF000064FF0000824F0010C384605EB03
:1042A000C471BCF1FE6F01EB0C1102D8F0BCBDE88B
:1042B00000811CEA0C0F5CBF01F5801E9EEAC47FE2
:1042C00002D4F0BCBDE80081244287D556EA080C30
:1042D00001F1C0411CBF06F0004C4CF0804C4CF08A
:1042E000005CF0BC4CF0140CBDE8004100F0ACBD2B
:1042F00050EA410E0CEA13150BD052EA430E13D0CC
:1043000000F0B9FA641B86EA4606240444EAD6742F
:10431000D3E652EA430E00F02680F0BC81EA0301A6
:1043200001F00041BDE80081F0BCBDE80041DFF8CC
:10433000D0C000F047BEF0BCBDE8004170B500F051
:1043400019FA00BF097EFC3E1400000400F007B813
:1043500081EA03014FF0000001F00041704781EA5B
:10436000030100F0C0BAF0BCBDE800415FF828C00E
:1043700000F028BEFFFDFBF9F7F5F4F2F0EEEDEBEF
:10438000E9E8E6E4E3E1E0DEDDDBDAD8D7D5D4D353
:10439000D1D0CFCDCCCBCAC8C7C6C5C4C2C1C0BF9F
:1043A000BEBDBCBBBAB9B8B7B6B5B4B3B2B1B0AFA5
:1043B000AEADACABAAA9A8A8A7A6A5A4A3A3A2A189
:1043C000A09F9F9E9D9C9C9B9A9999989797969544
:1043D00095949393929191908F8F8E8E8D8C8C8BE0
:1043E0008B8A898988888787868585848483838268
:1043F000828181800000FF0714000040140000103B
:10440000140000084FEA410380B54FEA5353A3F567
:104410008063D3F11E03C8BFD3F1210C1FDD4FF021
:10442000004242EAC12242EA505232FA03FC62FAE6
:1044300003F787EA0C0757EAC0270BD032FA03FCD0
:104440008CEAE17CACEBE170BDE88040DFF874C041
:1044500000F0B8BD8CEAE17CACEBE17080BD50EAC5
:10446000410C00D180BD102B07DD4FF00000BDE8EE
:104470008040DFF850C000F0A5BD03F5787CBCF1AA
:10448000FF3F14D0002B02BF7FEA210C5FEA013C02
:104490005FEA505C05D100284FF00040D4D100D134
:1044A00080BDBDE88040DFF820C000F08BBDBDE8D6
:1044B000804070B500F05EF9000000BFC800030442
:1044C00080B5DFE7C8000240C800020410F00042D7
:1044D00048BF4042B0FA80F310FA03F10AD0C3F1AA
:1044E0001D0303F580634FEA415002EB035202EBD8
:1044F000D12170474FF000007047B1FA81F201FA04
:1045000002F1C2F11D024FEA415003EB025303EBEB
:10451000D1217047B0FA80F310FA03F10AD0C3F149
:104520001D0303F580634FEA41504FEA035202EB4B
:10453000D12170474FF000007047000051EA030C92
:1045400011D41CF5801F00F10680994218BF7047F6
:1045500008BF9042704711F5801F58BF13F5801FA8
:1045600018D4994270471CF5801F09D550EA410CB8
:104570000EBF52EA430C8B42704708BF824270471D
:104580004FF4001C1CEB410F38BF1CEB430F01D252
:104590008B42704770B500F0EDF800BF0000003F9F
:1045A00019001604FFF764BD4FF000514FF080531F
:1045B000FFF75EBDDFF8B4C170B51CEA111E1EBF67
:1045C0001CEA13159EEA0C0F95EA0C0F00F094807C
:1045D00081EA030421EA4C114EEAD47E23EA4C130B
:1045E000AE4441F4801143F48013A1FB024CA0FBC4
:1045F0000365AEF17F7E361955EB0C05A1FB034C2C
:104600004CF10003A0FB021C16EB0C06654153F1B4
:104610000003094218BF46F0010613F4007F0BD1D6
:104620004FEA03314FEA0530340341EA155140EABD
:1046300016506FF003020AE04FEAC3214FEAC5208B
:10464000F40241EA555140EA56506FF00202264604
:1046500002EB2E4201EB025585EACE7127D0F1EE36
:1046600010CA05461CF4400C14D15FEA440C18BF74
:1046700024F0004450F1000041F1000120EAD47020
:1046800040F2FD7C624517D2BDE87040DFF8E0C023
:1046900000F098BC5FEACE7454BF1CF4000F1CF409
:1046A000800F08BF10F1010041F10001E8E740F27E
:1046B000FE7C624504D270BD08BF11F4801FE3D0B8
:1046C000A84214BF4FF080444FF04044002E08BF72
:1046D0000024BEF1806FD8BF01F1C041A8BFA1F195
:1046E000C04144F0130CA8BF4CF0805CBDE87040A2
:1046F00040F3AA8300F066BC9EEA0C0F0CEA131587
:1047000018BF95EA0C0F19D091EA030F48BF4EF07D
:10471000010E50EA410418BF52EA430409D000F0E8
:10472000AAF8641986EA46064FEA044E4EEAD67E97
:104730005BE74FEACE714FF0000070BD00F01AF851
:104740008900013E1300000400F005B800F007B82E
:1047500052EA430C06D081EA030100F0C4B850EAE3
:10476000410CF8D15FF824C000F02CBC0000FF071A
:10477000130000400EF1020E2EF0030E01285EF829
:10478000086B41EB010414F5001418BFB4F5801F49
:1047900023D3364208D4012A43EB030515F500154F
:1047A00018BFB5F5801F18D301EB010C1CF5801F55
:1047B00016D2364204D403EB030C1CF5801F0FD233
:1047C000002C10D14FEAD17C002D0CEB4C0C0CF1DD
:1047D000020C08BF4CEBD37C07E04FF0090C04E05F
:1047E0004FF0080C01E04FEAD37C0CEB4C0526FAA5
:1047F00005F606F00706B6F1040C06D20EEB860CA1
:10480000BDE870404CF0010C6047DFE80CF022245A
:1048100013025EF804CC1B2D08D1002C88BFB4F520
:10482000801F34BF4CF4804C4CF4004CBDE8704009
:1048300000F0C8BB002C88BFB4F5001F24BF194688
:10484000104670BD4FF000004FF00041A1F500216F
:1048500070BD19461046012851EB010418BFD4F56C
:10486000001484BF5EF804CC2CF0806CBDE870406E
:1048700000F28783704780B54FF003065C004FEA73
:1048800003334FEA3606640D4FEA133318BF43F47F
:1048900080131CD153EA125E04F1010402BF1346D7
:1048A0000022203C1B4202BF130B1205143CB3FA3A
:1048B00083FEAEF10B0ECEF1200C03FA0EF322FABA
:1048C0000CFC02FA0EF2A4EB0E0443EA0C030FB444
:1048D00016F0010F0CBC03BC18BF2546CED180BD1D
:1048E00080B50126F3E70808A0F500114FEA310171
:1048F000704753EA010C11D41CF5801F00F10680AB
:104900008B4218BF704708BF8242704713F5801F63
:1049100058BF11F5801F18D48B4270471CF5801FBB
:1049200009D552EA430C0EBF50EA410C9942704738
:1049300008BF904270474FF4001C1CEB430F38BF78
:104940001CEB410F01D2994270470FB40CBC03BC61
:10495000FFF720BE10B5DFF848E011F5801C13F515
:1049600080141EEA4C0F18BF1EEA440F09D091EACA
:10497000030F81F000413FF56AAA83F0004300F085
:104980002AB981EA030180EA020083EA010382EA8C
:10499000000281EA030180EA020000F008BA00BFC9
:1049A0000000C0FF2DE9F04101F5801CBCF5001F9F
:1049B000C0F2DC804FEA115C21EA0C5141F4801115
:1049C0000CF1FD0C5FEA5C0C0CF5C07C01D34000DF
:1049D000494135A4890241EA905187028E0E0A0CA2
:1049E000A45D04FB04F602FB06F6C6F14046A4FBF8
:1049F0000662F60D46EA422606FB06F4A4FB0123F6
:104A00005242C3F1404338BF5B1EA6FB0242002462
:104A1000E6FB0324D20B42EA4446A6FB0623A1FB95
:104A200002E2A3FB07E4E3FB61426442C2F1404EB1
:104A300038BFAEF1010EA6FB04234FF00002E6FBE7
:104A40000E32A2FB03463400E2FB6264A1FB06E6E1
:104A5000A4FB07E8E4FB61687642C8F1405838BF20
:104A6000A8F10108A2FB06E4A3FB08E5E2FB6854F9
:104A7000A1FB05E6A7FB04E8E1FB648618F120052D
:104A8000F1EE104A56F10006A809B10914F4400FDE
:104A900040EA866028D1A8F11B0808F01F08B8F189
:104AA0000A0F21D9BDE8F04101EB0C514FF0170C72
:104AB0004CF0804C00F086BAFCF5EEE8E2DDD8D38D
:104AC000CFCBC7C3C0BDB9B6B4B1AEACA9A7A5A37F
:104AD000A19F9D9B9A9896959392908F8D8C8B8990
:104AE0008887868584838281A0FB006800FB01F2B1
:104AF00008EB4208B8EB872858EA060215D014F4F0
:104B0000400F16D118EA080F07D5341858EB0104E6
:104B1000C8D5401C51F10001C4E7341A78EB0104F8
:104B2000C0D4401E71F10001BCE701EB0C51BDE89F
:104B3000F08114F4000F0CD118EA080FB2D5361822
:104B400058EB0108401C51F10001361858EB0108E0
:104B5000F2E718EA080FA5D4361A78EB0108401ED0
:104B600071F10001361A78EB0108F2E75FEA4C0CAC
:104B70005FEA9C5C14D10AD350EA013C01D1BDE844
:104B8000F08109420CD4FFF7ABFEA44618E7BDE85C
:104B9000F04170B5FFF7EEFD6DDBFFBE17000004BE
:104BA000BDE8F0415FF80CC000F00CBA10B5DFF8BA
:104BB00094E211F5801C13F580141EEA4C0F18BF07
:104BC0001EEA440F00F0F38091EA030F48BF83F020
:104BD00000433FF53CA9841A71EB030C07D212196C
:104BE0008CF0004C43EB0C03001B61EB0C015242B8
:104BF0004FEA1154A4EB135C23EAAE0321EA0451FB
:104C0000C3EBAE0338BF5B1EDCF1200E48D322FAA3
:104C10000CFE10EB0E0043FA0CFE41EB0E01CCF142
:104C2000200E03FA0EFE10EB0E0051F10001CCF144
:104C3000200E4CD412FA0EF201EB0451BDE81040E4
:104C400008BF7047F1EE10CA1CF4400F14D14FF0AA
:104C5000120C92F0000F4CF0804C40F1B381401CDC
:104C600018BFB2F1004F40F0AD8100280CBF491CC5
:104C700020F0010000F0A6B911F0004F54BF1CF461
:104C8000000F1CF4800F4FF0120C4CF0804C40F0E1
:104C90009981401C40F0968141F1000100F092B9E9
:104CA00012EB020E43EB030218BF4FF0010E4EEA67
:104CB0004202ACF1200CDCF11E0E4BD943FA0CFE83
:104CC00010EB0E0051F1FF31CCF11E0EB2D50EF1FA
:104CD000010E12FA0EFE404141EB010101EB445C72
:104CE0005FEA5C5C06D95FEA0E0201EB0451BDE8A5
:104CF0001040A5E73BD24FEAD42C11F5001124F463
:104D000000641AD0B1FA81F20B3AA41AA41ED2F1AF
:104D10002003914030FA03F31943904001EBCC712A
:104D2000002C01EB0451BDE81040A8BF704701F111
:104D3000C0414FF0120C00F087B8B0FA80F310FABF
:104D400003F101D1BDE8104019D0E41A173C480521
:104D5000C90AE3E701EB0451BDE81040401E61F1D0
:104D600000015FF0FF326BE701EB045110BD491009
:104D700001EB0451BDE810404FEA30000BE0F1EECA
:104D800010CA4FF000010CF4400CBCF5000F08BF36
:104D90004FF0004170474FF0120C4A0008BF00422C
:104DA000EDD0B2F5001F28BF704700F0EAB84EF40E
:104DB000001E3EEA410418BF3EEA430434D091EAA3
:104DC000030F48BF83F000433FF511A9841A71EB2C
:104DD000030C07D212198CF0004C43EB0C03001BA0
:104DE00061EB0C0152EA033E4FEA1154A4EB135C51
:104DF00014D05FEA445E21EA045109D023F0004355
:104E00005242ACF1010CC3F1000338BF5B1EFBE65C
:104E1000BDE81040801A61EB0301BCE7BDE810401B
:104E200050EA410CB7D1AAE7BDE8104070B5FFF7D2
:104E3000A1FC00BF40DFF63E1100000483F00041FA
:104E4000104670470000C0FFF1EE103A13F0807F6B
:104E50001EBF01F000410020704713F4006F40F0C6
:104E6000AA80094248BF4CF4803C4FF4C0634FEA2B
:104E7000115203F1010321EA025122F400629A1A4D
:104E800048BF6FF0FE0241F48011352A3CD830D083
:104E9000152A1ED3203A0CD90028C2F1200321FA8A
:104EA00002F001FA03F218BF42F001024FF00001D4
:104EB00030E0C2F1000302F1200201FA03F120FA0E
:104EC00002F241EA020100FA03F208464FF0000143
:104ED00020E0C2F1200310B400FA03F401FA03F356
:104EE00020FA02F021FA02F1224610BC43EA000047
:104EF00010E050EA01324FF000004FF000014FF097
:104F0000004218BF521C05E04FF001024FF00001B3
:104F10004FF000001CF4803F2CF4803C18BF41F09F
:104F2000004112421ED0F1EE103A13F4400F20D18E
:104F3000520003D30CD0401C41F10001F1EE103AB5
:104F40004CF0804C43F00803E1EE103A00F03AB820
:104F50005FEAAC72EFD4F1D1401C41F1000120F0C6
:104F60000100EBE71CF0804F08BF70472CF0004CAD
:104F7000E4E7094254BF13F4000F13F4800FDDD1AE
:104F8000D9E7F1EE103A13F0807F1EBF01F0004127
:104F90000020704713F4006F08BF70472DE9F050F0
:104FA000FFF79EFC04F5C064A4F10104314301EB5A
:104FB0000451BDE8F0504CF0005C4CF0800C00F067
:104FC000AEBA00001CF0700F08BF0A460FB4F1EE35
:104FD000101A0CF0405030EA814318BF4CF0804C5E
:104FE0004FEA4C0310EA814F4FEAD36323EA1123BF
:104FF00018BF23F0100341EA030101F0E073E1EE72
:10500000101A4CEA030C0CF00F030A2B1DBF082BDF
:105010000CF070034CEAC30C4FF4003304BF33EAC6
:105020000C034CF4400C1CF0005F14D11CF0805FAA
:105030000BD11CF0804F31D11CF0006F12D111F454
:10504000807F0FBC62D000F06ABA11F4806F0FBC91
:105050002BD000F064BA11F4006F0FBC08BF70478A
:1050600000F05DBA11F4007F0FBC40F058821CF0D4
:10507000400F1EBF4FF0004040F0010070471CF091
:10508000100F14BF81EA030242400CF00F000A28FF
:1050900008BF4FF0FF324FF0000326E011F4805FAD
:1050A0000FBC08BF704700F03ABAF1EE103A2CF08E
:1050B000805C1CF0800F14BF01F0004200F0004241
:1050C00012420CBF12EA336F12EAF35F0DD31CF0E9
:1050D000100F1DBF30A003C81143314808BF104353
:1050E00013F4805F40F01B8270471CF0100F02F039
:1050F00000421DBF0FF2940003C81143254808BFAA
:10510000104313F4805F40F00A8270471CF0400F98
:1051100040F028801CF4404F1BD01CF4004F1CBFF3
:10512000194610460CF4807218BF8CEA520C1CF021
:10513000800F0CBF40F4800041F400218CEADC03B6
:1051400013F0100F1CBF2CF00F0C4CF0080C00F0EB
:105150008DB91CF0100F1ABF12A393E80300134877
:1051600000F084B91CF0800F14BF01F0004200F081
:1051700000421CF0100F1BBF0AA393E803000B486A
:10518000114308BF104300F071B900BF00000000D8
:105190000000F07F0000807FFFFFFFFFFFFFEF7F39
:1051A000FFFF7F7F000000000000F87F0000C07F4D
:1051B00043004FEAD30C4FEA3C0C43401FBF40076B
:1051C0000CF1605113F0FE4F70471CF0006F14D1CA
:1051D00033F0004004BF1946704783EA830383EA33
:1051E000430303F0070343EACC010CF0004303F14F
:1051F0005A5303F54013FFF780B90CF0004343EA1C
:10520000507010B540EACC0000F00FF8000000BA72
:10521000180000044FEA0001FFF765BB4FEAE00207
:105220004FEA407042F0E04170470EF1020E2EF05E
:10523000030E4FEA40025EF8084B12F1807218BF6D
:10524000B2F5000F22D3244207D44FEA410313F1F1
:10525000807318BFB3F5000F18D34FEA400C1CF54C
:10526000000F16D2244204D44FEA410C1CF5000F63
:105270000FD2002A10D14FEAD07C002B0CEB4C0C43
:105280000CF1020C08BF4CEBD17C07E04FF0090C8D
:1052900004E04FF0080C01E04FEAD17C0CEB4C032A
:1052A00024FA03F404F00704B4F1040C06D20EEB64
:1052B000840CBDE810404CF0010C6047DFE80CF0B6
:1052C0001F2013025EF804CC1B2B08D1002A88BFD4
:1052D000B2F5000F34BF4CF4804C4CF4004CBDE8E8
:1052E0001040FFF76FBE002A88BFB2F1807F28BF51
:1052F000084610BD4FF00040A0F5800010BD0846E4
:10530000420018BFD2F1807284BF5EF8042C22F0F4
:105310008062BDE8104000F28A8070474FF00000C4
:10532000E1EE100A7047FF2141EAD050C0057047F6
:10533000F1EE101A11F0807F1CBF00F000407047A2
:1053400011F4006F40F08E8000F0004343EAD05328
:1053500023F48073C3F1C10323F00041172941D81E
:10536000C3F1200310FA03F1C3F1200320F07F40C2
:1053700040F4000020FA03F003F0004340EA030089
:1053800019D00B46F1EE101A41F00801E1EE101AA7
:1053900011F4400F1CD1590009D318BF401C06D18D
:1053A0007FEAE27398BF401C38BF20F0010042F052
:1053B000804CFFF707BE12F0804F08BF7047F1EE38
:1053C000101A944641F00801E1EE101AFFF7FABDF9
:1053D00010F0004F14BF5FEAF1535FEA316338BF4A
:1053E000401CE4E7182903EB912318BF6FF000413C
:1053F0000131F1EE101A41F00801E1EE101A11F43A
:10540000400F18BF03F00040E2D168BF03F0004036
:1054100009D6400203F0004000F1010004BF12F081
:10542000004F20F001004FF0804CFFF7CBBDF1EEB4
:10543000101A11F0807F1CBF00F00040704711F47B
:10544000006F08BF704700F0004120F00040B0FA44
:1054500080F3A3F1080341F0C04100FA03F0A1EB8F
:10546000C351084442F0005C00F059B80CF00F033F
:10547000092B08BF082000F064800A2B32D0082BCB
:1054800018BF704708BF1CF0400F31D01CF4803F9C
:1054900023D11CF0200F11D11CF0100F0BBF0246BE
:1054A0000A466FF000406FF0004118BF4FF0FF3028
:1054B00012F0004F1CBFC043C94370471CF0100FCF
:1054C0000CBF02460A4612F0004F4FF0FF304FF07B
:1054D000FF311CBFC043C94370474FF000004FF07D
:1054E000000170471CF0400F18BF4FF0004070479C
:1054F0001CF0100F08D020F0704300F07F4242EA09
:10550000D3014FEA4370704700F0604021F07F42C2
:1055100042EA000201F07F4040EA727070472DE9D4
:1055200000502DE90050FAF7B5FFBDE80050BDE886
:1055300000500CF00F0393F0090F18BF7047AFF342
:1055400000801CF4801F24D01CF4E02F09D010F040
:10555000080F02D1D0F1020070476FEACC31490048
:1055600070474FF0604111EA407028BF40F0405052
:10557000F1EE103A23F0704343EA0003E1EE103AF3
:10558000EFF3008222F0704242EA000282F30088C8
:1055900070471CEA004018BF012070470050C34705
:1055A0000000AF430000AF4300007A4400401C46B7
:1055B0000000803F0000000000000000000000002C
:1055C0000000000000000000000000000000803F1C
:1055D00000000000000000000000000000000000CB
:1055E00000000000000000000000003F000000007C
:1055F0000000000000000000000020C10000C0C04A
:105600000000C0BF00002041000080C00000003F3B
:1056100000007041000000410000C03F000070C168
:105620000000E040000080BF0000C0C0000040C09B
:10563000000000BF0000C040000040C00000003F6C
:105640000000803F0000000000000000000000009B
:105650000000000000000000000000000000803F8B
:10566000000000000000000000000000000000003A
:1056700000000000000000000000003F00000000EB
:1056800000000000000000000AD723BF8FC275BFD2
:105690009A9919BF0AD7233F0AD723BFCDCC4C3ED6
:1056A000A69BC43E6F12033F8FC2753EA69BC4BE2D
:1056B0002653E53E0AD723BE82A87BBD52499DBD35
:1056C0006F1203BD82A87B3D52499DBD6F12033D01
:1056D0000000803F0000000000000000000000000B
:1056E0000000000000000000000000000000803FFB
:1056F00000000000000000000000000000000000AA
:1057000000000000000000000000003F000000005A
:105710000000000000000000000020BE0000C0BE2D
:105720000000C0BE0000203E000080BE0000003E21
:105730000000703D0000003E0000C03D000070BD54
:105740000000E03D000080BD0000C0BB000040BC88
:10575000000000BC0000C03B000040BC0000003C5A
:105760004FBB610567ACDD3F182D4454FB21E93F79
:105770009BF681D20B73EF3F182D4454FB21F93F68
:10578000E2652F227F2B7A3C075C143326A6813CEE
:10579000BDCBF07A8807703C075C143326A6913C99
:1057A000C4EB98999999C9BF711623FEC671BCBF05
:1057B0006D9A74AFF2B0B3BF9AFDDE522DDEADBF6D
:1057C0002F6C6A2C44B4A2BF0D5555555555D53F85
:1057D000FF8300922449C23F6E204CC5CD45B73FA0
:1057E000513DD0A0660DB13FEB0D76244B7BA93F18
:1057F00011DA22E33AAD903F4C5555555555A53F2A
:105800007751C1166CC156BF9015CB19A001FA3E55
:10581000AD529C804F7E92BEC4B1B4BD9EEE213E7F
:10582000D43888BEE9FAA8BD0000000000000000DE
:1058300000004054FB21F93F3163621A61B4D03D4E
:105840000000601A61B4D03D7370032E8A19A33B27
:105850000000002E8A19A33BC14920259A837B3979
:1058600000000000000000006E83F9A22915444EDC
:10587000D15727FCC0DD34F5999562DB4190433C5C
:10588000AB6351FE61C5BBDE3A6E24B7E0D24D4238
:10589000EA2E49061C92D1091CEB1DFE3EA729B138
:1058A000F53582E88444BB2E26709CE9417E5FB4C6
:1058B00039D69139F43953838B5F849C3B28F9BDE9
:1058C000FF97F81F0F9805DE8B112FEF1F6D0A5AF7
:1058D000CF7E366DB709CB27663F464F2DEA5F9ED8
:1058E000C7BA27757BF1E5EBF739073DEA92528A93
:1058F000B15FFB6B085D8D1FA6F810111111813F80
:10590000D561C119A0012ABF7DFEB157E31DC73E75
:10591000EB9C2B8AE6E55ABE7CD5CF5A3AD9E53DB9
:10592000405900080000002084000000C401000865
:10593000C459000884000020E4A20000E00100082F
:10594000333383400000803F0000803F0000803FF1
:105950000000000000000000000000000000000047
:105960000000000000000000000000000000000037
:105970000000000000000000000000000000000027
:105980000000000000000000000000000000000017
:105990000000000000000000000000000000000007
:1059A000007A030A00000000000000000102030466
:1059B00006070809000000000102030401020304B5
:0459C00006070809C5
:0400000508000229C4
:00000001FF
