:020000040800F2
:10000000C8A2002029020008590E0008510E00085D
:10001000550E00083B060008E91400080000000027
:10002000000000000000000000000000E1100008D7
:100030007907000800000000750F00081112000881
:100040004D0200084D0200084D0200084D02000854
:100050004D0200084D0200084D0200084D02000844
:100060004D0200084D0200084D0200084D02000834
:10007000410600084D0200084D0200084D0200082C
:100080004D0200084D0200084D0200084D02000814
:100090004D0200084D0200084D0200084D02000804
:1000A0004D0200084D0200084D0200084D020008F4
:1000B0004D0200084D0200084D0200084D020008E4
:1000C0004D0200084D0200084D0200084D020008D4
:1000D0004D0200084D0200084D0200084D020008C4
:1000E0004D0200084D0200084D0200084D020008B4
:1000F0004D0200084D0200084D0200084D020008A4
:100100004D0200084D0200084D0200084D02000893
:100110004D0200084D0200084D0200084D02000883
:100120004D0200084D0200084D0200084D02000873
:100130004D0200084D0200084D0200084D02000863
:100140004D0200084D0200084D0200084D02000853
:100150004D0200084D0200084D0200084D02000843
:100160004D0200084D0200084D0200084D02000833
:100170004D0200084D0200084D0200084D02000823
:100180004D0200084D02000800F002F800F03CF8B3
:100190000AA090E8000C82448344AAF10107DA45E2
:1001A00001D100F031F8AFF2090EBAE80F0013F0F8
:1001B000010F18BFFB1A43F001031847A4690000A0
:1001C000C4690000103A24BF78C878C1FAD8520731
:1001D00024BF30C830C144BF04680C6070470000C1
:1001E0000023002400250026103A28BF78C1FBD840
:1001F000520728BF30C148BF0B6070471FB506F0DB
:100200001DF91FBD10B510BD00F060F91146FFF7D4
:10021000F5FF02F0C9FE00F07EF903B4FFF7F2FF2C
:1002200003BC00F0E3F900000C48016841F47001E0
:1002300001600B4880470B480047FEE7FEE7FEE7FA
:10024000FEE7FEE7FEE7FEE7FEE7FEE7FEE700006B
:1002500005480649064A074B7047000088ED00E054
:100260002D12000889010008C8020020C8A2002041
:10027000C8220020C82200200180428043607047CD
:100280002DE9F04F82B0466853680193058847888E
:100290004B88002000900888874201BFB2F800C058
:1002A0006545528893421EBF6FF0020002B0BDE860
:1002B000F08F9FED412A4FEA970EC7F3400B00BF26
:1002C000DDE9000202EB800A4A6898464FF0000917
:1002D000B0EE420AB4465FEA0E0025D092ED001A55
:1002E000DCED001A02EB8302DCED010A01EE810A6B
:1002F00092ED001A02EB8302401ED2ED001A02EBCF
:10030000830200EE810A9CED021ADCED030A000470
:100310000CF1100C000C01EE210A92ED001A02EB18
:10032000830200EE810AD9D117F0030026D0ACF188
:100330000404A2EB830210F0010F08D002EB830249
:10034000D4ED010A92ED001A241D00EE810A5FEA45
:100350000B0013D002EB830CD4ED010A9CED001AC4
:1003600002EBC302401E00EE810AD4ED020A92EDB8
:10037000001A04F1080400EE810AEBD109F1010032
:10038000AAEC010A1FFA80F9486800EB8902A8F17B
:1003900001001FFA80F8B8F1000F99D1009806EB20
:1003A0008706184480B20090681E05042D0C87D182
:1003B00002B00020BDE8F08F0000000010B5203A28
:1003C000C0F00B80B1E81850203AA0E81850B1E80E
:1003D0001850A0E81850BFF4F5AF5FEA027C24BFC4
:1003E000B1E81850A0E8185044BF18C918C0BDE8BB
:1003F00010405FEA827C24BF51F8043B40F8043B84
:1004000008BF7047D20728BF31F8023B48BF11F838
:10041000012B28BF20F8023B48BF00F8012B704792
:100420004FF0000200B5134694469646203922BF8D
:10043000A0E80C50A0E80C50B1F12001BFF4F7AFD8
:10044000090728BFA0E80C5048BF0CC05DF804EBBA
:10045000890028BF40F8042B08BF704748BF20F828
:10046000022B11F0804F18BF00F8012B7047704726
:100470007047704710B500F009F8006810BD10B55E
:10048000044600F003F8046010BD00000048704707
:10049000680200201FB584B000200A9C06AB04AAA5
:1004A00002A90094AFF3008018B1DDE9020108B0A1
:1004B00010BD0348204000F037F800200146F6E761
:1004C0000000207C00487047680200207546FFF756
:1004D000F9FFAE4605006946534620F00700854601
:1004E00018B020B5FFF7B4FEBDE820404FF000067D
:1004F0004FF000074FF000084FF0000B21F007010C
:10050000AC46ACE8C009ACE8C009ACE8C009ACE84E
:10051000C0098D46704710B50446AFF300802046F1
:10052000BDE81040FFF779BE10B500F009F8BDE84E
:100530001040AFF30080002801D000F057B870479A
:1005400010B5022803D0410103D50DA112E000200F
:1005500010BD010101D50FA10CE0C10001D511A111
:1005600008E0810001D512A104E0400001D513A1EB
:1005700000E0002115A000F03FF8012010BD0000B0
:10058000496E76616C6964204F7065726174696F41
:100590006E000000446976696465204279205A65DE
:1005A000726F00004F766572666C6F770000000016
:1005B000556E646572666C6F77000000496E6578F1
:1005C00061637420526573756C740000534947462B
:1005D00050453A2041726974686D6574696320659D
:1005E0007863657074696F6E3A20000001491820C5
:1005F000ABBEFEE72600020070B505460C460A2099
:1006000000E06D1C00F011F835B128780028F8D111
:1006100002E0641C00F009F814B120780028F8D139
:10062000BDE870400A20AFF3008008B569468DF838
:1006300000000320ABBE08BD704700BFFEE700000E
:1006400010B50649064800F029F801200549087050
:100650000121034800F03CF810BD000000880010A4
:1006600028600240200000200246094B9A4201D235
:10067000084801E00648103801F000531BB1064B52
:100680000B40C36002E0044B0B40836070470000E6
:1006900010640240006002407D0F7D0F0246094B4E
:1006A0009A4201D2084801E00648103801F0005390
:1006B0001BB1064B0B40C36002E0044B0B40836050
:1006C0007047000010640240006002407D0F7D0F03
:1006D00021B1026842F00102026003E0026822F0E8
:1006E00001020260704710B501F080034BB122B1E6
:1006F000436943F08003436103E0436923F08003CF
:10070000436180290BD02AB1036801F01E04234302
:10071000036004E0036801F01E04A343036010BDFE
:1007200010B500220268134B1A40CC680B682343B3
:100730004C6923438C692343CC6923430C6A2343CC
:100740004C6A23438C6A23434C6B23438C6B2343B7
:100750001A430260426922F00702D1E90B342343B5
:100760001A4342610B6943604B6883608B68C360C6
:1007700010BD00003F801CF07047000000B585B040
:100780000121022000F0F8FB0121880300F024FC85
:1007900000208DF810008DF8120002208DF8130053
:1007A000C002039003A9134800F0DAFA0C210120DB
:1007B00000F098FC4FF48050009000208DF8040069
:1007C00010208DF8050001208DF80600684600F025
:1007D00013F828208DF8080000208DF809008DF806
:1007E0000A0001208DF80B0002A800F037FB05B0CD
:1007F00000BD000000040240002123498279002A44
:100800003AD00A46126803689A430B461A600A1DDA
:10081000126803689A430B1D1A60027911440A6832
:1008200003681A430A60184A0832126803689A4338
:10083000154B08331A601A1D126803689A43124B4D
:100840000C331A604279102A0ED11A1F12680368FD
:100850001A430D4B08331A601A1D126803681A43B5
:10086000094B0C331A600DE00749427911440A68BC
:1008700003681A430A6005E0027911440A680368B4
:100880009A430A6070470000003C0140024901EBB6
:10089000800191ED000A70472801002010B500206A
:1008A0000EE09FED0F0A0F4901EB800181ED000A78
:1008B00000210D4A42F820100C4A42F82010401C3A
:1008C0000428EEDB4FF40061094800F0BFFA052070
:1008D00001F0C2FD4FF40061054800F0B5FA10BD0B
:1008E00000000000280100204801002058010020DD
:1008F000000C024010B54FF40061064800F0A6FA63
:10090000052001F0A9FD4FF40061024800F09CFAB7
:1009100010BD0000000C024010B5002478E0204615
:1009200000F012FA3C4941F82400084650F824002F
:100930003A4951F82410401A00EE100AB8EEC00AE5
:10094000374800EB840080ED000A354800EB840056
:1009500090ED000ADFED330AB4EEE00AF1EE10FA92
:100960000EDD2F4800EB840090ED000ADFED2E0A2B
:1009700030EE600A2A4800EB840080ED000A19E09E
:10098000274800EB840090ED000ADFED280AB4EE62
:10099000E00AF1EE10FA0DD2214800EB840090ED50
:1009A000000ADFED210A30EE200A1D4800EB84002A
:1009B00080ED000A184850F82400184941F8240036
:1009C0001B4800EB840090ED000AF1EE000A20EED7
:1009D000200A184800EB8400D0ED000A20EE200A1F
:1009E0000F4800EB8400D0ED000A9FED131A60EE73
:1009F000810A80EE801A114800EB840090ED000A15
:100A000031EE000A0D4800EB840080ED000A641C02
:100A1000042C84DB10BD0000480100205801002098
:100A2000380100200000004700008047000000C798
:100A3000BC660008000000200000B443280100202C
:100A400010B592B003AC0121084600F0A5FA0121CF
:100A5000022000F091FA0121082000F08DFA012116
:100A6000102000F089FA0C2200216C4800F0C0F937
:100A70000C220121694800F0BBF90C2204216748CF
:100A800000F0B6F90C220521644800F0B1F90C22FF
:100A90000721624800F0ACF90C2208215F4800F001
:100AA000A7F90C2209215D4800F0A2F90C220A21C5
:100AB0005A4800F09DF90C220E21584800F098F990
:100AC0000C220F21554800F093F90C2207215448BD
:100AD00000F08EF90C220821514800F089F90C220F
:100AE00009214F4800F084F90C220A214C4800F0FB
:100AF0007FF90C220B214A4800F07AF90C221146AA
:100B0000474800F075F90C220D21454800F070F9B6
:100B10000C220E21424800F06BF90C220F214048B4
:100B200000F066F90C2207213E4800F061F94CF212
:100B3000B370019002208DF8080003208DF80900A1
:100B400000208DF80A008DF80B0001A9334800F051
:100B500007F94FF68070019001A9314800F000F9C3
:100B60008020019001A92F4800F0FAF800202060B1
:100B7000022060600820A0601020E060002020615A
:100B80006061A061E06120624FF4805060620020EB
:100B9000A062E06220630F20616B0860616B4860B7
:100BA000616B88600020616BC860616B0861616B7C
:100BB00048614FF00050616B886103A800F050F865
:100BC00019484FF0204148600121002000F02EF824
:100BD0004FF4C050019001208DF8080003208DF8DB
:100BE000090000208DF80A008DF80B0001A90B48C0
:100BF00000F0B6F84FF40061084800F025F942F221
:100C00000C00019000208DF808008DF80B0001A960
:100C1000024800F0A5F812B010BD0000000C024020
:100C200000100240000402400303012051B1820081
:100C3000A2F1C042126842F001038200A2F1C04258
:100C4000136009E08200A2F1C0421268034B1A400F
:100C50008300A3F1C0431A6070470000FEFF0F003D
:100C6000D0E901121143C26811430269114342697C
:100C7000114382691143C2691143026A1143426AF6
:100C80001143826A1143C26A1143026B1143026825
:100C90009200A2F1C0421160816808290BD101685D
:100CA0008900A1F1C041096841F040020168890052
:100CB000A1F1C0410A60416B0968426B526841EA88
:100CC0000211426B926841EA0221426B928941EA29
:100CD0000241426B128A41EA0251426B127D41EAA3
:100CE0000261426B926911430268521C9200A2F1A8
:100CF000C0421160C16AB1F5804F1BD1816B096898
:100D0000826B526841EA0211826B926841EA0221C9
:100D1000826B128A41EA0251826B127D41EA0261C2
:100D2000826B9269114302689200A2F1C042C2F83C
:100D3000041107E06FF0704201688900A1F1C04121
:100D4000C1F804217047000001460020024B03EB6C
:100D50004102108870470000200000600180704749
:100D6000F0B50A4600210023002400BF3DE0012524
:100D700005FA01F3156805EA03049C4234D10568BD
:100D80004F000326BE40B543056015794E00B540BF
:100D90000668354305601579012D02D01579022DBD
:100DA00016D185684F000326BE40B543856055794E
:100DB0004E00B540866835438560456801268E4003
:100DC000B5434560456896798E40B6B23543456077
:100DD000C5684F000326BE40B543C560D5794E00B7
:100DE000B540C6683543C560491C1029BFD3F0BD66
:100DF000F0B5002300244D07ED0E02FA05F3CE10E6
:100E000000F1200555F826504E07F70E0F26BE407C
:100E1000B543CF1000F1200646F82750CE1000F160
:100E2000200555F8265045EA0304CE1000F12005B0
:100E300045F82640F0BD0246002013690B400BB177
:100E4000012000E000207047418370470183704714
:100E500000BFFEE700BFFEE77047000070B500214D
:100E600000230F22C4781CB3174C246804F4E064F8
:100E7000C4F5E064C4F30721C1F10404E3B20A41FC
:100E800044789C40E1B28478144021430C07210E41
:100E90000E4C05786155047804F01F050124AC4020
:100EA00005786D11AD0005F1E025C5F8004109E0B8
:100EB000047804F01F050124AC40054D0678761136
:100EC00045F8264070BD00000CED00E000E400E0B5
:100ED00080E100E000B58BB00121084600F04CF83D
:100EE000012202212248FFF783FF042009900020FD
:100EF0008DF82A008DF82B0002208DF828000320A1
:100F00008DF8290009A91A48FFF72AFF0121084690
:100F100000F052F8C720ADF818000020ADF81A0014
:100F200042F2CF0007900020ADF820008DF822009B
:100F300006A94FF0804000F015FA0121880700F063
:100F4000A9F97020ADF804000120ADF806000220D8
:100F5000ADF8100040F27520039001A9800700F061
:100F6000A5F90821C80600F0F1F90BB000BD00009A
:100F7000000002407047000029B1064A126802438F
:100F8000044B1A6004E0034A12688243014B1A6062
:100F9000704700003038024029B1064A1268024307
:100FA000044B1A6004E0034A12688243014B1A6042
:100FB000704700003838024029B1064A12680243DF
:100FC000044B1A6004E0034A12688243014B1A6022
:100FD000704700004038024029B1064A12680243B7
:100FE000044B1A6004E0034A12688243014B1A6002
:100FF0007047000044380240F0B500210022002470
:10100000022500260223324F3F6807F00C0121B170
:10101000042905D0082937D105E02E4F076036E0B6
:101020002D4F076033E02A4F3F1F3F68C7F38056BC
:10103000274F3F1F3F6807F03F036EB1264FB7FBB6
:10104000F3F7DFF88CC0ACF1040CDCF800C0CCF393
:10105000881C07FB0CF40CE01E4FB7FBF3F7DFF81E
:1010600070C0ACF1040CDCF800C0CCF3881C07FBAA
:101070000CF4174F3F1F3F68C7F301477F1C7D00EB
:10108000B4FBF5F7076002E0124F076000BF00BF36
:101090000F4F3F6807F0F0010909104F7A5C0768AD
:1010A000D74047600A4F3F6807F4E051890A0B4F69
:1010B0007A5C4768D7408760054F3F6807F4604116
:1010C000490B064F7A5C4768D740C760F0BD000007
:1010D000083802400024F40000127A007800002052
:1010E0007047000030B500228B071C0F0F2303FA56
:1010F00004F20B4B8C1053F824309343084C8D10A2
:1011000044F8253023468C1053F824308C07240FE4
:1011100000FA04F42343024C8D1044F8253030BD0E
:10112000083801400CB50020019000903448006858
:1011300040F480303249086000BF3148006800F454
:10114000003000900198401C0190009818B9019857
:10115000B0F5A04FF1D12A48006800F4003010B17A
:101160000120009001E0002000900098012846D165
:1011700023484030006840F08050214940310860E9
:101180002048006840F440401E4908601C48083070
:1011900000681B49083108600846006840F40040B8
:1011A00008600846006840F4A05008601648091F0F
:1011B0000860081F006840F08070091F086000BFC9
:1011C0000F48006800F000700028F9D040F2057068
:1011D0000E4908600A480830006820F003000849FA
:1011E000083108600846006840F00200086000BF4F
:1011F00003480830006800F00C000828F8D10CBD46
:10120000003802400070004008544007003C024093
:1012100001200449086004480068401C0249086035
:10122000704700001C0000201800002010B5154871
:10123000006840F47000134908601348006840F0EB
:1012400001001149086000200F49083108600E486C
:1012500000680E4908400C4908600D48091D0860E7
:10126000081F006820F48020091F0860002006493C
:101270000C310860FFF756FF4FF0006001498039DC
:10128000086010BD88ED00E000380240FFFFF6FE68
:101290001030002421B1028842F00102028004E0F3
:1012A00002884FF6FE731A400280704770B5002422
:1012B00000220023058C4FF6FF6635400584028C22
:1012C0008388848B4FF68F752C404FF6FC752C402D
:1012D0000D882C434FF6FF552A408D894FF6FF7637
:1012E00006EA05252A434D8806EA05252A43154DB9
:1012F000A84202D0144DA8421DD14FF2FF752A40DA
:10130000CD894FF6FF7606EA05252A434FF6FF35CD
:101310002A408D8806EA05252A434EF6FF752B40A4
:101320004DF6FF752B400D8A06EA05152B434D8AB5
:1013300006EA05152B43838084838D68C563028488
:1013400070BD000000000140000401400A46002179
:10135000818B4FF6F7731940114381837047C16346
:101360007047000000220288184B98420ED0184B9C
:1013700098420BD0B0F1804F08D0164B984205D060
:10138000154B984202D0154B984204D14FF68F73FB
:101390001A404B881A43124B984207D0114B98427F
:1013A00004D04FF6FF431A400B891A4302804B6862
:1013B000C3620B880385054B984202D0044B9842C8
:1013C00001D18B7A0386012383827047000001409C
:1013D000000401400004004000080040000C0040F0
:1013E000001000400014004021B1828942F40052F4
:1013F000828104E082894DF6FF731A408281704732
:101400001AB1838A0B43838202E0838A8B438382EF
:10141000704700002DE9FF4705460E460024A1460F
:1014200000BFA046B08900B100BF2C8A24F440540C
:10143000F08804432C82AC8941F20C608443B0886C
:1014400031890843718908430443AC81AC8A24F490
:101450004074B0890443AC826846FFF7CDFD204854
:10146000854202D01F48854202D1DDF80C9001E090
:10147000DDF80890A88900F4004040B109EBC900EC
:1014800000EB091031684900B0FBF1F707E009EB08
:10149000C90000EB091031688900B0FBF1F7642046
:1014A000B7FBF0F004012009642101FB1078A88942
:1014B00000F4004040B1322000EBC800B0FBF1F076
:1014C00000F00700044308E0322000EB081064211C
:1014D000B0FBF1F000F00F0004432C81BDE8FF8762
:1014E000001001400014014000BFFEE703B4019862
:1014F0004100009850EAC12018BF04204A0D18BFCF
:1015000040F0010040F2FF72B2EB515F08BF40F0C3
:101510000200012808BF052002B07047000000004B
:1015200070B59B482DED020B2DED068B079D25F028
:101530000044A04218DC9748844202DC0AD1069895
:1015400040B19DED060BBDEC068B02B0BDE87040CE
:1015500000F046BF002DCCBF9FED8F0B9FED900B91
:10156000BDEC068B02B070BD8F48A04215DD8F48E0
:10157000A042D8BF4FF0FF3458DD9DED060B51EC73
:10158000100BFFF7B3FF042808BF00F04DFF9DEDDF
:10159000060BBDEC068B02B070BD9DED060B51EC49
:1015A000100B00F07DFFCDE9060181489FED828B95
:1015B000A0423CDD8248A0421FDD00249FED82ABAB
:1015C0009DED060B53EC1A2B51EC100B03F080FC35
:1015D0009DED060B41EC190B53EC1A2B51EC100B43
:1015E00004F078F853EC182B04F070FB53EC192B33
:1015F00003F0A0FDCDE9060149E09DED060B0124B5
:1016000053EC182B51EC100B03F062FC9DED060B14
:1016100041EC190B53EC182B51EC100B04F056FB5A
:1016200053EC192B03F086FDCDE906012FE0684845
:10163000A0421FDD02249FED689B9DED060B53EC3D
:10164000192B51EC100B04F045F853EC182B03F058
:101650003FFC9DED060B41EC180B53EC192B51ECA4
:10166000100B04F033FB53EC182B03F063FDCDE9B2
:1016700006010CE09DED060B032453EC102B9FEDAF
:10168000580B51EC100B03F055FDCDE906019DED13
:10169000060B53EC102B51EC100B04F01BF841EC33
:1016A000180B53EC182B04F015F841EC190B4E48AD
:1016B0000621B0EE490AF0EE690A784400F07CFD9C
:1016C00053EC182B51EC100B04F004F841EC180B00
:1016D0004648B0EE490AF0EE690A0521784400F068
:1016E0006BFD53EC192B51EC100B03F0F3FF41ECA5
:1016F000100B51EC180B53EC102B002C0EDA03F0EE
:10170000E7FB9DED061B53EC112B03F0E3FF9DED72
:10171000061B53EC112B04F0ADF935E003F0D8FBB8
:101720009DED061B53EC112B03F0D4FF41EC100B85
:101730002F48784400EBC40090ED001B51EC100BD7
:1017400053EC112B04F0C2FA9DED061B53EC112B48
:1017500004F0BCFA41EC100B2648784400EBC400BE
:1017600090ED001B51EC100B53EC112B04F082F99F
:1017700041EC100B002DA2BFBDEC068B02B070BD7A
:1017800051EC100B03F036FA41EC100B01E70000AE
:10179000000010440000F07F182D4454FB21F93F55
:1017A000182D4454FB21F9BF0000DC3F0000203E0F
:1017B0000000F33F00000000000000000000F03FC8
:1017C0000000E63F000000000000000000000040B4
:1017D0000080034000000000000000000000F83F0F
:1017E000000000000000F0BF4A530000005300005A
:1017F0008A5200004252000070B56B4E2DED040B72
:101800002DED028B82B0DDF81CC0DDE905235C42C2
:101810002CF000411C4341EAD474049D22F00040A6
:10182000B44205D86C422C4340EAD474B4420BD97C
:101830009DED061B9DED040B02B0BDEC028B04B0C8
:10184000BDE8704000F0D6BDACF14054A4F17F6417
:101850001C430BD0022404EAAC7444EAD27405435E
:101860009FED538B9FED542B07D015E09DED040B9E
:1018700051EC100B00F0E8FD42E0002C11BF012CF0
:101880009DED040B02B0BDEC028B04BF04B070BD33
:10189000022C38D0032C3BD00B439FED491B9FED0E
:1018A0004A0B0AD0B14218D1B04209D121F080418F
:1018B00020F08040079105900FE0002A15DA10E033
:1018C000434B7B44002C08BF93ED000B0DD0012C43
:1018D00010D0022C17D0032C1AD0B0421DD1002AF0
:1018E00003DAB0EE410AF0EE610A02B0BDEC028B01
:1018F00004B070BD93ED000B51EC100B03F07AF9BE
:1019000041EC100BF1E7B0EE480AF0EE680AECE7A4
:10191000B0EE420AF0EE620AE7E7401A00153C28F2
:10192000C8BF8DED000B19DCBCF1000FBEBF10F17C
:101930003C0F9FED290B8DED000B0FDB9DED060B92
:1019400053EC102B9DED040B51EC100B03F0F2FB4C
:1019500000F0A6FD00F078FDCDE90001002C08BFE5
:101960009DED000BC1D0012C10D0022C9FED1C0B63
:1019700053EC102B9DED000B51EC100B0DD004F02F
:10198000A5F953EC182B04F0A1F9B9E7019880F000
:10199000004001909DED000BA7E704F097F953EC90
:1019A000182B04F067F8ABE70000F07F00000000A0
:1019B000182D4454FB210940182D4454FB2109C023
:1019C000182D4454FB21F9BF182D4454FB21F93F35
:1019D000A251000000000000000000000000000014
:1019E000075C143326A6A13C10B52F499FED2C1B94
:1019F0002DED020B84B0059820F000408842D8BF3E
:101A00009DED040B2DDD2949884209D1049840B988
:101A10004FF00100FEF733FD00F0F6FC06B010BDFC
:101A200005DB9DED040B00F0DBFC06B010BD684645
:101A30009DED040B00F0ECF810F0030004BF9DEDE9
:101A4000021B9DED000B0CD001280ED09DED021B5A
:101A50009DED000B022817D0012000F029FC06B0F4
:101A600010BD00F0F1FA06B010BD9DED021B9DED1A
:101A7000000B012000F01CFC51EC100B03F0BAF835
:101A800006B041EC100B10BD00F0DEFA51EC100B6B
:101A900003F0B0F806B041EC100B10BD00000000E0
:101AA0000000000000000000FB21E93F0000F07F83
:101AB0002DED020B019820F0004001909DED000BF0
:101AC00002B070470000000010B52F499FED2C1B9D
:101AD0002DED020B84B0059820F000408842DCBF59
:101AE00000209DED040B32DD2849884209D104987D
:101AF00040B94FF00100FEF7C2FC00F085FC06B0D3
:101B000010BD05DB9DED040B00F06AFC06B010BDB6
:101B100068469DED040B00F07BF810F0030011D037
:101B2000012818D09DED021B9DED000B02281AD054
:101B300000F08AFA51EC100B03F05CF806B041ECAF
:101B4000100B10BD9DED021B9DED000B012000F060
:101B5000AFFB06B010BD9DED021B9DED000B00F02C
:101B600073FA06B010BD012000F0A2FB51EC100B7F
:101B700003F040F806B041EC100B10BD000000006F
:101B80000000000000000000FB21E93F0000F07FA2
:101B900000B52DED048BB0EE409AF0EE609A83B064
:101BA00051EC190B03F08EFF41EC180B18EE100AE4
:101BB00018EE901A8DED008B002818BF0120084305
:101BC00020F00040C0F17F6000F1E040C00F14D071
:101BD00019EE101A19EE900A8DED009B002918BF1E
:101BE0000121084320F00040C0F17F6000F1E04097
:101BF000C00F04BF0120FEF742FCB0EE480A03B05C
:101C0000F0EE680ABDEC048B00BD0000000000008F
:101C10002DE9F14F04462DED020B2DED088B8AB016
:101C20009FEDE70B80ED020B139EE74826F0004581
:101C300085420ADC9DED120B002084ED000B0AB0FA
:101C4000BDEC088B03B0BDE8F08FE0489FEDE0AB42
:101C50009FEDE1BBA84247DDE14F9FEDE39B9FED88
:101C6000E48B9DED120B53EC1A2B51EC100B002E54
:101C70001CDD04F02BF841EC100BBD4208D053ECF6
:101C80001B2B51EC100B04F021F8C4E900010BE010
:101C900053EC192B51EC100B04F018F853EC182BE3
:101CA00004F014F8C4E900010120C8E703F010F9BA
:101CB00041EC100BBD4208D053EC1B2B51EC100B28
:101CC00003F006F9C4E900010BE053EC192B51ECC9
:101CD000100B03F0FDF853EC182B03F0F9F8C4E9EE
:101CE00000014FF0FF30AAE7C348A84279DB9DED21
:101CF000120B51EC100B00F0D3FB41EC180B9FEDD5
:101D0000C00B53EC102B03F0E5FC9FEDBF1B53EC15
:101D1000112B03F0DDF803F005FC074603F066FC29
:101D200041EC190B53EC1A2B03F0D4FC53EC182B99
:101D300003F0A0FE41EC180B53EC1B2B51EC190BDC
:101D400003F0C8FCDFF8C8A241EC100B4FEA1558AD
:101D50000125FA4453EC102B51EC180B03F0B6FF9D
:101D6000032DC4E900013DD0C1F30A5005EB451134
:101D7000A8EB00001139814234DA0AEB051BB0EE02
:101D800048AA9BED000BF0EE68AA53EC102B51EC27
:101D9000190B03F09FFC41EC1B0B51EC1A0B53EC9D
:101DA0001B2B03F093FF41EC180B51EC1A0B53EC77
:101DB000182B03F08BFF53EC1B2B03F087FF9BEDDD
:101DC000020B41EC1A0B53EC102B51EC190B03F0E6
:101DD00081FC53EC1A2B03F079FF41EC100B6D1CC6
:101DE000B8E70EE0002EA8BF3846BFF628AF94ED46
:101DF000000B51EC100B02F0FDFEC4E9000178422B
:101E00001DE7C6F3130040F4801EC6F30A50A0F28B
:101E1000F530471100F01F05C5F12000DDF848B08E
:101E200008900020069007900520EC467949002D87
:101E300007EB0002794408BF51F8221009D051F88D
:101E4000223001EB8201AB404A68089922FA01F185
:101E50001943A1FB0E26A1FB0B131A449A4234BF6F
:101E60000123002303EB06080CEB8003D3E901A652
:101E70000E448E4234BF0121002192448A4411B1A4
:101E8000924502D903E0924501D2012100E00021F0
:101E9000C3E901A641444CF82010011EA0F1010045
:101EA000C4DC029800F10050850F0298DDE9036759
:101EB0008000DDF8148003F099FB41EC1A0B3046EA
:101EC00003F0B8FB9FED541B53EC112B03F002FC05
:101ED00041EC1B0B384603F0ADFB9FED511B53EC5F
:101EE000112B03F0F7FB41EC180B404603F0A2FB6B
:101EF0009FED4D1B53EC112B03F0ECFB41EC190B48
:101F000051EC180B53EC192B02F0E2FF53EC1B2B96
:101F100002F0DEFF53EC1A2B02F0DAFFCDE90801E4
:101F2000002008909DED080B53EC1A2B51EC100B80
:101F300003F0CCFE53EC1B2B03F0C8FE53EC182B24
:101F400003F0C4FE53EC192B03F094FD9FED381BF6
:101F500053EC112B03F0BEFB9FED370B41EC180B3C
:101F600053EC102B9DED080B51EC100B03F0B2FB62
:101F700053EC182B02F0ACFF9FED310B41EC180B2A
:101F800053EC102B9DED080B51EC100B03F0A2FB52
:101F900053EC182B02F09CFF41EC100B139810F03F
:101FA000004F06D06D4251EC100B02F023FE41ECC5
:101FB000100B284684ED000B41E6000000000000F5
:101FC0000000000000000000FB21E93F7CD9024036
:101FD00000004054FB21F93F3163621A61B4D03DE7
:101FE000FB21F93F000000000000601A61B4D03D01
:101FF0007370032E8A19A33BFB21394100000000B6
:1020000083C8C96D305FE43F000000000000E03F7E
:102010001A4D0000684C0000000000000000103E57
:10202000000000000000103C000000000000103A1A
:10203000182D4454FB21F93D3326A611460B113CC3
:1020400000000054FB21F93D10B52DED040B2DEDE2
:10205000088B82B0B0EE419AF0EE619A0B9820F0B6
:1020600000449FED4BABB4F1795F11DA9DED0A0BA3
:1020700051EC100B03F056FA002801BFB0EE4A0AEB
:10208000F0EE6A0A02B0BDEC088B04BF04B010BDCC
:102090009DED0A0B53EC102B51EC100B03F01AFBC7
:1020A00041EC180B3C480621B0EE480AF0EE680AF5
:1020B000784400F081F853EC182B51EC100B03F02E
:1020C00009FB9DED0A0B41EC1B0B53EC192B51EC5A
:1020D000100B03F0FFFA41EC190B53EC1B2B51ECE6
:1020E000180B03F0F7FA53EC192B03F0EFFD9FEDFB
:1020F0002C0B41EC190B53EC102B51EC180B03F08B
:10210000E9FA41EC100B2848844210DA53EC192B01
:1021100051EC100B03F0DAFD53EC1A2B03F0AAFC80
:1021200041EC100B02B0BDEC088B04B010BD1F4891
:10213000A042BCBF9FED1E1B8DED001B06DBA4F56E
:1021400000100190002000909DED001B51EC100B41
:1021500053EC112B03F0BAFD9DED000B41EC180B75
:1021600053EC102B51EC1A0B03F0B0FD41EC1A0BA1
:1021700053EC192B51EC180B03F0A8FD53EC1A2B60
:1021800003F078FC41EC100BCCE7000000000000ED
:10219000000000000000F03F844900000000000043
:1021A000000000000000E03F3333D33F0000E93F70
:1021B000000000000000D23F70B504462DED028BF8
:1021C0004D1E00EBC500B0EE408AF0EE608A90ED47
:1021D000000B35F0060017D053EC182B51EC100B08
:1021E00003F078FA41EC100B6D1E04EBC50090ED86
:1021F000001B51EC100B53EC112B02F069FE41EC6B
:10220000100B35F00600E7D1022D36D0042D1CD07E
:10221000062D1CBFBDEC028B70BD53EC182B51EC8E
:10222000100B03F057FA94ED0A1B53EC112B02F03C
:102230004FFE53EC182B03F04DFA94ED081B53ECB2
:10224000112B02F045FE41EC100B53EC182B51EC16
:10225000100B03F03FFA94ED061B53EC112B02F028
:1022600037FE53EC182B03F035FA94ED040B53ECC6
:10227000102B02F02DFE41EC100B53EC182B51ECFF
:10228000100B03F027FA94ED021B53EC112B02F014
:102290001FFE53EC182B03F01DFA94ED001B53ECBA
:1022A000112B02F015FEBDEC028B41EC100B70BD42
:1022B00031B504462DED040B2DED0A8BB0EE41BA7D
:1022C000F0EE61BA0B989DED0A0B20F00040B0F1E2
:1022D000795F0DDA51EC100BFFF708F9042808BFFD
:1022E00000F0A2F89DED0A0BBDEC0A8B05B030BDE5
:1022F00053EC102B51EC100B03F0ECF941EC180BE4
:102300009DED0A0B53EC182B51EC100B03F0E2F986
:1023100041EC190B2C48B0EE480AF0EE680A052192
:102320007844FFF749FF9FED2ACBB0EE40AAF0EECC
:1023300060AA9CB353EC1C2B51EC190B03F0CAF9A7
:1023400041EC1C0B53EC1A2B51EC190B03F0C2F9A6
:102350009FED210B41EC190B53EC102B51EC1B0B97
:1023600003F0B8F953EC192B03F0B0FC53EC182B25
:1023700003F0B0F953EC1B2B03F0A8FC53EC1C2B1F
:1023800003F0A4FC9DED0A1B53EC112B03F072FB30
:10239000BDEC0A8B05B041EC100B30BDFFE753ECF0
:1023A0001A2B51EC180B03F095F953EC1C2B02F08F
:1023B0008FFD53EC192B03F08DF99DED0A1B53ECA7
:1023C000112B02F085FDE3E7144800000000000037
:1023D000495555555555C5BF000000000000E03F68
:1023E00010B553EC102B51EC100B02F071FD41ECC9
:1023F000100B10BD10B553EC112B51EC100B02F06B
:1024000067FD41EC100B10BD9FED050B10B553ECB3
:10241000102B51EC100B02F08DFE41EC100B10BD97
:1024200000000000000000009FED050B10B553EC0C
:10243000102B51EC100B03F04DF941EC100B10BDBB
:10244000000000000000001010B541EC100BFFF779
:1024500067F851EC100B10BD10B504460121102097
:10246000FEF7AAFD42F2CF000C490885601EC86243
:102470000020486201208882002008820120088014
:1024800000BF0648008A0028FBD0002003490880CE
:1024900000211020FEF790FD10BD0000001000404C
:1024A00082B0CDE9000121F0004001909DED000BCC
:1024B00002B051EC100B704770B52DED088BB0B029
:1024C000F0EE408AB0EE609A0446B0EE418A1821E0
:1024D00006A8FDF7A5FFCDED068A8DED099A38EE29
:1024E000C90A10EE101A084603F0F2FE41EC1B0B6D
:1024F000B0EE4B0AF0EE6B0AFFF7DAFAB0EE40AA44
:10250000F0EE60AA9FED400B53EC102B51EC1A0B30
:1025100003F07FFA66D818EE100A03F0D9FE41ECFA
:102520001A0B9FED390B53EC102B02F0C1FF05D1B4
:10253000902237490CA8FDF741FF37E018EE100A4A
:1025400003F0C6FE41EC1A0B9FED320B53EC102B3F
:1025500002F0AEFF05D1902230490CA8FDF72EFF06
:1025600024E018EE100A03F0B3FE41EC1A0B9FEDC5
:102570002C0B53EC102B02F09BFF05D190222A4923
:102580000CA8FDF71BFF11E018EE100A03F0A0FEE7
:1025900041EC1A0B9FED250B53EC102B02F088FF3A
:1025A00004D1902223490CA8FDF708FF0625062632
:1025B000324629460CAB04A8FDF75EFE00BF01269B
:1025C0003246294606AB02A8FDF756FE324629469A
:1025D00023466846FDF750FE6A4602A904A8FDF7A7
:1025E0004FFE0DE09FED140A84ED050A84ED040A08
:1025F00084ED030A84ED020A84ED010A84ED000AE9
:1026000030B0BDEC088B70BD000000000000F03F52
:10261000D0660008000000000000F83F6067000876
:102620000000000000000040F0670008000000000B
:1026300000000440806800080000000010B52DED87
:10264000068BB0EE409AF0EE609AB0EE41AAB0EE82
:10265000618A254890ED001AF0EE410A234890ED7A
:10266000001AB0EE410AB0EE481A2148FFF724FFE5
:102670001D4890ED011AF0EE410A1C4890ED011A38
:10268000B0EE410AB0EE481A1A48FFF715FF164897
:1026900090ED021AF0EE410A144890ED021AB0EEE5
:1026A000410AB0EE481A1448FFF706FF0E4890EDB5
:1026B000031AF0EE410A0D4890ED031AB0EE410AFC
:1026C000B0EE481A0D48FFF7F7FE9FED0D0AF0EE49
:1026D000408A0024C8210F20B0EE480A02F0E8F931
:1026E000BDEC068B10BD0000980000208800002083
:1026F000A8000020C0000020D8000020F00000202A
:102700000000000010B52DED068B02F06FF81420CC
:102710006B49C87000206B49C8700BE0694AD178DA
:10272000674AD078032202F0B5F802F02FF80F20A4
:10273000FFF792FE4FF400516348FEF77CFB01283F
:10274000ECD1FEF7ABF8B7EE088AB0EE481A5F4856
:10275000DFED5F0A9FED5E0AFFF7AEFEB0EE481AAE
:102760005C48DFED5B0A9FED5A0AFFF7A5FEB0EE6D
:10277000481A5948DFED560A9FED550AFFF79CFEAF
:10278000B0EE481A5548DFED560A9FED510AFFF7A3
:1027900093FE64210F20B0EE480A02F089F905206B
:1027A0004749087001204870002046490870487069
:1027B00010E0002407E0434A115D414A105D2246C3
:1027C00002F068F8641C022CF5DB01F0DFFF0F203B
:1027D000FFF742FE08213C48FEF72DFB0128E8D117
:1027E0000220374988700020364988700BE0354A4E
:1027F0009178334A9078022202F04CF801F0C6FF3B
:102800000F20FFF729FE04212F48FEF714FB0128B3
:10281000EDD1FEF76FF8002007E00021314A42F8C1
:102820002010314A42F82010401C0428F5DB00201B
:1028300012E09FED270A2D4901EB800181ED000A8E
:102840009FED230A2A4901EB800181ED000A002156
:10285000284A42F82010401C0328EADB42F210709C
:10286000FFF7FAFD01F0D2FF9FED190A204880ED35
:10287000020A9FED170A1D4880ED020A9FED140A17
:102880001B4880ED010A9FED120A184880ED010AED
:1028900090ED000A10EE101A084603F019FD41EC05
:1028A0001A0B9FED150B53EC102B02F013FF41ECAC
:1028B000190B02F0ABF90E490860BDEC068B10BD98
:1028C0004C00002050000020000C0240A800002016
:1028D00000000000C0000020D8000020F000002010
:1028E0000000B443480100205801002028010020C6
:1028F0008800002008010020666666666666104053
:1029000000B597B001210220FEF736FB01218804B3
:10291000FEF752FB01214805FEF72EFB07220A2194
:102920005548FEF765FA07220B215348FEF760FA77
:102930004FF48060159002208DF8580000208DF82B
:102940005A0001208DF85B0002208DF8590015A96E
:102950004948FEF705FA4FF40060159002208DF803
:10296000580015A94448FEF7FBF94FF4E1301190E7
:102970000020ADF84800ADF84A00ADF84C00ADF8C5
:1029800050000C20ADF84E0011A93C48FEF742FD66
:1029900001213A48FEF728FD012280213748FEF741
:1029A0002FFD012240213548FEF72AFD4FF000603F
:1029B00002903248001D0390314804900020059099
:1029C00015200690002007904FF4806008900020AA
:1029D00009900A900B904FF400300C9000200D905D
:1029E00001200E9000200F90109002A92548FDF7BD
:1029F00097FE01212348FDF76BFE0C208DF80400A3
:102A000000208DF805008DF8060001208DF80700E4
:102A100001A8FEF723FA012210211A48FDF763FEF0
:102A20004FF0006002901548001D03901648049076
:102A30004020059001200690002007904FF4806010
:102A40000890002009900A900B904FF400300C90F1
:102A500000200D9001200E9000200F90109002A9F0
:102A600008483030FDF75CFE012106483030FDF7A4
:102A70002FFE17B000BD00000004024000480040D7
:102A800050020020286002406000002030B52DED8B
:102A9000108B8FB0B0EE409AF0EE608AF0EE419A63
:102AA00029EE090A08EEA80ADFEDFE0A30EE600AF8
:102AB000DFEDFD0A30EE600ADFEDFC0A80EE201A41
:102AC000B0EE41AAB7EE000A0AEE4A0A10EE101A5A
:102AD000084603F0FDFB41EC1C0BB0EE4C0AF0EE97
:102AE0006C0AFFF755F8B0EE40BAF0EE60BA51EC60
:102AF0001B0B02F08BF804461AEE100A03F0E8FBF9
:102B000041EC1C0B204603F0E3FB41EC1E0BB0EE46
:102B10004C1AF0EE6C1AB0EE4E0AF0EE6E0AFEF7AA
:102B20006BFEB0EE40BAF0EE60BA51EC1B0B02F057
:102B30006DF808EE100A18EE100A03F0C9FB41EC1C
:102B40001C0BB0EE4C0AF0EE6C0AFEF74DFFB0EE37
:102B500040EAF0EE60EA9FEDD60B53EC102B51ECFF
:102B60001E0B02F0B7FD41EC1B0B9FEDD30B53EC9A
:102B7000102B02F0ADF941EC1F0B18EE100A03F018
:102B8000A7FB41EC1B0BB0EE4B0AF0EE6B0AFEF715
:102B90009BFFB0EE40CAF0EE60CA9FEDC50B53EC50
:102BA000102B51EC1C0B02F095FDB0EE4F1AF0EE1D
:102BB0006F1ACDE900019DED000BFEF71DFE8DEDB6
:102BC000040B19EE100A03F083FB41EC1B0B18EE0B
:102BD000900A03F07DFB41EC1C0BB0EE4B1AF0EEBB
:102BE0006B1AB0EE4C0AF0EE6C0AFEF705FE8DEDA6
:102BF000020B9DED040B53EC102B9DED020B51ECE1
:102C0000100B03F063F89FEDAE0B53EC102BCDE9E6
:102C100006019DED060B51EC100B02F05BFD9FEDE4
:102C2000AA0B53EC102BCDE908019DED080B51ECDC
:102C3000100B02F07FFA9FEDA60B53EC102BCDE9A1
:102C40000A019DED0A0B51EC100B02F043FDCDE99A
:102C50000C019DED0C0B51EC100B01F0D7FF0AEEAF
:102C6000900AB1EE480AB0EE408A18EE100A03F05E
:102C70002FFB41EC1E0BB0EE4E0AF0EE6E0AFEF793
:102C8000B3FEB0EE40BAF0EE60BA9FED890B53ECA4
:102C9000102B51EC1B0B02F01DFD41EC1C0B9FEDAA
:102CA000860B53EC102B02F013F941EC1F0B18EEBE
:102CB000100A03F00DFB41EC1C0BB0EE4C0AF0EED9
:102CC0006C0AFEF701FFB0EE40BAF0EE60BA9FED7D
:102CD000780B53EC102B51EC1B0B02F0FBFCB0EE0D
:102CE0004F1AF0EE6F1ACDE900019DED000BFEF7D3
:102CF00083FD8DED040B19EE100A03F0E9FA41ECA7
:102D00001C0B18EE900A03F0E3FA41EC1B0BB0EE3B
:102D10004C1AF0EE6C1AB0EE4B0AF0EE6B0AFEF7AE
:102D20006BFD8DED020B9DED040B53EC102B9DED17
:102D3000020B51EC100B02F0C9FF9FED610B53EC3D
:102D4000102BCDE906019DED060B51EC100B02F0A6
:102D5000C1FC9FED5D0B53EC102BCDE908019DEDFF
:102D6000080B51EC100B02F0E5F99FED590B53ECF9
:102D7000102BCDE90A019DED0A0B51EC100B02F06E
:102D8000A9FCCDE90C019DED0C0B51EC100B01F0F1
:102D90003DFF0DEE100A504890ED000A3DEE400A4E
:102DA00010EE101A084603F093FA41EC1B0BB0EE3C
:102DB0004B0AF0EE6B0AFEF77BFEB0EE40CAF0EE77
:102DC00060CA454890ED000A3AEEC00A10EE101AAB
:102DD000084603F07DFA41EC1B0BB0EE4B0AF0EE17
:102DE0006B0AFEF765FEB0EE40EAF0EE60EA53ECE7
:102DF0001C2B51EC1E0B02F069FF41EC1F0B9FEDE9
:102E0000370B53EC102B02F004FE0DD89FED350A62
:102E100028EE000ADFED340A80EE201A334880EDF8
:102E2000011A80ED00DA0EE0B1EE480ADFED2D0A5E
:102E300020EE200ADFED2C0A80EE201A2B4880EDD0
:102E4000011AC0ED00AA2948D0ED000A9FED281A0A
:102E500080EE810ADFED270AB4EEE00AF1EE10FA07
:102E60004AD8D0ED000A9FED221A80EE810AD0EDFB
:102E7000010A30EE200A30EE290A10EE105A2846D8
:102E800003F026FA41EC1B0B9FED0D0B53EC102BBE
:102E900002F0F0FD41EC1C0B01F0B8FE1349886014
:102EA00068E000000080DC430020D243004057442B
:102EB00000000000008034400000000000003540A9
:102EC000000000000080664000000060FB21094017
:102ED0006666666666661040880000200000000096
:102EE0000000000000003443DB0F49409800002040
:102EF000333383400000B44219EE900A03F0E8F93E
:102F000041EC1F0B264890ED010A10EE101A0846FE
:102F100003F0DEF941EC1B0B214890ED000A5FED58
:102F20000C0A80EE201A11EE105A284603F0D0F950
:102F300041EC1E0B1FED1E0B53EC102B02F09AFD03
:102F400041EC1C0B53EC1B2B02F0C0FE53EC1F2B6F
:102F5000CDE90A019DED0A0B51EC100B02F0B6FE13
:102F6000CDE90C019DED0C0B51EC100B01F04EFE68
:102F70000B4988600A4890ED020A5FED260AB4EE1C
:102F8000E00AF1EE10FA07DD90ED020ADFED050A26
:102F900030EE600A80ED020A0FB0BDEC108B30BD40
:102FA000980000200000B4438EB0FE4800684FF443
:102FB0007A71B0FBF1F00D900D98401EB0F1807F5A
:102FC00000D323E00D98401E4FF0E02148614817E0
:102FD0000B900F200C900B98002806DB0C98000734
:102FE000020EF1480B99425408E00C980007020EBB
:102FF000EE480B9901F00F01091F425400BF002059
:103000004FF0E02188610720086100BFFFF778FCDE
:10301000FDF716FDFDF7B2FBFDF75CFF42F2107005
:10302000FFF71AFA00214FF08040FEF798F90020D0
:10303000DF490870FDF732FC00200D901AE00021F6
:10304000DC4A0D981154DC4A0D98115411460D9824
:10305000085CD8490C900D98085C0B90DDE90C12C7
:1030600001F018FC0021D54A0D9842F820100D9867
:10307000401C0D900D980428E1DB01F087FBFDE377
:10308000CB48007800287DD0CD4800786F287AD0D2
:1030900006DC632878D0672877D0682816D104E04A
:1030A000722873D07428F9D111E0FFF72BFB40F29E
:1030B0009B314FF08040FEF752F942F21070FFF75B
:1030C000CBF900214FF08040FEF749F9FDE3BD4800
:1030D0000068099003F0FCF89FEDBB0B53EC102B3C
:1030E000CDE90A019DED0A0B51EC100B02F0F2FA4A
:1030F000CDE90C019DED0C0B51EC100B01F086FDA0
:10310000B3490860AF4890ED030AF0EE000A80EE84
:10311000201A084680ED031A01200D900EE0A949FF
:103120000D9801EB800090ED000AA9490D9801EB84
:10313000800080ED000A0D98401C0D900D9803282A
:10314000EDDB00200D9055E00D9800EB8000C01CD9
:103150009B49085C3038642110FB01F10D9800EBAD
:103160008000001D964A105C303800EB800001EBB7
:1031700040010D9800EB8000401D105C3038084481
:10318000944904E0FEE3FEE317E356E0FCE3086045
:103190000D9800EB8000801C1146085C302813D18C
:1031A0008B490D9801EB8000D0ED000A894890ED25
:1031B000000AB8EEC00A30EE800A87490D9801EB8C
:1031C000800080ED000A12E081490D9801EB80003B
:1031D000D0ED000A7F4890ED000AB8EEC00A30EE4C
:1031E000C00A7D490D9801EB800080ED000A0D9822
:1031F000401C0D900D980428A6DB724800680990C9
:1032000003F066F89FED700B53EC102BCDE90A012B
:103210009DED0A0B51EC100B02F05CFACDE90C01AC
:103220009DED0C0B51EC100B01F0F0FC68490860AF
:10323000B7EE080A01F046FB48E7624800680990CB
:1032400003F046F89FED600B53EC102BCDE90A011B
:103250009DED0A0B51EC100B02F03CFACDE90C018C
:103260009DED0C0B51EC100B01F0D0FC584908609F
:10327000544890ED030AF0EE000A80EE201A08464A
:1032800080ED031A01200D900EE04E490D9801EBE0
:10329000800090ED000A4E490D9801EB800080ED12
:1032A000000A0D98401C0D900D980328EDDB444852
:1032B00080793038059002F099F99FED480B53EC76
:1032C000102BCDE906019DED060B51EC100B02F021
:1032D00001FACDE90A013A4840793038019002F00C
:1032E00085F99FED400B53EC102BCDE902019DEDCC
:1032F000020B51EC100B02F0EDF9CDE9060130485C
:10330000007930382E49C978303901EB810100EB62
:103310004100039002F06AF9CDE904019DED060B2E
:1033200053EC102B9DED040B51EC100B01F0D0FD74
:10333000CDE908019DED0A0B53EC102B9DED080B18
:1033400051EC100B01F0C4FDCDE90C019DED0C0B0F
:1033500051EC100B01F05AFC244908601848007B1E
:103360003038059002F042F99FED1C0B53EC102B06
:10337000CDE906019DED060B51EC100B02F0AAF908
:10338000CDE90A010E48C07A3038019002F02EF9DA
:103390009FED140B53EC102BCDE902019DED020BB8
:1033A00026E000006400002000E400E018ED00E0EA
:1033B000200000204C0000205000002008010020C8
:1033C000500200202801002066666666666610408E
:1033D000880000205C000020980000207B14AE478D
:1033E000E17A843F9A9999999999B93F30000020E0
:1033F00051EC100B02F06EF9CDE90601FE48807A1F
:103400003038FD49497A303901EB810100EB410048
:10341000039002F0EBF8CDE904019DED060B53ECAF
:10342000102B9DED040B51EC100B01F051FDCDE97B
:1034300008019DED0A0B53EC102B9DED080B51EC90
:10344000100B01F045FDCDE90C019DED0C0B51EC8D
:10345000100B01F0DBFBE9490860E748807C30385D
:10346000059002F0C3F81FED210B53EC102BCDE9B2
:1034700006019DED060B51EC100B02F02BF9CDE986
:103480000A01DD48C07B3038642110FB01F1DA48C5
:10349000007C303800EB800001EB4001D648407CD6
:1034A00030380844079002F0A1F8CDE908019DEDFD
:1034B0000A0B53EC102B9DED080B51EC100B01F097
:1034C00007FDCDE90C019DED0C0B51EC100B01F04B
:1034D0009DFBCB490860C8488078312806D1C9488F
:1034E00090ED000AB1EE400A80ED000AC248007A71
:1034F000312806D1C14890ED000AB1EE400A80EDB6
:10350000000ABD48807B312806D1BD4890ED000AF5
:10351000B1EE400A80ED000AB94890ED001AB748B4
:10352000D0ED000AB74890ED000AFFF7AFFAB648B1
:1035300090ED000AB548D0ED000A30EE600A8DED3E
:10354000090A099802F0C4FECDE90A019DED0A0BB3
:10355000FEF7AEFA8DED0C0B9FEDAD0B53EC102B7F
:103560009DED0C0B51EC100B02F053FA0DD8F0EE60
:10357000001AA34890ED001AA048D0ED000AA14817
:1035800090ED000AFFF75AF816E19F4890ED000A07
:103590009E48D0ED000A30EE600A8DED090A0998C8
:1035A00002F096FECDE90A019DED0A0BFEF780FAC6
:1035B0008DED0C0B9FED980B53EC102B9DED0C0B30
:1035C00051EC100B02F025FA2DD28F4890ED000A35
:1035D0008E48D0ED000A30EE600A8DED090A099898
:1035E00002F076FECDE90A019DED0A0BFEF760FAC6
:1035F0008DED0C0B9FED860B53EC102B9DED0C0B02
:1036000051EC100B02F02AF80DD2F7EE081A7C48A4
:1036100090ED001A7948D0ED000A7A4890ED000A42
:10362000FFF70CF8C8E0784890ED010A7748D0ED34
:10363000010A30EE600A8DED090A099802F048FE91
:10364000CDE90A019DED0A0BFEF732FA8DED0C0B68
:103650009FED730B53EC102B9DED0C0B51EC100BED
:1036600001F0FCFF1FD2684890ED020A6748D0EDD8
:10367000020A30EE600A8DED090A099802F028FE70
:10368000CDE90A019DED0A0BFEF712FA8DED0C0B48
:103690009FED630B53EC102B9DED0C0B51EC100BBD
:1036A00001F0DCFF2CD3584890ED010A5748D0EDCB
:1036B000010A30EE600A8DED090A099802F008FE51
:1036C000CDE90A019DED0A0BFEF7F2F98DED0C0B29
:1036D0009FED550B53EC102B9DED0C0B51EC100B8B
:1036E00001F0BCFF0DD2F7EE001A454890ED001A2C
:1036F0004248D0ED000A434890ED000AFEF79EFFD5
:103700005AE0414890ED010A4048D0ED010A30EE00
:10371000600A8DED090A099802F0DAFDCDE90A0187
:103720009DED0A0BFEF7C4F98DED0C0B9FED3E0BE2
:1037300053EC102B9DED0C0B51EC100B02F069F9C2
:103740002DD8314890ED010A3048D0ED010A30EE15
:10375000600A8DED090A099802F0BAFDCDE90A0167
:103760009DED0A0BFEF7A4F98DED0C0B9FED300BD0
:1037700053EC102B9DED0C0B51EC100B01F06EFF78
:103780000DD2F7EE081A1E4890ED001A1B48D0ED36
:10379000000A1C4890ED000AFEF750FF0CE0F0EE26
:1037A000001A174890ED001A1448D0ED000A154889
:1037B00090ED000AFEF742FF88E41F480068099078
:1037C00002F086FD9FED1D0B53EC102BCDE90A0195
:1037D0009DED0A0B51EC100B01F07CFFCDE90C01C3
:1037E0009DED0C0B51EC100B01F010FA074908602D
:1037F000114890ED030A25E050020020340000201B
:1038000038000020300000209800002088000020B0
:103810000000000000406F400000000000005E401B
:10382000000000000000084000000000008051403F
:103830000000000000806140280100206666666686
:1038400066661040F0EE000A80EE201A084680ED11
:10385000031A01200D900EE0FE490D9801EB800047
:1038600090ED000AFC490D9801EB800080ED000A04
:103870000D98401C0D900D98032800E0FEE3EBDB53
:10388000F64880793038059001F0B0FE9FEDF40BDA
:1038900053EC102BCDE906019DED060B51EC100BFE
:1038A00001F018FFCDE90A01EC4840793038019069
:1038B00001F09CFE9FEDEC0B53EC102BCDE90201C7
:1038C0009DED020B51EC100B00E064E201F002FFF1
:1038D000CDE90601E14800793038E049C97830394E
:1038E00001EB810100EB4100039001F07FFECDE987
:1038F00004019DED060B53EC102B9DED040B51ECD8
:10390000100B01F0E5FACDE908019DED0A0B53EC2F
:10391000102B9DED080B51EC100B01F0D9FACDE9FD
:103920000C019DED0C0B51EC100B01F06FF9D0491F
:103930000860CA48007B3038059001F057FE9FEDC3
:10394000C80B53EC102BCDE906019DED060B51EC95
:10395000100B01F0BFFECDE90A01C048C07A303833
:10396000019001F043FE9FEDC00B53EC102BCDE90D
:1039700002019DED020B51EC100B01F0ABFECDE905
:10398000060102E0F8E3F8E306E2B448807A303852
:10399000B249497A303901EB810100EB41000390D3
:1039A00001F024FECDE904019DED060B53EC102B34
:1039B0009DED040B51EC100B01F08AFACDE90801E2
:1039C0009DED0A0B53EC102B9DED080B51EC100BE9
:1039D00001F07EFACDE90C019DED0C0B51EC100BC2
:1039E00001F014F9A34908609C48807C30380590A8
:1039F00001F0FCFD9FED9C0B53EC102BCDE9060173
:103A00009DED060B51EC100B01F064FECDE90A01AF
:103A10009248C07B3038642110FB01F18F48007C54
:103A2000303800EB800001EB40018C48407C30389E
:103A30000844079001F0DAFDCDE908019DED0A0B7D
:103A400053EC102B9DED080B51EC100B01F040FADC
:103A5000CDE90C019DED0C0B51EC100B01F0D6F8EB
:103A6000854908607D488078312806D1804890EDEE
:103A7000000AB1EE400A80ED000A7848007A312849
:103A800006D17C4890ED000AB1EE400A80ED000AB4
:103A90007248807B312806D1774890ED000AB1EE5C
:103AA000400A80ED000A744890ED001A7148D0ED8C
:103AB000000A6F4890ED000AFEF7E8FF6F4890EDAE
:103AC000000A6548D0ED000A30EE600A8DED090A63
:103AD000099802F0FDFBCDE90A019DED0A0BFDF707
:103AE000E7FF8DED0C0B1FEDB60B53EC102B9DED8E
:103AF0000C0B51EC100B01F08CFF0DD8F0EE001AFE
:103B00005D4890ED001A5B48D0ED000A584890EDF2
:103B1000000AFEF793FD31E1584890ED000A4E4847
:103B2000D0ED000A30EE600A8DED090A099802F026
:103B3000CFFBCDE90A019DED0A0BFDF7B9FF8DED35
:103B40000C0B1FEDCB0B53EC102B9DED0C0B51EC24
:103B5000100B01F05EFF2DD2484890ED000A3E4860
:103B6000D0ED000A30EE600A8DED090A099802F0E6
:103B7000AFFBCDE90A019DED0A0BFDF799FF8DED35
:103B80000C0B1FEDDD0B53EC102B9DED0C0B51ECD2
:103B9000100B01F063FD0DD2F7EE081A364890EDD8
:103BA000001A3448D0ED000A314890ED000AFEF7C3
:103BB00045FDE3E0314890ED010A2748D0ED010AC8
:103BC00030EE600A8DED090A099802F081FBCDE91B
:103BD0000A019DED0A0BFDF76BFF8DED0C0B1FED40
:103BE000F00B53EC102B9DED0C0B51EC100B01F076
:103BF00035FD1FD2214890ED020A1748D0ED020A88
:103C000030EE600A8DED090A099802F061FBCDE9FA
:103C10000A019DED0A0BFDF74BFF8DED0C0B9FED9F
:103C2000180B53EC102B9DED0C0B51EC100B01F00D
:103C300015FD47D3114890ED010A0748D0ED010A60
:103C400030EE600A8DED090A099802F041FBCDE9DA
:103C50000A0119E0280100208800002050020020FD
:103C60007B14AE47E17A843F9A9999999999B93F23
:103C70003000002034000020380000209800002090
:103C800000000000000008409DED0A0BFDF710FF4A
:103C90008DED0C0B9FEDFE0B53EC102B9DED0C0BE3
:103CA00051EC100B01F0DAFC0DD2F7EE001AFA48D5
:103CB00090ED001AF948D0ED000AF94890ED000A9D
:103CC000FEF7BCFC5AE0F74890ED010AF648D0ED4B
:103CD000010A30EE600A8DED090A099802F0F8FA3F
:103CE000CDE90A019DED0A0BFDF7E2FE8DED0C0B0F
:103CF0009FEDE70B53EC102B9DED0C0B51EC100BD3
:103D000001F087FE2DD8E74890ED010AE648D0ED96
:103D1000010A30EE600A8DED090A099802F0D8FA1E
:103D2000CDE90A019DED0A0BFDF7C2FE8DED0C0BEE
:103D30009FEDDE0B53EC102B9DED0C0B51EC100B9B
:103D400001F08CFC0DD2F7EE081AD34890ED001A62
:103D5000D248D0ED000AD24890ED000AFEF76EFC82
:103D60000CE0F0EE001ACC4890ED001ACB48D0EDF4
:103D7000000ACB4890ED000AFEF760FC00F0D8FE88
:103D800040F275218807FDF7EAFA41F28830FEF724
:103D900063FB00F0EFFED0E2C6480068099002F035
:103DA00097FA9FEDC50B53EC102BCDE90A019DED61
:103DB0000A0B51EC100B01F08DFCCDE90C019DEDCF
:103DC0000C0B51EC100B00F021FFB7490860B9480B
:103DD00090ED030AF0EE000A80EE201A084680ED0E
:103DE000031A01200D900EE0B2490D9801EB8000FE
:103DF00090ED000AAC490D9801EB800080ED000ABF
:103E00000D98401C0D900D980328EDDBAC4880798F
:103E10003038059001F0EAFB1FED6F0B53EC102BCF
:103E2000CDE906019DED060B51EC100B01F052FCA3
:103E3000CDE90A01A24840793038019001F0D6FB63
:103E40001FED770B53EC102BCDE902019DED020B1A
:103E500051EC100B01F03EFCCDE9060198480079C9
:103E600030389749C978303901EB810100EB4100C6
:103E7000039001F0BBFBCDE904019DED060B53EC73
:103E8000102B9DED040B51EC100B01F021F8CDE946
:103E900008019DED0A0B53EC102B9DED080B51EC26
:103EA000100B01F015F8CDE90C019DED0C0B51EC58
:103EB000100B00F0ABFE7A4908608148007B303877
:103EC000059001F093FB1FED9A0B53EC102BCDE9FD
:103ED00006019DED060B51EC100B01F0FBFBCDE94B
:103EE0000A017748C07A3038019001F07FFB1FED5E
:103EF000A20B53EC102BCDE902019DED020B51EC0E
:103F0000100B01F0E7FBCDE906016D48807A3038EF
:103F10006B49497A303901EB810100EB4100039094
:103F200001F064FBCDE904019DED060B53EC102B71
:103F30009DED040B51EC100B00F0CAFFCDE9080118
:103F40009DED0A0B53EC102B9DED080B51EC100B63
:103F500000F0BEFFCDE90C019DED0C0B51EC100BF8
:103F600000F054FE4D4908605548807C303805907B
:103F700001F03CFB1FEDC40B53EC102BCDE9060107
:103F80009DED060B51EC100B01F0A4FBCDE90A01ED
:103F90004B48C07B3038642110FB01F14848007C5D
:103FA000303800EB800001EB40014548407C303860
:103FB0000844079001F01AFBCDE908019DED0A0BBA
:103FC00053EC102B9DED080B51EC100B00F080FF13
:103FD000CDE90C019DED0C0B51EC100B00F016FE21
:103FE0002D49086036488078312806D12C4890ED5C
:103FF000000AB1EE400A80ED000A3148007A31280B
:1040000006D1264890ED000AB1EE400A80ED000A84
:104010002B48807B312806D11F4890ED000AB1EE75
:10402000400A80ED000A1C4890ED001A1B48D0EDB4
:10403000000A1B4890ED000AFEF728FD194890ED94
:10404000000A1948D0ED000A30EE600A8DED090A29
:10405000099802F03DF9CDE90A019DED0A0BFDF743
:1040600027FD8DED0C0B9FED170B53EC102B9DEDE9
:104070000C0B51EC100B01F0CCFC00E075E12DD8DD
:10408000F0EE001A044890ED001A04481EE000000B
:104090000000000000805140380000203400002063
:1040A0003000002098000020880000200000000060
:1040B00000806140280100206666666666661040E2
:1040C000500200200000000000406F40D0ED000AC8
:1040D000A74890ED000AFEF7B1FA18E1A54890ED67
:1040E000000AA548D0ED000A30EE600A8DED090AFD
:1040F000099802F0EDF8CDE90A019DED0A0BFDF7F4
:10410000D7FC8DED0C0B9FED9D0B53EC102B9DED13
:104110000C0B51EC100B01F07CFC2FD2954890ED6C
:10412000000A9548D0ED000A30EE600A8DED090ACC
:10413000099802F0CDF8CDE90A019DED0A0BFDF7D3
:10414000B7FC8DED0C0B1FED210B53EC102B9DEDEF
:104150000C0B51EC100B01F081FA0FD2F7EE081A9C
:10416000884890ED001A8848D0ED000A804890ED0C
:10417000000AFEF763FACAE0E3E0D7E07D4890ED7D
:10418000010A7D48D0ED010A30EE600A8DED090A82
:10419000099802F09DF8CDE90A019DED0A0BFDF7A3
:1041A00087FC8DED0C0B9FED790B53EC102B9DEDE7
:1041B0000C0B51EC100B01F051FA1FD26D4890ED31
:1041C000020A6D48D0ED020A30EE600A8DED090A50
:1041D000099802F07DF8CDE90A019DED0A0BFDF783
:1041E00067FC8DED0C0B9FED690B53EC102B9DEDD7
:1041F0000C0B51EC100B01F031FA2CD35D4890ED13
:10420000010A5D48D0ED010A30EE600A8DED090A21
:10421000099802F05DF8CDE90A019DED0A0BFDF762
:1042200047FC8DED0C0B1FED660B53EC102B9DED39
:104230000C0B51EC100B01F011FA0DD2F7EE001A35
:10424000504890ED001A5048D0ED000A484890EDD3
:10425000000AFEF7F3F95AE0464890ED010A464895
:10426000D0ED010A30EE600A8DED090A099802F0DE
:104270002FF8CDE90A019DED0A0BFDF719FC8DED34
:104280000C0B1FED7D0B53EC102B9DED0C0B51EC2B
:10429000100B01F0BEFB2DD8364890ED010A3648D0
:1042A000D0ED010A30EE600A8DED090A099802F09E
:1042B0000FF8CDE90A019DED0A0BFDF7F9FB8DED35
:1042C0000C0B1FED860B53EC102B9DED0C0B51ECE2
:1042D000100B01F0C3F90DD2F7EE081A294890ED42
:1042E000001A2948D0ED000A214890ED000AFEF797
:1042F000A5F90CE0F0EE001A224890ED001A2248D1
:10430000D0ED000A1A4890ED000AFEF797F900F088
:104310000FFC40F29B314FF08040FDF720F841F256
:104320008830FEF799F800F025FC06E040F29B315A
:104330004FF08040FDF713F800BF00BF0020154983
:1043400008704F20144908704FF0C0511348FCF713
:104350008BF9012011495839C86501210F48FCF734
:10436000B7F94FF4FA70FEF777F8FEF789BE000050
:10437000300000209800002088000020000000008D
:1043800000005E40380000203400002000000000E3
:10439000000008402000002060000020586002401B
:1043A00070B52DED0E8B04460D46B0EE408A95EDAE
:1043B000000AB5EEC00AF1EE10FA28D195ED010A17
:1043C000B5EEC00AF1EE10FA21D195ED020AB5EE74
:1043D000C00AF1EE10FA1AD195ED030AB5EEC00A43
:1043E000F1EE10FA13D195ED040AB5EEC00AF1EE24
:1043F00010FA0CD195ED050AB5EEC00AF1EE10FAEF
:1044000005D10020B6490855B649085565E195ED36
:10441000000AD5ED010A00EE880AD5ED020A60EE29
:10442000880A00EE880AD5ED030A60EE880A60EE7D
:10443000880A00EE880AD5ED040A60EE880A60EE6C
:10444000880A60EE880A00EE880AD5ED050A60EE5B
:10445000880A60EE880A60EE880A60EE880A00EE3C
:10446000880AA14800EB840080ED000A9F4800689C
:1044700001F02EFF41EC1B0B9B4800EB840090EDFC
:10448000000A9B4800EB8400D0ED000A30EE600A81
:1044900010EE101A084601F01BFF41EC1D0BB0EEA8
:1044A0004D0AF0EE6D0AFDF703FBB0EE40CAF0EEE8
:1044B00060CA53EC1B2B51EC1C0B01F00BF941ECC7
:1044C0001A0B9FED8C0B53EC102B00F033FE41ECDC
:1044D000190B854800EB840090ED000A844800EB3E
:1044E0008400D0ED000A30EE600AB5EEC00AF1EEAD
:1044F00010FA03D800207B49085502E001207949D1
:10450000085551EC190B01F00DF8064601F06EF854
:1045100041EC1B0B53EC192B01F0ACFA41EC1A0BDC
:104520009FED760B53EC102B01F073FA35D251EC62
:10453000190B00F0F7FF401C6949085551EC190BA5
:1045400000F0F0FF064601F051F841EC1E0B53EC71
:10455000192B01F08FFA41EC1C0B6A4800EB840028
:1045600090ED000A10EE101A084601F0B1FE41EC81
:104570001D0B53EC1C2B00F0ABFC41EC1B0B9FED17
:10458000620B53EC102B01F0A1FB41EC1A0B00F075
:104590003DFB5C4941F824002BE051EC190B00F085
:1045A000C1FF4F49085551EC190B00F0BBFF0646FF
:1045B00001F01CF841EC1D0B53EC192B01F05AFAD9
:1045C00041EC1B0B4F4800EB840090ED000A10EE0D
:1045D000101A084601F07CFE41EC1C0B53EC1B2B1F
:1045E00000F076FC41EC1A0B00F010FB454941F855
:1045F0002400444800EB840090ED000AF7EE000A26
:10460000B4EEE00AF1EE10FA13DB3E4800EB840052
:1046100090ED000AF7EE000A30EE600A394800EB30
:10462000840080ED000A2E48005D401C2C4908558E
:1046300022E0344800EB840090ED000AFFEE000A0F
:10464000B4EEE00AF1EE10FA16D82548005D002815
:104650000DDD2C4800EB840090ED000AF7EE000A17
:1046600030EE200A274800EB840080ED000A1C4849
:10467000005D401E1A490855254850F824000028BE
:104680000CDD1748005D401C15490855204850F8BE
:104690002400401E1E4941F8240014E01C4850F834
:1046A000240000280FDA0E48005D01280BDD0C48BD
:1046B000005D401E0A490855154850F82400401C6A
:1046C000134941F82400084800EB840090ED000AEB
:1046D000074800EB840080ED000ABDEC0E8B70BD36
:1046E0004C0000205000002098000020CC660008FC
:1046F000880000200000000000807640CDCCCCCCAB
:10470000CCCCE43F18010020000000000000F03F86
:104710000801002010B52DED068B0446204600F060
:1047200089FF41EC1A0B9FED130B53EC102B00F09B
:10473000D1FF41EC190B00F069FA08EE100AB0EE57
:10474000480A0E490020FFF72BFEB0EE480A0C493C
:104750000120FFF725FEB0EE480A0A490220FFF7C4
:104760001FFEB0EE480A08490320FFF719FEBDEC12
:10477000068B10BDFCA9F1D24D62503FA80000206D
:10478000C0000020D8000020F000002010B54FF439
:1047900080510F48FCF75AFB0A2400BF201EA4F1E9
:1047A0000104FBD14FF480510948FCF74DFB4FF455
:1047B00080510748FCF74AFB0A2400BF201EA4F1E1
:1047C0000104FBD14FF480510148FCF73DFB10BDC3
:1047D000000C0240002004E00021034A42F82010AF
:1047E000401C0428F8DB704708010020002005E089
:1047F0000021044A1154044A1154401C0428F7DBD8
:10480000704700004C0000205000002010B52DED36
:10481000028BB0EE001A1848DFED180A9FED180A57
:10482000FDF74AFEB0EE001A1648DFED170A9FEDBD
:10483000140AFDF741FEB0EE001A1448DFED100A2D
:104840009FED0F0AFDF738FEB0EE001A1048DFEDBD
:104850000C0A9FED0B0AFDF72FFE9FED090AB0EE43
:10486000408A0024C8210F20B0EE000A00F020F991
:10487000BDEC028B10BD0000A80000200000B44376
:1048800000000000C000002000001643D8000020F7
:10489000F0000020F0B503460D46144664000027E2
:1048A000322B00DD3223EF011F4404F1C0403946B2
:1048B000FCF754FA0027322600BF301EA6F101068D
:1048C000FBD1F0BD2DE9F0412DED088BB0EE408A13
:1048D0000026674890ED000AB0EE40BA9FED650AE9
:1048E000F0EE408A18EE100A01F0F2FC41EC1A0BCF
:1048F0009FED610B53EC102B00F0ECFE41EC190B1B
:1049000000F010FE07465E4890ED001AF0EE410AF6
:104910005C4890ED001AB0EE410AB0EE481A5A48D1
:10492000FDF7CAFD564890ED011AF0EE410A5548D0
:1049300090ED011AB0EE410AB0EE481A5348FDF767
:10494000BBFD4F4890ED021AF0EE410A4D4890ED44
:10495000021AB0EE410AB0EE481A4D48FDF7ACFD20
:10496000474890ED031AF0EE410A464890ED031ACD
:10497000B0EE410AB0EE481A4648FDF79DFD01250C
:1049800062E0A8B2FFF7C6FE002407E0424A115DCC
:10499000424A105D2246FFF77DFF641C042CF5DBC4
:1049A000FFF7F4FE0F20FDF757FDFBF7B5FF4FF4BF
:1049B000C87095FBF0F100FB115090BB002440E063
:1049C000E0B2FBF763FF364800EB840080ED000A9D
:1049D00084B92B4800EB840090ED000A304800EBCE
:1049E0008400D0ED000A9FED2F1A10EE810AF0EE40
:1049F000408A25E0022C15D1294800EB840090ED77
:104A0000000A1F4800EB8400D0ED000A30EE600A77
:104A1000F0EE408A244800EB8600C0ED008A761C48
:104A20000EE010E01E4800EB840090ED000A1448F0
:104A300000EB8400D0ED000A30EE600AF0EE408A10
:104A4000641C042CBCDB6D1C9FED180A68EE000A88
:104A500000EE105AB8EEC00AF4EEC00AF1EE10FAF9
:104A60008FDAFFF7B7FEBDEC088BBDE8F0810000E0
:104A7000CC66000800000000000000000000494073
:104A80009800002088000020A8000020C00000201E
:104A9000D8000020F0000020500000204C00002032
:104AA00068010020333303418801002000007A446C
:104AB0002DE9F0412DED028BB0EE408A0646884686
:104AC000174890ED000AF0EE408A0027012516E015
:104AD000A8B2FFF71FFE002407E0124A115D124A38
:104AE000105D2246FFF7D6FE641C042CF5DBFFF7B1
:104AF0004DFE3046FDF7B0FCFBF70EFF6D1C9FED41
:104B00000B0A68EE000A00EE105AB8EEC00AF4EE86
:104B1000C00AF1EE10FADBDABDEC028BBDE8F081E1
:104B2000CC660008500000204C00002000007A44B1
:104B300010B514200C49C87000200C49C8700BE057
:104B40000A4AD178084AD0780322FFF7A3FEFFF77C
:104B50001DFE0F20FDF780FC4FF400510448FCF7C8
:104B60006AF90128ECD110BD4C0000205000002053
:104B7000000C024010B52DED028BB7EE000AB0EE2E
:104B8000408AB0EE481A1548DFED150A9FED140A69
:104B9000FDF792FCB0EE481A1248DFED110A9FEDC6
:104BA000100AFDF789FCB0EE481A0F48DFED0C0A39
:104BB0009FED0B0AFDF780FCB0EE481A0B48DFEDC5
:104BC0000C0A9FED070AFDF777FC64210F20B0EE79
:104BD000480AFFF76DFFBDEC028B10BDA800002056
:104BE00000000000C0000020D8000020F0000020DD
:104BF0000000B44381F00041704780F000407047EE
:104C000021F00041704720F00040704721F0004241
:104C1000A2F16052B2F5801F01F0004328BFD2F12B
:104C20007E6C51D9F1EE10CA1CF4400F14D15FEA2A
:104C3000C00C43EAC20202EB507008BF70475FEA43
:104C40004C0C40F10000DFF880C241F04B8228BFDD
:104C500020F0010001F046BAC30001F0004343EA2E
:104C6000C20202EB507008BF70471B4248BF4FEAB8
:104C70004C0C1CF4000F08BF401CDFF84CC201F0C4
:104C800031BAC30001F0004343EAC20202EB5072A2
:104C900004BF104670471B4248BF4FEA4C0C1CF43F
:104CA000000FDFF824C218BF104641F01B8208BF76
:104CB000521C12F4000F08BF104601F0138221F0BD
:104CC000004201F0004330E050EA410C04BF0846C6
:104CD00070475FEA125CBCF1FE0F1ED1F1EE10CA04
:104CE0001CF4400FCDD15FEAC00C9BD05FEA001CE2
:104CF0004FEAC20C4CEB507C04BFC2002CEAD27CC1
:104D00001CF4000F04BF4CEA0300DFF8BCC101F043
:104D1000E98121F00042A2F16052B2F5801F4FEA12
:104D2000410C2ADB1CF5001F16D2F1EE10CA1CF450
:104D3000806F06D02CF0005C4CF0805CA1F14061EB
:104D40002AE04FF07F40DFF884C143EA500001F0D1
:104D5000C9B9084601F077BB70B500F09BFD00BFF4
:104D6000000000B988000004FFF7F3BF21F0704293
:104D700043EA507040EAC2007047F1EE10CA2CF0CE
:104D8000805C4CF0005C1CF4006F25D04B00B3F548
:104D9000001F51D301F140611CF4400F40F07E80B0
:104DA0000CF0405CC3004CF0880C11D05CF0404C1F
:104DB00010F0805F0CD0034610F1005041F100016B
:104DC000020108BF20F00050834218BF2CF0004CB5
:104DD00000F0604001F033BC1CF4400F1AD01B42BD
:104DE00048BF4FEA4C0C1CF4000F13D112F1406283
:104DF00048BF22F07F424FEAC00CBCF1010F43EAEA
:104E0000C20242EB50704FF0880228BF42F080424D
:104E100001F01EBB12F1406248BF22F07F425FEA00
:104E2000C00C43EAC20242EA50704FF0880218BF39
:104E300042F0404201F00CBB01F0004321F0004180
:104E4000094214D0B1FA81FCACF10B0CCCF1200278
:104E500001FA0CF120FA02F241EA02014FEA0C5287
:104E600000FA0CF0A1EB020181EA03010FE0B0FAB5
:104E700080F200FA02F002F115024FEAD0214FEA67
:104E80000252A1EB02014FEA405081EA0301F1EE28
:104E900010CA2CF0805C4CF0005C7BE762460CF0A2
:104EA000405CC3004CF0880C92D05CF0404C09424E
:104EB00048BF520012F4000F8AD110F1005041F1A6
:104EC00000012CF0004C83D18800004088000010C5
:104ED00010B5DFF840E211F5801C13F580141EEACE
:104EE0004C0F18BF1EEA440F00F0C88091EA030F70
:104EF00048BF83F0004300F1FE86841A71EB030C77
:104F000005D2121943EB0C03001B61EB0C014FEAB5
:104F10001154A4EB135C23EA6E0321EA045143F419
:104F20008013DCF1200E53D322FA0CFE10EB0E009E
:104F300023FA0CFE41EB0E01CCF1200E03FA0EFE1B
:104F400010EB0E0051F10001B1F5801FCCF1200EE5
:104F500053D201EB045112FA0EF2BDE8104008BF23
:104F60007047F1EE10CA1CF4400F1ED14FF0110C27
:104F700092F0000F4CF0804C41F1B480401C38BFDF
:104F80005FEA420241F0AE80002814BF20F0010029
:104F900041F100014FEA410313F5001F24BF4CF01B
:104FA000805CA1F1C04101F09DB811F0004F54BFE9
:104FB0001CF4000F1CF4800F4FF0110C4CF0804CCF
:104FC00041F09080401CC1F08D8041F10001E1E78B
:104FD000012A43EB0302ACF1200CDCF11F0E32BFBF
:104FE0004FF0000E23FA0CF310EB030041EB0451D9
:104FF000B4EB115FAFD0A1EB045101F5801149086A
:105000005FEA300002FA0EF242EA420201EB04517A
:105010005FEA320213D0BDE81040F1EE10CA1CF472
:10502000400F1AD14FF0110C92F0000F4CF0804C51
:10503000B0D5401C38BF5FEA4202ABD1A4E7BDE85F
:1050400010404FEA410313F5001F38BF7047DFF8E7
:10505000C8C0A1F1C04101F045B811F0004F54BFE4
:105060001CF4000F1CF4800F4FF0110C4CF0804C1E
:1050700090D1401C8ED341F100018BE74EF4001E0D
:105080003EEA410418BF3EEA430439D091EA030FD7
:1050900048BF83F0004300F12987841A71EB030CA9
:1050A00005D2121943EB0C03001B61EB0C0152EA11
:1050B000430E4FEA1154A4EB135C13D05FEA445E35
:1050C00021EA04511CBF23F00043ACF1010C7FF432
:1050D00028AFBDE810404FF0110C801841EB0301E0
:1050E00000F0EBBE5FEA445EBDE8104018BF7047B9
:1050F00050EA410C08BF70474FF0110C00F0DDBEC4
:10510000BDE8104070B500F0C5FB00BF64FBBE3EBB
:10511000110000040000C0FF11000010491058BF2A
:10512000C1F140415B1058BFC3F140438B42EFF3E4
:10513000008070472DE9C04130B4DFF864C33CEA19
:10514000111418BF3CEA131400F04B8181EA0305E7
:105150001CEA111444EAD57418BF1CEA131500F0B8
:105160001D81A4EB05044FF0004545EAC12145EA45
:10517000C32341EA505143EA525304F17F749942E8
:1051800004F500344FEAC0204FEAC22208BF904223
:1051900000F0D0804FEA13650FF20426765D4FEAE7
:1051A000134506FB05F7C7F1807706FB07F74FEAC3
:1051B000D737A7FB03687642C8F58038A7FB06CE31
:1051C00038BFA8F1010807FB08E64FF0000EA6FB68
:1051D000028CE6FB03CEDCF1000CCEF1004E38BFB2
:1051E000AEF1010EA6FB0C584FF000074FF0000582
:1051F000E6FB0E87A1FB08C6A0FB07CE16EB0E064A
:1052000045F10005E1FB076515F1E04E7EBFA4F511
:1052100080345FEA46066D4116F18007F1EE10CA50
:1052200045F100054FEA172747EA05671CF4400FD0
:105230004FEA152536D14FEA4666A6F15E46B6F12D
:10524000085F2FD9B4F1FE6F2CD8384624F0010C3A
:1052500005EBC471BCF1FE6F01EB0C11DFF844C229
:1052600002D8F0BCBDE8004140F23C8724425CBF5C
:1052700001F5801E9EEAC47F02D4F0BCBDE8004167
:1052800040F13087244277D4DFF81CC256EA080E7A
:10529000A1F1C04118BF4CF0804CF0BCBDE800410A
:1052A00000F020BF4FEAD22242EA43524FEAD32312
:1052B000A7FB02864FEAD02040EA415007FB036675
:1052C0001EEA0E0F4FEAD12105FB026658BFA6EB7E
:1052D0000056B6EB00564FEA520E4EEAC37E18EB6C
:1052E0000E0E56EB530E05D518EB02085E417F1CDF
:1052F00055F1000556EA080E24D01CF4400FA4D046
:1053000014F0010F18BF4FEA4C0C1CF4000F08D02A
:1053100036429AD4B8EB02089E417F1E75F1000513
:1053200093E7364291D518EB02085E417F1C55F198
:1053300000058AE74FF480154FF000074FF0000694
:105340004FF0000824F0010C384605EBC471BCF1A5
:10535000FE6F01EB0C1102D8F0BCBDE800811CEA25
:105360000C0F5CBF01F5801E9EEAC47F02D4F0BC26
:10537000BDE80081244287D556EA080C01F1C041FE
:105380001CBF06F0004C4CF0804C4CF0005CF0BCB4
:105390004CF0140CBDE8004100F0E6BD50EA410EAF
:1053A0000CEA13150BD052EA430E13D000F0F3FAB7
:1053B000641B86EA4606240444EAD674D3E652EA1D
:1053C000430E00F02680F0BC81EA030101F00041A9
:1053D000BDE80081F0BCBDE80041DFF8D0C000F0BE
:1053E00081BEF0BCBDE8004170B500F053FA00BFCB
:1053F000097EFC3E1400000400F007B881EA0301B6
:105400004FF0000001F00041704781EA030100F015
:10541000FABAF0BCBDE800415FF828C000F062BEF7
:10542000FFFDFBF9F7F5F4F2F0EEEDEBE9E8E6E469
:10543000E3E1E0DEDDDBDAD8D7D5D4D3D1D0CFCDF0
:10544000CCCBCAC8C7C6C5C4C2C1C0BFBEBDBCBB29
:10545000BAB9B8B7B6B5B4B3B2B1B0AFAEADACAB24
:10546000AAA9A8A8A7A6A5A4A3A3A2A1A09F9F9EFE
:105470009D9C9C9B9A9999989797969595949393B0
:10548000929191908F8F8E8E8D8C8C8B8B8A898947
:1054900088888787868585848483838282818180CA
:1054A0000000FF0714000040140000101400000862
:1054B00051EA030C11D41CF5801F00F106809942BB
:1054C00018BF704708BF9042704711F5801F58BF42
:1054D00013F5801F18D4994270471CF5801F09D519
:1054E00050EA410C0EBF52EA430C8B42704708BF92
:1054F000824270474FF4001C1CEB410F38BF1CEB7D
:10550000430F01D28B42704770B500F0C3F900BF62
:1055100092244938190012044FF000514FF0805383
:10552000FFF7FCBD4FEA410380B54FEA5353A3F5A3
:105530008063D3F11E03C8BFD3F1210C1FDD4FF0F0
:10554000004242EAC12242EA505232FA03FC62FAB5
:1055500003F787EA0C0757EAC0270BD032FA03FC9F
:105560008CEAE17CACEBE170BDE88040DFF874C010
:1055700000F0B8BD8CEAE17CACEBE17080BD50EA94
:10558000410C00D180BD102B07DD4FF00000BDE8BD
:105590008040DFF850C000F0A5BD03F5787CBCF179
:1055A000FF3F14D0002B02BF7FEA210C5FEA013CD1
:1055B0005FEA505C05D100284FF00040D4D100D103
:1055C00080BDBDE88040DFF820C000F08BBDBDE8A5
:1055D000804070B500F05EF9000000BFC800030411
:1055E00080B5DFE7C8000240C800020410F00042A6
:1055F00048BF4042B0FA80F310FA03F10AD0C3F179
:105600001D0303F580634FEA415002EB035202EBA6
:10561000D12170474FF000007047B1FA81F201FAD2
:1056200002F1C2F11D024FEA415003EB025303EBBA
:10563000D1217047B0FA80F310FA03F10AD0C3F118
:105640001D0303F580634FEA41504FEA035202EB1A
:10565000D12170474FF000007047000051EA030C61
:1056600011D41CF5801F00F10680994218BF7047C5
:1056700008BF9042704711F5801F58BF13F5801F77
:1056800018D4994270471CF5801F09D550EA410C87
:105690000EBF52EA430C8B42704708BF82427047EC
:1056A0004FF4001C1CEB410F38BF1CEB430F01D221
:1056B0008B42704770B500F0EDF800BF0000003F6E
:1056C00019001604FFF72ABD4FF000514FF0805328
:1056D000FFF724BDDFF8B4C170B51CEA111E1EBF70
:1056E0001CEA13159EEA0C0F95EA0C0F00F094804B
:1056F00081EA030421EA4C114EEAD47E23EA4C13DA
:10570000AE4441F4801143F48013A1FB024CA0FB92
:105710000365AEF17F7E361955EB0C05A1FB034CFA
:105720004CF10003A0FB021C16EB0C06654153F183
:105730000003094218BF46F0010613F4007F0BD1A5
:105740004FEA03314FEA0530340341EA155140EA8C
:1057500016506FF003020AE04FEAC3214FEAC5205A
:10576000F40241EA555140EA56506FF002022646D3
:1057700002EB2E4201EB025585EACE7127D0F1EE05
:1057800010CA05461CF4400C14D15FEA440C18BF43
:1057900024F0004450F1000041F1000120EAD470EF
:1057A00040F2FD7C624517D2BDE87040DFF8E0C0F2
:1057B00000F098BC5FEACE7454BF1CF4000F1CF4D8
:1057C000800F08BF10F1010041F10001E8E740F24D
:1057D000FE7C624504D270BD08BF11F4801FE3D087
:1057E000A84214BF4FF080444FF04044002E08BF41
:1057F0000024BEF1806FD8BF01F1C041A8BFA1F164
:10580000C04144F0130CA8BF4CF0805CBDE8704070
:1058100040F3AA8300F066BC9EEA0C0F0CEA131555
:1058200018BF95EA0C0F19D091EA030F48BF4EF04C
:10583000010E50EA410418BF52EA430409D000F0B7
:10584000AAF8641986EA46064FEA044E4EEAD67E66
:105850005BE74FEACE714FF0000070BD00F01AF820
:105860008900013E1300000400F005B800F007B8FD
:1058700052EA430C06D081EA030100F0C4B850EAB2
:10588000410CF8D15FF824C000F02CBC0000FF07E9
:10589000130000400EF1020E2EF0030E01285EF8F8
:1058A000086B41EB010414F5001418BFB4F5801F18
:1058B00023D3364208D4012A43EB030515F500151E
:1058C00018BFB5F5801F18D301EB010C1CF5801F24
:1058D00016D2364204D403EB030C1CF5801F0FD202
:1058E000002C10D14FEAD17C002D0CEB4C0C0CF1AC
:1058F000020C08BF4CEBD37C07E04FF0090C04E02E
:105900004FF0080C01E04FEAD37C0CEB4C0526FA73
:1059100005F606F00706B6F1040C06D20EEB860C6F
:10592000BDE870404CF0010C6047DFE80CF0222429
:1059300013025EF804CC1B2D08D1002C88BFB4F5EF
:10594000801F34BF4CF4804C4CF4004CBDE87040D8
:1059500000F0C8BB002C88BFB4F5001F24BF194657
:10596000104670BD4FF000004FF00041A1F500213E
:1059700070BD19461046012851EB010418BFD4F53B
:10598000001484BF5EF804CC2CF0806CBDE870403D
:1059900000F28783704780B54FF003065C004FEA42
:1059A00003334FEA3606640D4FEA133318BF43F44E
:1059B00080131CD153EA125E04F1010402BF1346A6
:1059C0000022203C1B4202BF130B1205143CB3FA09
:1059D00083FEAEF10B0ECEF1200C03FA0EF322FA89
:1059E0000CFC02FA0EF2A4EB0E0443EA0C030FB413
:1059F00016F0010F0CBC03BC18BF2546CED180BDEC
:105A000080B50126F3E70808A0F500114FEA31013F
:105A1000704753EA010C11D41CF5801F00F1068079
:105A20008B4218BF704708BF8242704713F5801F32
:105A300058BF11F5801F18D48B4270471CF5801F8A
:105A400009D552EA430C0EBF50EA410C9942704707
:105A500008BF904270474FF4001C1CEB430F38BF47
:105A60001CEB410F01D2994270470FB40CBC03BC30
:105A7000FFF720BE10B5DFF848E011F5801C13F5E4
:105A800080141EEA4C0F18BF1EEA440F09D091EA99
:105A9000030F81F000413FF530AA83F0004300F08E
:105AA0002AB981EA030180EA020083EA010382EA5B
:105AB000000281EA030180EA020000F008BA00BF98
:105AC0000000C0FF2DE9F04101F5801CBCF5001F6E
:105AD000C0F2DC804FEA115C21EA0C5141F48011E4
