:020000040800F2
:1000000030A3002029020008B50B0008AD0B000842
:10001000B10B00080F0300084512000800000000A3
:100020000000000000000000000000003D0E00087D
:100030004D04000800000000D10C00086D0F0008FE
:100040004D0200084D0200084D0200084D02000854
:100050004D0200084D0200084D0200084D02000844
:100060004D0200084D0200084D0200084D02000834
:10007000150300084D0200084D0200084D0200085B
:100080004D0200084D0200084D0200084D02000814
:100090004D0200084D0200084D0200084D02000804
:1000A0004D0200084D0200084D0200084D020008F4
:1000B0004D0200084D0200084D0200084D020008E4
:1000C0004D0200084D0200084D0200084D020008D4
:1000D0004D0200084D0200084D0200084D020008C4
:1000E0004D0200084D0200084D0200084D020008B4
:1000F0004D0200084D0200084D0200084D020008A4
:100100004D0200084D0200084D0200084D02000893
:100110004D0200084D0200084D0200084D02000883
:100120004D0200084D0200084D0200084D02000873
:100130004D0200084D0200084D0200084D02000863
:100140004D0200084D0200084D0200084D02000853
:100150004D0200084D0200084D0200084D02000843
:100160004D0200084D0200084D0200084D02000833
:100170004D0200084D0200084D0200084D02000823
:100180004D0200084D02000800F002F800F03CF8B3
:100190000AA090E8000C82448344AAF10107DA45E2
:1001A00001D100F031F8AFF2090EBAE80F0013F0F8
:1001B000010F18BFFB1A43F0010318473446000033
:1001C00054460000103A24BF78C878C1FAD85207C4
:1001D00024BF30C830C144BF04680C6070470000C1
:1001E0000023002400250026103A28BF78C1FBD840
:1001F000520728BF30C148BF0B6070471FB504F0DD
:1002000002FA1FBD10B510BD00F04CF81146FFF703
:10021000F5FF02F03BFD00F06AF803B4FFF7F2FFD0
:1002200003BC00F06DF800000C48016841F4700157
:1002300001600B4880470B480047FEE7FEE7FEE7FA
:10024000FEE7FEE7FEE7FEE7FEE7FEE7FEE700006B
:1002500005480649064A074B7047000088ED00E054
:10026000890F0008890100083003002030A3002016
:10027000302300203023002070477047704710B5AE
:1002800000F008F8006810BD10B5044600F002F850
:10029000046010BD00487047D0020020004870473D
:1002A000D00200207546FFF7F9FFAE46050069460B
:1002B000534620F00700854618B020B5FFF7C8FF69
:1002C000BDE820404FF000064FF000074FF0000857
:1002D0004FF0000B21F00701AC46ACE8C009ACE8D8
:1002E000C009ACE8C009ACE8C0098D46704710B53C
:1002F0000446AFF300802046BDE81040FFF78DBFF5
:1003000001491820ABBEFEE726000200704700BF7F
:10031000FEE7000010B50649064800F029F8012064
:10032000054908700121034800F03CF810BD0000A9
:100330000088001028600240200000200246094B7F
:100340009A4201D2084801E00648103801F00053F3
:100350001BB1064B0B40C36002E0044B0B408360B3
:100360007047000010640240006002407D0F7D0F66
:100370000246094B9A4201D2084801E0064810386B
:1003800001F000531BB1064B0B40C36002E0044B6D
:100390000B40836070470000106402400060024020
:1003A0007D0F7D0F21B1026842F00102026003E07F
:1003B000026822F001020260704710B501F080036C
:1003C0004BB122B1436943F08003436103E04369C9
:1003D00023F08003436180290BD02AB1036801F028
:1003E0001E042343036004E0036801F01E04A343DA
:1003F000036010BD10B500220268134B1A40CC6890
:100400000B6823434C6923438C692343CC69234302
:100410000C6A23434C6A23438C6A23434C6B23436B
:100420008C6B23431A430260426922F00702D1E930
:100430000B3423431A4342610B6943604B6883606A
:100440008B68C36010BD00003F801CF07047000047
:1004500000B585B00121022000F03CFC0121880399
:1004600000F068FC00208DF810008DF812000220CA
:100470008DF81300C002039003A9134800F01EFB7F
:100480000C21012000F0DCFC4FF480500090002093
:100490008DF8040010208DF8050001208DF806006D
:1004A000684600F013F828208DF8080000208DF829
:1004B00009008DF80A0001208DF80B0002A800F059
:1004C0007BFB05B000BD0000000402400021234971
:1004D0008279002A3AD00A46126803689A430B468A
:1004E0001A600A1D126803689A430B1D1A6002798C
:1004F00011440A6803681A430A60184A08321268ED
:1005000003689A43154B08331A601A1D1268036872
:100510009A43124B0C331A604279102A0ED11A1FDB
:10052000126803681A430D4B08331A601A1D1268CB
:1005300003681A43094B0C331A600DE007494279EE
:1005400011440A6803681A430A6005E002791144FD
:100550000A6803689A430A6070470000003C014043
:10056000024901EB800191ED000A70474001002033
:1005700010B500200EE09FED0F0A0F4901EB80013E
:1005800081ED000A00210D4A42F820100C4A42F881
:100590002010401C0428EEDB4FF40061094800F0F5
:1005A00003FB052001F004FE4FF40061054800F054
:1005B000F9FA10BD00000000400100206001002099
:1005C00070010020000C024010B54FF40061064895
:1005D00000F0EAFA052001F0EBFD4FF4006102485B
:1005E00000F0E0FA10BD0000000C024010B500243D
:1005F000B8E0204600F056FA5C4941F8240008466D
:1006000050F824005A4951F82410401A00EE100AFC
:10061000B8EEC00A574800EB840080ED000A554848
:1006200000EB840090ED000ADFED530AB4EEE00A1F
:10063000F1EE10FA0EDD4F4800EB840090ED000A59
:10064000DFED4E0A30EE600A4A4800EB840080ED90
:10065000000A19E0474800EB840090ED000ADFED46
:10066000480AB4EEE00AF1EE10FA0DD2414800EB70
:10067000840090ED000ADFED410A30EE200A3D488B
:1006800000EB840080ED000A384850F82400384917
:1006900041F82400022C27D03A4800EB840090ED6A
:1006A000000AF1EE000A20EE200A374800EB840031
:1006B000D0ED000A20EE200A2E4800EB8400D0ED99
:1006C000000A9FED321A60EE810A80EE801A3048EF
:1006D00000EB840090ED000A31EE000A2C4800EB9C
:1006E000840080ED000A3CE0224800EB840090ED9D
:1006F000000AB5EEC00AF1EE10FA19D21D4800EB5F
:10070000840090ED000ADFED210A20EE200ADFEDE3
:10071000210A80EE201A1E4800EB840090ED000AAA
:1007200031EE000A1A4800EB840080ED000A18E060
:10073000104800EB840090ED000ADFED140A20EE73
:10074000200ADFED150A80EE201A114800EB840024
:1007500090ED000A31EE000A0D4800EB840080EDB8
:10076000000A641C042CFFF644AF10BD6001002099
:100770007001002050010020000000470000804769
:10078000000000C71C460008000000200000B44321
:1007900040010020B81EA1440A97A24410B592B0AF
:1007A00003AC0121084600F0A5FA0121022000F067
:1007B00091FA0121082000F08DFA0121102000F0AB
:1007C00089FA0C2200216C4800F0C0F90C220121AA
:1007D000694800F0BBF90C220421674800F0B6F923
:1007E0000C220521644800F0B1F90C22072162486F
:1007F00000F0ACF90C2208215F4800F0A7F90C22A8
:1008000009215D4800F0A2F90C220A215A4800F0A3
:100810009DF90C220E21584800F098F90C220F2166
:10082000554800F093F90C220721544800F08EF946
:100830000C220821514800F089F90C2209214F4867
:1008400000F084F90C220A214C4800F07FF90C22B8
:100850000B214A4800F07AF90C221146474800F073
:1008600075F90C220D21454800F070F90C220E217B
:10087000424800F06BF90C220F21404800F066F965
:100880000C2207213E4800F061F94CF2B370019050
:1008900002208DF8080003208DF8090000208DF853
:1008A0000A008DF80B0001A9334800F007F94FF654
:1008B0008070019001A9314800F000F9802001907A
:1008C00001A92F4800F0FAF80020206002206060A3
:1008D0000820A0601020E060002020616061A0611D
:1008E000E06120624FF4805060620020A062E0620C
:1008F00020630F20616B0860616B4860616B8860EA
:100900000020616BC860616B0861616B48614FF0EA
:100910000050616B886103A800F050F819484FF04F
:10092000204148600121002000F02EF84FF4C05013
:10093000019001208DF8080003208DF809000020A7
:100940008DF80A008DF80B0001A90B4800F0B6F8ED
:100950004FF40061084800F025F942F20C000190C4
:1009600000208DF808008DF80B0001A9024800F066
:10097000A5F812B010BD0000000C024000100240AB
:10098000000402400303012051B18200A2F1C042E1
:10099000126842F001038200A2F1C042136009E034
:1009A0008200A2F1C0421268034B1A408300A3F1F7
:1009B000C0431A6070470000FEFF0F00D0E901122B
:1009C0001143C268114302691143426911438269AC
:1009D0001143C2691143026A1143426A1143826A98
:1009E0001143C26A1143026B114302689200A2F1E3
:1009F000C0421160816808290BD101688900A1F10A
:100A0000C041096841F0400201688900A1F1C0417C
:100A10000A60416B0968426B526841EA0211426BFD
:100A2000926841EA0221426B928941EA0241426B9B
:100A3000128A41EA0251426B127D41EA0261426B25
:100A4000926911430268521C9200A2F1C0421160E7
:100A5000C16AB1F5804F1BD1816B0968826B526806
:100A600041EA0211826B926841EA0221826B128A8A
:100A700041EA0251826B127D41EA0261826B926906
:100A8000114302689200A2F1C042C2F8041107E0CB
:100A90006FF0704201688900A1F1C041C1F80421E2
:100AA0007047000001460020024B03EB4102108812
:100AB000704700002000006001807047F0B50A46D2
:100AC00000210023002400BF3DE0012505FA01F3C9
:100AD000156805EA03049C4234D105684F000326DB
:100AE000BE40B543056015794E00B54006683543F4
:100AF00005601579012D02D01579022D16D1856872
:100B00004F000326BE40B543856055794E00B54081
:100B1000866835438560456801268E40B54345604B
:100B2000456896798E40B6B235434560C5684F003A
:100B30000326BE40B543C560D5794E00B540C668B2
:100B40003543C560491C1029BFD3F0BDF0B5002363
:100B500000244D07ED0E02FA05F3CE1000F120053A
:100B600055F826504E07F70E0F26BE40B543CF105E
:100B700000F1200646F82750CE1000F1200555F868
:100B8000265045EA0304CE1000F1200545F8264022
:100B9000F0BD0246002013690B400BB1012000E0BC
:100BA00000207047418370470183704700BFFEE714
:100BB00000BFFEE77047000070B5002100230F2240
:100BC000C4781CB3174C246804F4E064C4F5E064F2
:100BD000C4F30721C1F10404E3B20A4144789C4004
:100BE000E1B28478144021430C07210E0E4C0578A5
:100BF0006155047804F01F050124AC4005786D119F
:100C0000AD0005F1E025C5F8004109E0047804F0E5
:100C10001F050124AC40054D0678761145F82640A5
:100C200070BD00000CED00E000E400E080E100E0B9
:100C300000B58BB00121084600F04CF801220221DA
:100C40002248FFF783FF0420099000208DF82A0036
:100C50008DF82B0002208DF8280003208DF8290044
:100C600009A91A48FFF72AFF0121084600F052F8A7
:100C7000C720ADF818000020ADF81A0042F2CF00EE
:100C800007900020ADF820008DF8220006A94FF053
:100C9000804000F015FA0121880700F0A9F97020C2
:100CA000ADF804000120ADF806000220ADF81000F8
:100CB00040F27520039001A9800700F0A5F90821F2
:100CC000C80600F0F1F90BB000BD000000000240C2
:100CD0007047000029B1064A12680243044B1A60AB
:100CE00004E0034A12688243014B1A607047000017
:100CF0003038024029B1064A12680243044B1A6098
:100D000004E0034A12688243014B1A6070470000F6
:100D10003838024029B1064A12680243044B1A606F
:100D200004E0034A12688243014B1A6070470000D6
:100D30004038024029B1064A12680243044B1A6047
:100D400004E0034A12688243014B1A6070470000B6
:100D500044380240F0B5002100220024022500267C
:100D60000223324F3F6807F00C0121B1042905D05E
:100D7000082937D105E02E4F076036E02D4F076078
:100D800033E02A4F3F1F3F68C7F38056274F3F1F6E
:100D90003F6807F03F036EB1264FB7FBF3F7DFF86C
:100DA0008CC0ACF1040CDCF800C0CCF3881C07FB51
:100DB0000CF40CE01E4FB7FBF3F7DFF870C0ACF19A
:100DC000040CDCF800C0CCF3881C07FB0CF4174FB4
:100DD0003F1F3F68C7F301477F1C7D00B4FBF5F759
:100DE000076002E0124F076000BF00BF0F4F3F686F
:100DF00007F0F0010909104F7A5C0768D740476097
:100E00000A4F3F6807F4E051890A0B4F7A5C476844
:100E1000D7408760054F3F6807F46041490B064F94
:100E20007A5C4768D740C760F0BD000008380240D0
:100E30000024F40000127A007000002070470000C7
:100E400030B500228B071C0F0F2303FA04F20B4B63
:100E50008C1053F824309343084C8D1044F82530FF
:100E600023468C1053F824308C07240F00FA04F426
:100E70002343024C8D1044F8253030BD0838014022
:100E80000CB50020019000903448006840F4803098
:100E90003249086000BF3148006800F4003000901B
:100EA0000198401C0190009818B90198B0F5A04F26
:100EB000F1D12A48006800F4003010B10120009000
:100EC00001E0002000900098012846D123484030DE
:100ED000006840F080502149403108602048006897
:100EE00040F440401E4908601C48083000681B4917
:100EF000083108600846006840F400400860084671
:100F0000006840F4A05008601648091F0860081FD8
:100F1000006840F08070091F086000BF0F4800683B
:100F200000F000700028F9D040F205700E4908600A
:100F30000A480830006820F00300084908310860BA
:100F40000846006840F00200086000BF034808300F
:100F5000006800F00C000828F8D10CBD00380240F1
:100F60000070004008544007003C02400120044942
:100F7000086004480068401C02490860704700008F
:100F80001C0000201800002010B51548006840F42F
:100F90007000134908601348006840F001001149CF
:100FA000086000200F49083108600E4800680E49AB
:100FB00008400C4908600D48091D0860081F0068BA
:100FC00020F48020091F0860002006490C310860C9
:100FD000FFF756FF4FF0006001498039086010BDEF
:100FE00088ED00E000380240FFFFF6FE10300024DC
:100FF00021B1028842F00102028004E002884FF62B
:10100000FE731A400280704770B50024002200234E
:10101000058C4FF6FF6635400584028C8388848BEF
:101020004FF68F752C404FF6FC752C400D882C43E5
:101030004FF6FF552A408D894FF6FF7606EA0525C3
:101040002A434D8806EA05252A43154DA84202D0B9
:10105000144DA8421DD14FF2FF752A40CD894FF69D
:10106000FF7606EA05252A434FF6FF352A408D888C
:1010700006EA05252A434EF6FF752B404DF6FF750F
:101080002B400D8A06EA05152B434D8A06EA051505
:101090002B43838084838D68C563028470BD000008
:1010A00000000140000401400A460021818B4FF6F8
:1010B000F7731940114381837047C1637047000083
:1010C00000220288184B98420ED0184B98420BD041
:1010D000B0F1804F08D0164B984205D0154B98427E
:1010E00002D0154B984204D14FF68F731A404B88AB
:1010F0001A43124B984207D0114B984204D04FF636
:10110000FF431A400B891A4302804B68C3620B8865
:101110000385054B984202D0044B984201D18B7A4B
:1011200003860123838270470000014000040140D0
:101130000004004000080040000C00400010004087
:101140000014004021B1828942F40052828104E0FF
:1011500082894DF6FF731A40828170471AB1838AE3
:101160000B43838202E0838A8B43838270470000B3
:101170002DE9FF4705460E460024A14600BFA046C4
:10118000B08900B100BF2C8A24F44054F088044395
:101190002C82AC8941F20C608443B08831890843C9
:1011A000718908430443AC81AC8A24F44074B0894B
:1011B0000443AC826846FFF7CDFD2048854202D04B
:1011C0001F48854202D1DDF80C9001E0DDF808905F
:1011D000A88900F4004040B109EBC90000EB0910F8
:1011E00031684900B0FBF1F707E009EBC90000EBFB
:1011F000091031688900B0FBF1F76420B7FBF0F00B
:1012000004012009642101FB1078A88900F4004042
:1012100040B1322000EBC800B0FBF1F000F0070055
:10122000044308E0322000EB08106421B0FBF1F029
:1012300000F00F0004432C81BDE8FF87001001403F
:101240000014014000BFFEE703B40198410000987C
:1012500050EAC12018BF04204A0D18BF40F0010019
:1012600040F2FF72B2EB515F08BF40F0020001286C
:1012700008BF052002B0704770B59B482DED020BEA
:101280002DED068B079D25F00044A04218DC974801
:10129000844202DC0AD1069840B19DED060BBDECFC
:1012A000068B02B0BDE8704000F046BF002DCCBFF9
:1012B0009FED8F0B9FED900BBDEC068B02B070BDC8
:1012C0008F48A04215DD8F48A042D8BF4FF0FF34B1
:1012D00058DD9DED060B51EC100BFFF7B5FF042810
:1012E00008BF00F04DFF9DED060BBDEC068B02B074
:1012F00070BD9DED060B51EC100B00F07DFFCDE9AC
:10130000060181489FED828BA0423CDD8248A042CD
:101310001FDD00249FED82AB9DED060B53EC1A2BD5
:1013200051EC100B02F02AFB9DED060B41EC190B62
:1013300053EC1A2B51EC100B02F0FEFD53EC182B62
:1013400003F006F853EC192B02F0CCFBCDE90601B3
:1013500049E09DED060B012453EC182B51EC100BCA
:1013600002F00CFB9DED060B41EC190B53EC182B16
:1013700051EC100B02F0ECFF53EC192B02F0B2FB16
:10138000CDE906012FE06848A0421FDD02249FED51
:10139000689B9DED060B53EC192B51EC100B02F0E2
:1013A000CBFD53EC182B02F0E9FA9DED060B41EC56
:1013B000180B53EC192B51EC100B02F0C9FF53EC36
:1013C000182B02F08FFBCDE906010CE09DED060B1A
:1013D000032453EC102B9FED580B51EC100B02F033
:1013E00081FBCDE906019DED060B53EC102B51EC72
:1013F000100B02F0A1FD41EC180B53EC182B02F07E
:101400009BFD41EC190B4E480621B0EE490AF0EE67
:10141000690A784400F07CFD53EC182B51EC100B5A
:1014200002F08AFD41EC180B4648B0EE490AF0EE96
:10143000690A0521784400F06BFD53EC192B51EC3F
:10144000100B02F079FD41EC100B51EC180B53EC32
:10145000102B002C0EDA02F091FA9DED061B53ECD6
:10146000112B02F069FD9DED061B53EC112B02F0D0
:1014700097FE35E002F082FA9DED061B53EC112B2E
:1014800002F05AFD41EC100B2F48784400EBC400E9
:1014900090ED001B51EC100B53EC112B02F058FF98
:1014A0009DED061B53EC112B02F052FF41EC100B8B
:1014B0002648784400EBC40090ED001B51EC100B63
:1014C00053EC112B02F06CFE41EC100B002DA2BF6F
:1014D000BDEC068B02B070BD51EC100B02F010FA9F
:1014E00041EC100B01E70000000010440000F07F09
:1014F000182D4454FB21F93F182D4454FB21F9BF0A
:101500000000DC3F0000203E0000F33F0000000030
:10151000000000000000F03F0000E63F0000000077
:1015200000000000000000400080034000000000B8
:10153000000000000000F83F000000000000F0BFC5
:101540008232000038320000C23100007A310000DF
:1015500070B56B4E2DED040B2DED028B82B0DDF8D6
:101560001CC0DDE905235C422CF000411C4341EA2C
:10157000D474049D22F00040B44205D86C422C4340
:1015800040EAD474B4420BD99DED061B9DED040BCB
:1015900002B0BDEC028B04B0BDE8704000F0D6BDD7
:1015A000ACF14054A4F17F641C430BD0022404EA44
:1015B000AC7444EAD27405439FED538B9FED542BDA
:1015C00007D015E09DED040B51EC100B00F0E8FD89
:1015D00042E0002C11BF012C9DED040B02B0BDECCC
:1015E000028B04BF04B070BD022C38D0032C3BD05A
:1015F0000B439FED491B9FED4A0B0AD0B14218D116
:10160000B04209D121F0804120F08040079105903F
:101610000FE0002A15DA10E0434B7B44002C08BF92
:1016200093ED000B0DD0012C10D0022C17D0032C01
:101630001AD0B0421DD1002A03DAB0EE410AF0EE12
:10164000610A02B0BDEC028B04B070BD93ED000BDB
:1016500051EC100B02F054F941EC100BF1E7B0EE35
:10166000480AF0EE680AECE7B0EE420AF0EE620AD1
:10167000E7E7401A00153C28C8BF8DED000B19DCC8
:10168000BCF1000FBEBF10F13C0F9FED290B8DED9B
:10169000000B0FDB9DED060B53EC102B9DED040BA7
:1016A00051EC100B02F01EFA00F0A6FD00F078FDE0
:1016B000CDE90001002C08BF9DED000BC1D0012C2D
:1016C00010D0022C9FED1C0B53EC102B9DED000B4A
:1016D00051EC100B0DD002F03BFE53EC182B02F036
:1016E00037FEB9E7019880F0004001909DED000BB6
:1016F000A7E702F02DFE53EC182B02F051FDABE7EB
:101700000000F07F00000000182D4454FB21094028
:10171000182D4454FB2109C0182D4454FB21F9BF56
:10172000182D4454FB21F93FDA300000000000007E
:101730000000000000000000075C143326A6A13C56
:1017400010B52F499FED2C1B2DED020B84B0059891
:1017500020F000408842D8BF9DED040B2DDD2949C3
:10176000884209D1049840B94FF00100FEF78CFD82
:1017700000F0F6FC06B010BD05DB9DED040B00F09B
:10178000DBFC06B010BD68469DED040B00F0ECF8E4
:1017900010F0030004BF9DED021B9DED000B0CD06B
:1017A00001280ED09DED021B9DED000B022817D0E5
:1017B000012000F029FC06B010BD00F0F1FA06B0DF
:1017C00010BD9DED021B9DED000B012000F01CFCE7
:1017D00051EC100B02F094F806B041EC100B10BD68
:1017E00000F0DEFA51EC100B02F08AF806B041EC82
:1017F000100B10BD00000000000000000000000001
:10180000FB21E93F0000F07F2DED020B019820F055
:10181000004001909DED000B02B0704700000000F9
:1018200010B52F499FED2C1B2DED020B84B00598B0
:1018300020F000408842DCBF00209DED040B32DD2B
:101840002849884209D1049840B94FF00100FEF7B9
:101850001BFD00F085FC06B010BD05DB9DED040B03
:1018600000F06AFC06B010BD68469DED040B00F068
:101870007BF810F0030011D0012818D09DED021B59
:101880009DED000B02281AD000F08AFA51EC100BE3
:1018900002F036F806B041EC100B10BD9DED021BB6
:1018A0009DED000B012000F0AFFB06B010BD9DEDDB
:1018B000021B9DED000B00F073FA06B010BD012075
:1018C00000F0A2FB51EC100B02F01AF806B041EC4C
:1018D000100B10BD00000000000000000000000020
:1018E000FB21E93F0000F07F00B52DED048BB0EE49
:1018F000409AF0EE609A83B051EC190B02F05CFC58
:1019000041EC180B18EE100A18EE901A8DED008BB2
:10191000002818BF0120084320F00040C0F17F607C
:1019200000F1E040C00F14D019EE101A19EE900A21
:101930008DED009B002918BF0121084320F00040D5
:10194000C0F17F6000F1E040C00F04BF0120FEF74E
:101950009BFCB0EE480A03B0F0EE680ABDEC048BC5
:1019600000BD0000000000002DE9F14F04462DED00
:10197000020B2DED088B8AB09FEDE70B80ED020B7B
:10198000139EE74826F0004585420ADC9DED120BC8
:10199000002084ED000B0AB0BDEC088B03B0BDE85D
:1019A000F08FE0489FEDE0AB9FEDE1BBA84247DD43
:1019B000E14F9FEDE39B9FEDE48B9DED120B53EC0C
:1019C0001A2B51EC100B002E1CDD02F0C1FC41EC77
:1019D000100BBD4208D053EC1B2B51EC100B02F046
:1019E000B7FCC4E900010BE053EC192B51EC100BD0
:1019F00002F0AEFC53EC182B02F0AAFCC4E9000183
:101A00000120C8E701F0BAFF41EC100BBD4208D03D
:101A100053EC1B2B51EC100B01F0B0FFC4E900019B
:101A20000BE053EC192B51EC100B01F0A7FF53EC1A
:101A3000182B01F0A3FFC4E900014FF0FF30AAE723
:101A4000C348A84279DB9DED120B51EC100B00F05E
:101A5000D3FB41EC180B9FEDC00B53EC102B02F0A5
:101A60006BFA9FEDBF1B53EC112B01F087FF02F0C7
:101A7000CDF9074602F0F9F941EC190B53EC1A2B9A
:101A800002F05AFA53EC182B02F08AFB41EC180BC7
:101A900053EC1B2B51EC190B02F04EFADFF8C8A2E5
:101AA00041EC100B4FEA15580125FA4453EC102B6A
:101AB00051EC180B02F04CFC032DC4E900013DD0A1
:101AC000C1F30A5005EB4511A8EB00001139814222
:101AD00034DA0AEB051BB0EE48AA9BED000BF0EEE2
:101AE00068AA53EC102B51EC190B02F025FA41ECCB
:101AF0001B0B51EC1A0B53EC1B2B02F029FC41EC95
:101B0000180B51EC1A0B53EC182B02F021FC53EC80
:101B10001B2B02F01DFC9BED020B41EC1A0B53EC4E
:101B2000102B51EC190B02F007FA53EC1A2B02F0B0
:101B30000FFC41EC100B6D1CB8E70EE0002EA8BFA7
:101B40003846BFF628AF94ED000B51EC100B01F0B6
:101B5000D7FEC4E9000178421DE7C6F3130040F444
:101B6000801EC6F30A50A0F2F530471100F01F05A1
:101B7000C5F12000DDF848B00890002006900790DD
:101B80000520EC467949002D07EB0002794408BF97
:101B900051F8221009D051F8223001EB8201AB40FC
:101BA0004A68089922FA01F11943A1FB0E26A1FB0C
:101BB0000B131A449A4234BF0123002303EB060897
:101BC0000CEB8003D3E901A60E448E4234BF012101
:101BD000002192448A4411B1924502D903E0924512
:101BE00001D2012100E00021C3E901A641444CF8E3
:101BF0002010011EA0F10100C4DC029800F1005089
:101C0000850F0298DDE903678000DDF8148002F09B
:101C10002CF941EC1A0B304602F03EF99FED541BB3
:101C200053EC112B02F088F941EC1B0B384602F003
:101C300033F99FED511B53EC112B02F07DF941EC70
:101C4000180B404602F028F99FED4D1B53EC112B69
:101C500002F072F941EC190B51EC180B53EC192BF3
:101C600001F08CFE53EC1B2B01F088FE53EC1A2B79
:101C700001F084FECDE90801002008909DED080BDD
:101C800053EC1A2B51EC100B02F062FB53EC1B2BA4
:101C900002F05EFB53EC182B02F05AFB53EC192BAD
:101CA00002F07EFA9FED381B53EC112B02F044F941
:101CB0009FED370B41EC180B53EC102B9DED080BEF
:101CC00051EC100B02F038F953EC182B01F056FED2
:101CD0009FED310B41EC180B53EC102B9DED080BD5
:101CE00051EC100B02F028F953EC182B01F046FED2
:101CF00041EC100B139810F0004F06D06D4251ECE0
:101D0000100B01F0FDFD41EC100B284684ED000B9B
:101D100041E600000000000000000000000000009C
:101D2000FB21E93F7CD9024000004054FB21F93FF0
:101D30003163621A61B4D03DFB21F93F000000001D
:101D40000000601A61B4D03D7370032E8A19A33B62
:101D5000FB2139410000000083C8C96D305FE43FBA
:101D6000000000000000E03F522C0000A02B00000B
:101D7000000000000000103E000000000000103CC9
:101D8000000000000000103A182D4454FB21F93DDA
:101D90003326A611460B113C00000054FB21F93DEF
:101DA00010B52DED040B2DED088B82B0B0EE419AED
:101DB000F0EE619A0B9820F000449FED4BABB4F12C
:101DC000795F11DA9DED0A0B51EC100B02F01EF851
:101DD000002801BFB0EE4A0AF0EE6A0A02B0BDEC7C
:101DE000088B04BF04B010BD9DED0A0B53EC102B03
:101DF00051EC100B02F0A0F841EC180B3C48062106
:101E0000B0EE480AF0EE680A784400F081F853EC2E
:101E1000182B51EC100B02F08FF89DED0A0B41ECE2
:101E20001B0B53EC192B51EC100B02F085F841EC15
:101E3000190B53EC1B2B51EC180B02F07DF853ECF3
:101E4000192B02F085FA9FED2C0B41EC190B53EC8A
:101E5000102B51EC180B02F06FF841EC100B2848D6
:101E6000844210DA53EC192B51EC100B02F070FA8B
:101E700053EC1A2B02F094F941EC100B02B0BDECBC
:101E8000088B04B010BD1F48A042BCBF9FED1E1BB5
:101E90008DED001B06DBA4F50010019000200090E2
:101EA0009DED001B51EC100B53EC112B02F050FA7E
:101EB0009DED000B41EC180B53EC102B51EC1A0B61
:101EC00002F046FA41EC1A0B53EC192B51EC180BAB
:101ED00002F03EFA53EC1A2B02F062F941EC100BBF
:101EE000CCE7000000000000000000000000F03F10
:101EF000BC28000000000000000000000000E03FDF
:101F00003333D33F0000E93F000000000000D23F20
:101F100070B504462DED028B4D1E00EBC500B0EEF2
:101F2000408AF0EE608A90ED000B35F0060017D085
:101F300053EC182B51EC100B01F0FEFF41EC100B91
:101F40006D1E04EBC50090ED001B51EC100B53EC23
:101F5000112B01F013FD41EC100B35F00600E7D119
:101F6000022D36D0042D1CD0062D1CBFBDEC028BDB
:101F700070BD53EC182B51EC100B01F0DDFF94ED0C
:101F80000A1B53EC112B01F0F9FC53EC182B01F058
:101F9000D3FF94ED081B53EC112B01F0EFFC41EC47
:101FA000100B53EC182B51EC100B01F0C5FF94ED06
:101FB000061B53EC112B01F0E1FC53EC182B01F044
:101FC000BBFF94ED040B53EC102B01F0D7FC41EC5C
:101FD000100B53EC182B51EC100B01F0ADFF94EDEE
:101FE000021B53EC112B01F0C9FC53EC182B01F030
:101FF000A3FF94ED001B53EC112B01F0BFFCBDECD3
:10200000028B41EC100B70BD31B504462DED040B75
:102010002DED0A8BB0EE41BAF0EE61BA0B989DED52
:102020000A0B20F00040B0F1795F0DDA51EC100B93
:10203000FFF70AF9042808BF00F0A2F89DED0A0B8B
:10204000BDEC0A8B05B030BD53EC102B51EC100BDE
:1020500001F072FF41EC180B9DED0A0B53EC182BAD
:1020600051EC100B01F068FF41EC190B2C48B0EE5D
:10207000480AF0EE680A05217844FFF749FF9FED12
:102080002ACBB0EE40AAF0EE60AA9CB353EC1C2B16
:1020900051EC190B01F050FF41EC1C0B53EC1A2BC7
:1020A00051EC190B01F048FF9FED210B41EC190B8E
:1020B00053EC102B51EC1B0B01F03EFF53EC192B92
:1020C00002F046F953EC182B01F036FF53EC1B2BB2
:1020D00002F03EF953EC1C2B02F03AF99DED0A1B7D
:1020E00053EC112B02F05CF8BDEC0A8B05B041EC0F
:1020F000100B30BDFFE753EC1A2B51EC180B01F01D
:102100001BFF53EC1C2B01F039FC53EC192B01F095
:1021100013FF9DED0A1B53EC112B01F02FFCE3E79D
:102120004C27000000000000495555555555C5BFC6
:10213000000000000000E03F10B553EC102B51EC04
:10214000100B01F01BFC41EC100B10BD10B553EC53
:10215000112B51EC100B01F011FC41EC100B10BDD8
:102160009FED050B10B553EC102B51EC100B01F04B
:10217000B9FC41EC100B10BD000000000000000095
:102180009FED050B10B553EC102B51EC100B01F02B
:10219000D3FE41EC100B10BD000000000000001049
:1021A00010B541EC100BFFF767F851EC100B10BDA8
:1021B00010B5044601211020FEF7ACFD42F2CF001D
:1021C0000C490885601EC862002048620120888290
:1021D000002008820120088000BF0648008A0028ED
:1021E000FBD000200349088000211020FEF792FD5B
:1021F00010BD00000010004082B0CDE9000121F0C8
:10220000004001909DED000B02B051EC100B7047A7
:1022100070B52DED088B0446B0EE408AF0EE608A72
:10222000B0EE419A022C00D100BFB4EE688AF1EE04
:1022300010FA2BD038EEC80AC0EE090A10EE905AF8
:10224000284602F06FF941EC1B0B9FED2B0B53EC72
:10225000102B01F071FE41EC1A0B01F05DFB2849D7
:1022600041F8240019EE100A02F05CF941EC1B0B56
:102270009FED240B53EC102B01F034FC41EC1A0BB6
:1022800001F04AFB214941F824000DE09FED200AAE
:102290001B4800EB840080ED000A9FED1D0A1B48DF
:1022A00000EB840080ED000A022C21D1F4EEC88AF4
:1022B000F1EE10FA0ED2124800EB840090ED000A05
:1022C000DFED140A20EE200A0D4800EB840080EDBB
:1022D000000A0DE00A4800EB840090ED000ADFEDF3
:1022E0000E0A20EE200A064800EB840080ED000A6A
:1022F000BDEC088B70BD0000555555555555F53F43
:10230000000100200000000000001040100100202B
:1023100000000000F2D27D3F3712803F10B52DED56
:10232000068BF0EE408AB0EE609AF0EE419AB0EE85
:10233000618AF0EE481AB0EE691AF0EE490AB0EE82
:10234000680A00F0CFF99FED070AB0EE40AA00241A
:102350004FF4C8710F20B0EE480A01F03BFABDEC13
:10236000068B10BD0000000010B52DED048B01F0B0
:10237000E1F814206C49C87000206C49C8700BE06B
:102380006A4AD178684AD078032201F01FF901F037
:10239000A1F80F20FFF70CFF4FF400516448FEF73F
:1023A000F8FB0128ECD1FEF7E3F89FED620A6248E2
:1023B00080ED030AB7EE001ADFED5E0A9FED5D0ABD
:1023C0000020FFF725FFB7EE001ADFED5A0A9FED58
:1023D000590A0120FFF71CFFB7EE001ADFED550A7E
:1023E0009FED540A0220FFF713FFB7EE001ADFED4E
:1023F000530A9FED500A0320FFF70AFF64210F20C4
:10240000B7EE000A01F0E6F90520474908700220FE
:102410004870002045490870487010E0002407E02B
:10242000424A115D404A105D224601F0CFF8641C1B
:10243000022CF5DB01F04EF80F20FFF7B9FE082162
:102440003B48FEF7A6FB0128E8D1374988700020F9
:10245000364988700BE0354A9178334A90780222E9
:1024600001F0B4F801F036F80F20FFF7A1FE0421C7
:102470002F48FEF78EFB0128EDD1FEF7A5F80020CE
:1024800007E000212E4A42F820102E4A42F8201080
:10249000401C0428F5DB002012E09FED260A2A49A3
:1024A00001EB800181ED000A9FED220A224901EB38
:1024B000800181ED000A0021244A42F82010401CCE
:1024C0000328EADB42F21070FFF772FE01F042F8D7
:1024D0009FED180A184880ED020A9FED160A1A4867
:1024E00080ED020A9FED130A134880ED010A9FED6B
:1024F000110A154880ED010A90ED000A10EE101A3D
:10250000084602F00FF841EC190B9FED110B53EC4C
:10251000102B01F011FD41EC180B01F0FDF90649FB
:102520000860BDEC048B10BD3C0000204000002082
:10253000000C024000000000800000200000B443B6
:1025400060010020700100204001002020010020D7
:10255000666666666666204000B597B00121022077
:10256000FEF7B8FB01218804FEF7D4FB01214805E2
:10257000FEF7B0FB07220A215548FEF7E7FA0722CB
:102580000B215348FEF7E2FA4FF4806015900220C9
:102590008DF8580000208DF85A0001208DF85B005E
:1025A00002208DF8590015A94948FEF787FA4FF423
:1025B0000060159002208DF8580015A94448FEF7D8
:1025C0007DFA4FF4E13011900020ADF84800ADF8ED
:1025D0004A00ADF84C00ADF850000C20ADF84E00AC
:1025E00011A93C48FEF7C4FD01213A48FEF7AAFDB7
:1025F000012280213748FEF7B1FD012240213548F4
:10260000FEF7ACFD4FF0006002903248001D0390D1
:102610003148049000200590152006900020079076
:102620004FF480600890002009900A900B904FF4BE
:1026300000300C9000200D9001200E9000200F9093
:10264000109002A92548FDF7D5FE01212348FDF78A
:10265000A9FE0C208DF8040000208DF805008DF8EF
:10266000060001208DF8070001A8FEF7A5FA012257
:1026700010211A48FDF7A1FE4FF0006002901548A6
:10268000001D0390164804904020059001200690FC
:10269000002007904FF480600890002009900A9075
:1026A0000B904FF400300C9000200D9001200E9004
:1026B00000200F90109002A908483030FDF79AFED4
:1026C000012106483030FDF76DFE17B000BD000057
:1026D0000004024000480040B80200202860024088
:1026E0005800002030B52DED108B8FB0B0EE409A21
:1026F000F0EE608AF0EE419AF0EE61AA29EE090A46
:1027000008EEA80ADFEDFE0A30EE600ADFEDFD0AF2
:1027100030EE600ADFEDFC0A80EE201AB0EE41AA2E
:10272000B7EE000A0AEE4A0A10EE101A084601F047
:10273000F9FE41EC1D0BB0EE4D0AF0EE6D0AFFF70D
:10274000D3F8B0EE40CAF0EE60CA51EC1C0B01F0B9
:10275000E3F804461AEE100A01F0E4FE41EC1C0B0B
:10276000204601F0DFFE41EC1D0BB0EE4C1AF0EEFE
:102770006C1AB0EE4D0AF0EE6D0AFEF7E9FEB0EE0F
:1027800040EAF0EE60EA51EC1E0B01F0C5F808EEED
:10279000100A18EE100A01F0C5FE41EC1D0BB0EE58
:1027A0004D0AF0EE6D0AFEF7CBFFB0EE40CAF0EE38
:1027B00060CA9FEDD60B53EC102B51EC1C0B01F0B3
:1027C000BBFB41EC1E0B9FEDD30B53EC102B01F028
:1027D000D5F841EC1F0B18EE100A01F0A3FE41ECF6
:1027E0001C0BB0EE4C0AF0EE6C0AFFF719F8B0EED5
:1027F00040DAF0EE60DA9FEDC50B53EC102B51EC94
:102800001D0B01F099FBB0EE4F1AF0EE6F1ACDE9F7
:1028100000019DED000BFEF79BFE8DED040B19EE04
:10282000100A01F07FFE41EC1C0B18EE900A01F03B
:1028300079FE41EC1D0BB0EE4C1AF0EE6C1AB0EEC6
:102840004D0AF0EE6D0AFEF783FE8DED020B9DED55
:10285000040B53EC102B9DED020B51EC100B01F00F
:1028600077FD9FEDAE0B53EC102BCDE906019DEDEE
:10287000060B51EC100B01F05FFB9FEDAA0B53EC24
:10288000102BCDE908019DED080B51EC100B01F068
:1028900029F99FEDA60B53EC102BCDE90A019DED14
:1028A0000A0B51EC100B01F047FBCDE90C019DED3B
:1028B0000C0B51EC100B01F02FF80BEE100AB1EEDF
:1028C000480AB0EE408A18EE100A01F02BFE41ECE7
:1028D0001D0BB0EE4D0AF0EE6D0AFEF731FFB0EEC3
:1028E00040EAF0EE60EA9FED890B53EC102B51ECBF
:1028F0001E0B01F021FB41EC1C0B9FED860B53ECF2
:10290000102B01F03BF841EC1F0B18EE100A01F000
:1029100009FE41EC1D0BB0EE4D0AF0EE6D0AFEF71C
:102920007FFFB0EE40CAF0EE60CA9FED780B53EC2B
:10293000102B51EC1C0B01F0FFFAB0EE4F1AF0EE29
:102940006F1ACDE900019DED000BFEF701FE8DED44
:10295000040B19EE100A01F0E5FD41EC1C0B18EE1A
:10296000900A01F0DFFD41EC1D0BB0EE4C1AF0EEC9
:102970006C1AB0EE4D0AF0EE6D0AFEF7E9FD8DED32
:10298000020B9DED040B53EC102B9DED020B51EC53
:10299000100B01F0DDFC9FED610B53EC102BCDE92A
:1029A00006019DED060B51EC100B01F0C5FA9FEDF1
:1029B0005D0B53EC102BCDE908019DED080B51EC9C
:1029C000100B01F08FF89FED590B53EC102BCDE954
:1029D0000A019DED0A0B51EC100B01F0ADFACDE9A7
:1029E0000C019DED0C0B51EC100B00F095FF0BEE64
:1029F000900A504890ED000A3BEEC00A10EE101A03
:102A0000084601F08FFD41EC1C0BB0EE4C0AF0EED5
:102A10006C0AFEF7F9FEB0EE40DAF0EE60DA4548F7
:102A200090ED000A3BEE400A10EE101A084601F045
:102A300079FD41EC1C0BB0EE4C0AF0EE6C0AFEF78F
:102A4000E3FEB0EE40EAF0EE60EA53EC1D2B51ECF1
:102A50001E0B01F07DFC41EC1F0B9FED370B53EC7F
:102A6000102B01F067FB0DD89FED350A28EE000A08
:102A7000DFED340A80EE201A334880ED011AC0EDF4
:102A800000BA0EE0B1EE480ADFED2D0A20EE200A72
:102A9000DFED2C0A80EE201A2B4880ED011A80ED24
:102AA00000BA2948D0ED000A9FED281A80EE810A6D
:102AB000DFED270AB4EEE00AF1EE10FA4AD890ED05
:102AC000000ADFED220A80EE201A90ED010A31EEB5
:102AD000000A30EE290A10EE105A284601F022FDB5
:102AE00041EC1D0B9FED0D0B53EC102B01F058FB2F
:102AF00041EC1C0B00F010FF1349886066E00000F9
:102B00000080DC430020D243004057440000000016
:102B1000008034400000000000003540000000004C
:102B20000080664000000060FB2109406666666622
:102B300066662040800000200000000000000000C9
:102B400000003443DB0F4940900000203333034141
:102B50000000B44219EE900A01F0E4FC41EC1C0BB9
:102B6000464890ED010A10EE101A084601F0DAFC12
:102B7000CDE90A01414890ED000A5FED0C0A80EEB4
:102B8000201A11EE105A284601F0CCFC41EC1D0B26
:102B90001FED1E0B53EC102B01F002FB41EC1E0B42
:102BA0009DED0A0B53EC102B01F0D2FB41EC1F0BF7
:102BB00053EC1C2B01F0CCFBCDE90C019DED0C0B73
:102BC00051EC100B00F0A8FE2C4988602B4890EDCA
:102BD000020A10EE101A084601F0A4FC41EC1C0B8E
:102BE0001FED320B53EC102B01F0A4FA15D2234841
:102BF00090ED020A10EE101A084601F093FC41EC29
:102C00001D0B9FED1F0B53EC102B01F0A1FB41ECB2
:102C10001C0B00F081FE19498860184890ED001ADD
:102C2000F0EE410A184890ED001AB0EE410AB0EEFD
:102C30006A1A0020FFF7ECFA104890ED011AF0EE46
:102C4000410A114890ED011AB0EE410AB0EE6A1A3D
:102C50000120FFF7DDFA094890ED021AF0EE410A73
:102C6000094890ED021AB0EE410AB0EE6A1A02204D
:102C7000FFF7CEFA0FB0BDEC108B30BD90000020F6
:102C80000000000000807640800000202DED0C8BBD
:102C9000ED4800684FF47A72B0FBF2F1481EB0F1D3
:102CA000807F00D31BE0481E4FF0E0225061501798
:102CB0000F22002804DB13071C0EE44B1C5406E013
:102CC00013071D0EE24B00F00F04241F1D5500BF1B
:102CD00000204FF0E02290610720106100BFFFF755
:102CE0003BFCFDF75BFDFDF7B3FBFDF7A1FF42F2F7
:102CF0001070FFF75DFA00214FF08040FEF7DDF91C
:102D00000020D4490870FDF733FC002410E00020B7
:102D1000D1490855D14908550A46115DCE4A105D82
:102D2000224600F053FC0020CD4941F82400641CE9
:102D3000042CECDB00F0CEFB84E1C64800780028D0
:102D40007AD0C8480078672879D0682804D06F28DE
:102D500074D0742811D111E0FFF706FB40F29B31CB
:102D60004FF08040FEF7A9F942F21070FFF720FA09
:102D700000214FF08040FEF7A0F94BE100200AE06F
:102D8000B94901EB800191ED000AB84901EB8001DE
:102D900081ED000A401C0428F2DB002045E000EB36
:102DA0008001C91CAF4A515C3039642211FB02F228
:102DB00000EB8001091DAB4B595C303901EB8101FF
:102DC00002EB410200EB8001491D595C303911448E
:102DD000A74A116000EB8001891C1A46515C30291A
:102DE00011D1A24901EB8001D1ED000AA04991ED7A
:102DF000000AB8EEC00A30EE800A9E4901EB80015D
:102E000081ED000A10E0994901EB8001D1ED000A43
:102E1000974991ED000AB8EEC00A30EEC00A954914
:102E200001EB800181ED000A401C0428B7DBB7EEFE
:102E3000000A00F0E3FBEDE0F0E000E0E4E08A48A7
:102E400090ED000A10EE101A084601F06BFB41EC01
:102E5000190B9FED890B53EC102B01F06DF841EC31
:102E6000180B00F059FD8149086001200AE07E49F5
:102E700001EB800191ED000A7C4901EB800181EDBD
:102E8000000A401C0428F2DB76498979A1F1300060
:102E900000F0EBFF9FED7A0B53EC102B01F04CF898
:102EA00041EC190B6F494979A1F1300000F0DDFFC9
:102EB0009FED750B53EC102B01F03EF841EC1B0B12
:102EC000684909793039674AD278303A02EB820290
:102ED00001EB420000F0C9FF53EC1B2B00F04EFD4C
:102EE00053EC192B00F04AFD00F016FD684908600C
:102EF0005C49097BA1F1300000F0B7FF9FED600B4A
:102F000053EC102B01F018F841EC1A0B5549C97A13
:102F1000A1F1300000F0A9FF9FED5B0B53EC102BEB
:102F200001F00AF841EC1B0B4E49897A30394D4AC1
:102F3000527A303A02EB820201EB420000F095FF38
:102F400053EC1B2B00F01AFD53EC1A2B00F016FD6E
:102F500000F0E2FC4F4908604249897CA1F1300051
:102F600000F083FF9FED480B53EC102B00F0E4FFC3
:102F700041EC190B3B49C97B3039642211FB02F249
:102F80003849097C303901EB810102EB41023549B6
:102F9000497C3039501800F068FF53EC192B00F0D1
:102FA000EDFC00F0B9FC3C4908602E4880783128DF
:102FB00006D1374890ED000AB1EE400A80ED000AD4
:102FC0002848007A312806D1324890ED000AB1EE47
:102FD000400A80ED000A2348807B312806D12E4824
:102FE00090ED000AB1EE400A80ED000AF0EE001A02
:102FF000294890ED001A2748D0ED000A244890EDAA
:10300000000AFFF78BF905E040F275218807FEF70B
:1030100054F800BF00BF00200E4908704F201F4920
:1030200008704FF0C0511E48FDF788F901201C4977
:103030005839C86501211A48FDF7B4F94FF4FA7000
:10304000FFF7B6F879E600005C00002000E400E03D
:1030500018ED00E0200000203C000020400000208F
:1030600020010020B8020020400100208000002044
:103070005400002090000020666666666666204068
:103080007B14AE47E17A843F9A9999999999B93F0F
:1030900030000020340000203800002058000020BC
:1030A0005860024070B52DED0E8B0446F0EE408A5C
:1030B000B0EE609AD94800EB840090ED000AB5EEBE
:1030C000C00AF1EE10FA05D10020D5490855D549BE
:1030D0000855A0E119EE100A01F024FA41EC1C0B8E
:1030E0009FEDD10B53EC102B01F032F941EC1A0B90
:1030F00018EE900A01F016FA41EC1B0B53EC1A2B58
:1031000000F048FE01D1002000BFC94800EB840058
:1031100090ED000AB4EEE80AF1EE10FA3CDBB0EEF6
:10312000000A28EE800A10EE101A084601F0FAF99B
:1031300041EC1E0B9FEDBF0B53EC102B01F008F977
:1031400041EC1C0BB54800EB840090ED000AB84838
:1031500000EB8400D0ED000AB0EE001A60EE810AA8
:1031600080EE201A11EE105A284601F0DBF941ECEE
:103170001D0B53EC1C2B00F0DFFE41EC1B0B9FEDF5
:10318000AD0B53EC102B00F0D7FE41EC1A0B00F006
:10319000C3FB08EE100A7DE0A54800EB840090ED2B
:1031A000000AB4EEE80AF1EE10FA24D2A04800EBCF
:1031B000840090ED000A39EE400AB4EEE80AF1EE20
:1031C00010FA18DB954800EB840090ED000A10EE31
:1031D000101A084601F0A6F941EC1B0B9FED950B68
:1031E00053EC102B00F0A8FE41EC1A0B00F094FBFE
:1031F00008EE100A4EE08E4800EB840090ED000AC5
:1032000039EE400AB4EEE80AF1EE10FA42D2F4EEDA
:10321000C98AF1EE10FA3DD839EE680AF0EE000ADC
:1032200020EE200A10EE101A084601F07BF941EC5E
:103230001D0B9FED820B53EC102B00F09FFB41EC1C
:103240001B0B764800EB840090ED000A784800EBF9
:103250008400D0ED000AB0EE001A60EE810A80EE24
:10326000201A11EE105A284601F05CF941EC1D0BB2
:103270009FED720B53EC102B00F05EFE41EC1C0B2B
:1032800053EC1B2B00F058FE41EC1A0B00F044FBF2
:1032900008EE100A6B4800EB840090ED000A30EE57
:1032A000080A684800EB840080ED000A664890ED4B
:1032B000000A28EE000A10EE101A084601F032F952
:1032C00041EC1B0B9FED610B53EC102B00F00AFC43
:1032D00041EC1A0B00F020FB08EE100AB5EEC08A94
:1032E000F1EE10FA07D8B1EE480AB0EE408A00209D
:1032F0004C49085502E001204A490855BDEEC80A6C
:10330000B8EEC00A38EE400A10EE101A084601F076
:1033100009F941EC1A0B9FED4F0B53EC102B00F009
:1033200009FF1DD2BDEEC80A10EE100A401C3C4930
:1033300008554A4800EB8400D0ED000ABDEEC80AEB
:10334000B8EEC00A38EE400A30EE800AF7EE000A06
:1033500030EE600A414800EB840080ED000A17E07F
:10336000BDEEC80A10EE100A2D4908553B4800EB87
:103370008400D0ED000ABDEEC80AB8EEC00A38EEEF
:10338000400A30EE800A354800EB840080ED000AE8
:10339000324800EB840090ED000AF7EE000AB4EE2C
:1033A000E00AF1EE10FA13DB2C4800EB840090EDFC
:1033B000000AF7EE000A30EE600A284800EB8400AD
:1033C00080ED000A1648005D401C1549085522E0B2
:1033D000224800EB840090ED000AFFEE000AB4EEF4
:1033E000E00AF1EE10FA16D80D48005D00280DDD58
:1033F0001A4800EB840090ED000AF7EE000A30EE68
:10340000200A164800EB840080ED000A0448005DA5
:10341000401E03490855BDEC0E8B70BD0001002015
:103420003C00002040000020FCA9F1D24D62603F2A
:10343000100100207B14AE47E17A843FFCA9F1D251
:103440004D62503F800000202C4600080000000024
:1034500000807640666666666666E63F300100205C
:1034600010B52DED068B0446B0EE408A204600F0E4
:1034700013FD41EC1A0B9FED150B53EC102B00F0D4
:103480005BFD41EC190B00F047FA08EE900AF0EEF4
:10349000480AB0EE680A0020FFF704FEF0EE480A82
:1034A000B0EE680A0120FFF7FDFDF0EE480AB0EE2D
:1034B000680A0220FFF7F6FDF0EE480AB0EE680A4F
:1034C0000320FFF7EFFDBDEC068B10BD7B14AE476C
:1034D000E17A843F10B54FF480510F48FDF764FB4B
:1034E0000A2400BF201EA4F10104FBD14FF4805137
:1034F0000948FDF757FB4FF480510748FDF754FB8F
:103500000A2400BF201EA4F10104FBD14FF4805116
:103510000148FDF747FB10BD000C0240002004E00D
:103520000021034A42F82010401C0428F8DB7047B1
:1035300020010020002005E00021044A1154044A23
:103540001154401C0428F7DB704700003C000020A9
:103550004000002010B52DED028BB7EE081ADFED0C
:10356000180A9FED180A0020FEF752FEB7EE081A5F
:10357000DFED150A9FED130A0120FEF749FEB7EEB5
:10358000081ADFED100A9FED0F0A0220FEF740FE39
:10359000B7EE081ADFED0B0A9FED0A0A0320FEF7CB
:1035A00037FE9FED080AB0EE408A00244FF4C87140
:1035B0000F20B7EE080A00F00DF9BDEC028B10BD2C
:1035C000008038440000000000801843F0B5034636
:1035D0000D46144664000027322B00DD3223EF0134
:1035E0001F4404F1C0403946FDF766FA0027322631
:1035F00000BF301EA6F10106FBD1F0BD2DE9F04160
:103600002DED088BB0EE408A00269FED670AB0EEE4
:1036100040BA9FED650AF0EE408A18EE100A00F0FD
:1036200081FF41EC1A0B9FED610B53EC102B00F066
:1036300083FC41EC190B00F0E9FB07465D4890ED77
:10364000001AF0EE410A5C4890ED001AB0EE410A13
:10365000B0EE481A0020FEF7DBFD564890ED011A47
:10366000F0EE410A544890ED011AB0EE410AB0EE76
:10367000481A0120FEF7CCFD4E4890ED021AF0EEFC
:10368000410A4D4890ED021AB0EE410AB0EE481AD8
:103690000220FEF7BDFD474890ED031AF0EE410A07
:1036A000454890ED031AB0EE410AB0EE481A0320E7
:1036B000FEF7AEFD012563E0A8B2B0EE480AFFF7C1
:1036C000CFFE002407E03D4A115D3D4A105D2246D1
:1036D000FFF77CFF641C042CF5DBFFF7FBFE642086
:1036E000FEF766FDFCF782FF642095FBF0F100FB1E
:1036F000115090BB002440E0E0B2FCF731FF3148AC
:1037000000EB840080ED000A84B92B4800EB8400B4
:1037100090ED000A2B4800EB8400D0ED000A9FEDED
:103720002A1A10EE810AF0EE408A25E0012C15D10C
:10373000244800EB840090ED000A1F4800EB840051
:10374000D0ED000A30EE600AF0EE408A1F4800EB30
:103750008600C0ED008A761C0EE010E0194800EBF0
:10376000840090ED000A144800EB8400D0ED000ABC
:1037700030EE600AF0EE408A641C042CBCDB6D1C49
:103780009FED130A68EE000A00EE105AB8EEC00A68
:10379000F4EEC00AF1EE10FA8EDAFFF7BFFEBDECD0
:1037A000088BBDE8F0810000000000000000000070
:1037B00000004940900000208000002040000020D0
:1037C0003C0000208001002033330341A001002091
:1037D0000000C8422DE9F0412DED048BB0EE408A87
:1037E00080460E469FED3E0AB0EE409A0027012526
:1037F00062E0A8B2B0EE480AFFF732FE002407E00C
:10380000384A115D384A105D2246FFF7DFFE641C1E
:10381000042CF5DBFFF75EFE4046FEF7C9FCFCF723
:10382000E5FE95FBF6F006FB105090BB002440E04F
:10383000E0B2FCF795FE2D4800EB840080ED000A15
:1038400084B92B4800EB840090ED000A274800EB78
:103850008400D0ED000A9FED271A10EE810AF0EEE9
:10386000408A25E0012C15D1204800EB840090ED22
:10387000000A1F4800EB8400D0ED000A30EE600A19
:10388000F0EE408A1C4800EB8700C0ED008A7F1CE8
:103890000EE010E0154800EB840090ED000A14489B
:1038A00000EB8400D0ED000A30EE600AF0EE408AB2
:1038B000641C042CBCDB6D1C9FED100A68EE000A32
:1038C00000EE105AB8EEC00AF4EEC00AF1EE10FA9B
:1038D0008FDAFFF723FEBDEC048BBDE8F08100001A
:1038E00000000000400000203C000020800100207B
:1038F0008000002033330341A00100200000C842B3
:1039000081F00041704780F00040704721F0004195
:10391000704720F00040704721F00042A2F1605251
:10392000B2F5801F01F0004328BFD2F17F6C0BD9A4
:103930005FEA001C43EAC20242EB507018BF7047B6
:1039400028BF20F001007047B2F5801FBCBF1846A9
:1039500070474FEA410C1CF5001F02D2084600F0E8
:1039600057BE70B500F092FB00000089FFF7F6BF6C
:103970004FF00040A0F580007047000010B591EABC
:10398000030F48BF83F0004300F1EA84841A71EB0F
:10399000030C05D2121943EB0C03001B61EB0C0165
:1039A000DFF824E14FEA1154A4EB135C1EEA430F45
:1039B00018BF9EEA445F73D023EA0E03DCF1200EA9
:1039C00021EA045143F4801332D322FA0CFE10EBA7
:1039D0000E0023FA0CFE41EB0E01CCF1200E03FA8F
:1039E0000EFE10EB0E0051F10001B1F5801FCCF17D
:1039F000200E32D201EB045112FA0EF2BDE8104053
:103A000058BF7047401C38BF5FEA420218BF70477A
:103A1000002814BF20F0010041F100014FEA4103EA
:103A200013F5001F38BF7047A1F1C04100F07CBB07
:103A3000012A43EB0302ACF1200CDCF11F0E32BF74
:103A40004FF0000E23FA0CF310EB030041EB04518E
:103A5000B4EB115FD0D0A1EB045101F580114908FE
:103A60005FEA300001EB04510ED350F1000038BF83
:103A700012FA0EFE08D1BDE81040C9E7401C38BF5D
:103A80005FEA4202CAD1C3E7BDE810404FEA4103F2
:103A900013F5001F38BF7047A1F1C04100F044BBCF
:103AA0009EEA445F08D011EA5E0FBDE8104004BFF3
:103AB00001F0004100207047BDE8104070B500F0F3
:103AC000E5FA00BF64FBBE3E0000E0FF491058BFAE
:103AD000C1F140415B1058BFC3F140438B42EFF34B
:103AE000008070472DE9C04130B4DFF8A0C23CEA45
:103AF000111418BF3CEA131400F0EC8081EA0305AE
:103B00001CEA111444EAD57418BF1CEA131500F01E
:103B1000C780A4EB05044FF0004545EAC12145EA02
:103B2000C32341EA505143EA525304F17F7499424E
:103B300004F500344FEAC0204FEAC22208BF904289
:103B400000F09C804FEA13650FF24016765D4FEA55
:103B5000134506FB05F7C7F1807706FB07F74FEA29
:103B6000D737A7FB03687642C8F58038A7FB06CE97
:103B700038BFA8F1010807FB08E64FF0000EA6FBCE
:103B8000028CE6FB03CEDCF1000CCEF1004E38BF18
:103B9000AEF1010EA6FB0C584FF000074FF00005E8
:103BA000E6FB0E87A1FB08C6A0FB07CE16EB0E06B0
:103BB00045F10005E1FB076515F1E04E7EBFA4F578
:103BC00080345FEA46066D4116F1800745F1000535
:103BD0004FEA17274FEA066647EA0567A6F1DE4671
:103BE000B6F1805F4FEA15251FD9384624F0010C45
:103BF00005EBC471BCF1FE6F01EB0C1102D8F0BCF7
:103C0000BDE8008124425CBF01F5801E9EEAC47FAE
:103C100002D4F0BCBDE80081244238D4F0BCA1F14C
:103C2000C041BDE8004100F07FBA4FEAD22242EA2B
:103C300043524FEAD323A7FB02864FEAD02040EA43
:103C4000415007FB03661EEA0E0F4FEAD12105FB28
:103C5000026658BFA6EB0056B6EB00564FEA520E6E
:103C60004EEAC37E18EB0E0E56EB530EBDD518EB85
:103C700002085E417F1C55F10005B6E74FF4801540
:103C80004FF000074FF000064FF00008ADE7F0BC22
:103C90004FF0000001F1C04101F00041BDE800819A
:103CA00011EA0C1F0CEA131500D00CE013EA0C1FEC
:103CB00000F025804FF00000F0BC81EA030101F024
:103CC0000041BDE80081F0BCBDE8004181EA03018C
:103CD00000F02ABAF0BCBDE8004170B500F0D6F99A
:103CE000097EFC3E00F007B881EA03014FF00000B6
:103CF00001F00041704781EA030100F015BAF0BC01
:103D0000BDE800414FF0000021497047FFFDFBF97D
:103D1000F7F5F4F2F0EEEDEBE9E8E6E4E3E1E0DEFE
:103D2000DDDBDAD8D7D5D4D3D1D0CFCDCCCBCAC870
:103D3000C7C6C5C4C2C1C0BFBEBDBCBBBAB9B8B797
:103D4000B6B5B4B3B2B1B0AFAEADACABAAA9A8A88A
:103D5000A7A6A5A4A3A3A2A1A09F9F9E9D9C9C9B58
:103D60009A99999897979695959493939291919003
:103D70008F8F8E8E8D8C8C8B8B8A89898888878794
:103D80008685858484838382828181800000FF0709
:103D90000000F87F51EA030C17D41CF5801F58BFB0
:103DA000BCF5801F00F10680994218BF704708BF1C
:103DB0009042704707D711F5801F58BF13F5801F39
:103DC00019D499427047894270471CF5801F08D565
:103DD000BCF5801FF7D58B4218BF704708BF8242E1
:103DE00070474FF4001C1CEB410F38BF1CEB430F16
:103DF00001D28B42704770B500F048F99224490017
:103E00004FF000514FF08053FFF760BE4FEA41037F
:103E10004FEA5353A3F58063D3F11E03C8BFD3F118
:103E2000210C0CDD4FF0004242EAC12242EA50521E
:103E300032FA03FC8CEAE17CACEBE1707047102BAA
:103E4000C4BF0020704703F5787CBCF1FF3F04D06D
:103E50006FF0004282EA2100704770B500F016F959
:103E60004992248000207047F2E710F0004248BFDA
:103E70004042B0FA80F310FA03F10AD0C3F11D03F7
:103E800003F580634FEA415002EB035202EBD1216C
:103E900070474FF000007047B0FA80F310FA03F15A
:103EA0000AD0C3F11D0303F580634FEA41504FEA86
:103EB000035202EBD12170474FF000007047000021
:103EC00051EA030C17D41CF5801F58BFBCF5801FA6
:103ED00000F10680994218BF704708BF90427047B2
:103EE00007D711F5801F58BF13F5801F19D49942C9
:103EF0007047894270471CF5801F08D5BCF5801FAC
:103F0000F7D58B4218BF704708BF824270474FF405
:103F1000001C1CEB410F38BF1CEB430F01D28B423E
:103F2000704770B500F0B2F8922449004FF000518C
:103F30004FF08053FFF7CABDDFF848C170B51CEAE7
:103F4000111E1EBF1CEA13159EEA0C0F95EA0C0FFA
:103F500000F06F8081EA030423EA4C134EEAD47E1A
:103F600021EA4C1141F4801143F48013AE44A1FBCB
:103F7000024CA0FB0365AEF17F7E361955EB0C05B4
:103F8000A1FB034C4CF10003A0FB021C16EB0C063A
:103F9000654153F10003094218BF46F0010613F4CE
:103FA000007F0BD14FEA03314FEA0530340341EA79
:103FB000155140EA16506FF003020AE04FEAC321A0
:103FC0004FEAC520F40241EA555140EA56506FF0DD
:103FD000020202EB2E4201EB025585EACE710AD0B5
:103FE0005FEA440C18BF24F0004450F1000041F196
:103FF000000120EAD47040F2FE7C624500D270BD20
:10400000A84214BF4FF080444FF04044002E08BF38
:104010000024BEF1806FA8BFA1F1C041BDE870408F
:1040200080F282804FF0000001F1C04101F00041B8
:1040300070479EEA0C0F0CEA131518BF95EA0C0F97
:1040400006D04FF0000081EA030E0EF0004170BD73
:1040500000F01CF88900013E00F007B800F009B834
:104060004FEA430C5FEA5C5C08D081EA030100F090
:104070005BB84FEA410C5FEA5C5CF6D14FF00000A0
:10408000014970470000FF070000F87F0EF1020EA3
:104090002EF0030E5EF8046B364205D4012A43EB82
:1040A000030515F5001F12D8012841EB010C1CF582
:1040B000001F0CD80ED14FEAD17C15F5001F0CEB78
:1040C0004C0C0CF1020C08BF4CEBD37C04E04FF01D
:1040D000080C01E04FEAD37C0CEB4C0526FA05F600
:1040E00006F00706B6F1040C06D20EEB860CBDE80E
:1040F00070404CF0010C6047DFE80CF0090B020245
:104100004FF000414FF00000A1F5002170BD1946AD
:104110001046012851EB010418BFD4F5001484BFE8
:10412000002001F0004170BD0808A0F500114FEA21
:104130003101704753EA010C17D41CF5801F58BF9A
:10414000BCF5801F00F106808B4218BF704708BF86
:104150008242704707D713F5801F58BF11F5801FA3
:1041600019D48B4270479B4270471CF5801F08D5BD
:10417000BCF5801FF7D5994218BF704708BF904221
:1041800070474FF4001C1CEB430F38BF1CEB410F72
:1041900001D2994270470FB40CBC03BCFFF7C1BEFB
:1041A00091EA030F10B581F000413FF5EFAB83F0CA
:1041B000004300F0D5B800002DE9F04101F5801C66
:1041C000BCF5001FC0F2A9804FEA115C21EA0C5136
:1041D0000CF1FD0C41F480115FEA5C0C0CF5C07C25
:1041E00001D34000494130A4890241EA905187023D
:1041F0008E0E0A0CA45D04FB04F602FB06F6C6F163
:104200004046A4FB0662F60D46EA422606FB06F48B
:10421000A4FB01235242C3F1404338BF5B1EA6FBFF
:1042200002420024E6FB0324D20B42EA4446A6FBEA
:104230000623A1FB02E2A3FB07E4E3FB6142644225
:10424000C2F1404E38BFAEF1010EA6FB04234FF081
:104250000002E6FB0E32A2FB03463400E2FB62647E
:10426000A1FB06E6A4FB07E8E4FB61687642C8F11F
:10427000405838BFA8F10108A2FB06E4A3FB08E5FB
:10428000E2FB6854A1FB05E6A7FB04E8E1FB6486BA
:1042900018F1200556F10006A809A8F11B08B1097C
:1042A00008F03F08B8F10A0F40EA86601CD901EB1C
:1042B0000C51BDE8F08100BFFCF5EEE8E2DDD8D39B
:1042C000CFCBC7C3C0BDB9B6B4B1AEACA9A7A5A387
:1042D000A19F9D9B9A9896959392908F8D8C8B8998
:1042E0008887868584838281A0FB006800FB01F2B9
:1042F00008EB4208B8EB872807D5341858EB0104BF
:10430000D5D5401C51F10001D1E7341A78EB0104F6
:10431000CDD4401E71F10001C9E75FEA4C0C5FEAA1
:104320009C5C0DD105D34FF0000001F00041BDE8C9
:10433000F081BDE8F04170B5FFF7A8FE6DDBFFBE70
:10434000BDE8F0414FF00000004970470000F87FE1
:1043500010B591EA030F48BF83F000433FF516AB59
:10436000841A71EB030C07D212198CF0004C43EB4A
:104370000C03001B61EB0C01DFF8A4E14FEA1154C0
:10438000A4EB135C1EEA430F18BF9EEA445F00F0E3
:10439000B08023EA6E03524221EA0451C3EB6E035C
:1043A00038BF5B1EDCF1200E25D322FA0CFE10EB89
:1043B0000E0043FA0CFE41EB0E01CCF1200E03FA85
:1043C0000EFE10EB0E0051F10001CCF1200E29D4AD
:1043D00012FA0EF201EB0451BDE8104058BF7047CD
:1043E000401C1CBFB2F1004F704700280CBF491C95
:1043F00020F00100704712EB020E43EB030218BFDE
:104400004FF0010E4EEA4202ACF1200CDCF11E0E20
:1044100054D943FA0CFE10EB0E0051F1FF31CCF1F0
:104420001E0ED5D50EF1010E12FA0EFE404141EBE3
:10443000010101EB445C5FEA5C5C10D910EBDE70BB
:1044400001EB045138BFBEF1004FBDE8104018BF6A
:10445000704700280CBF491C20F00100704730D283
:104460004FEAD42C11F5001124F400641BD0B1FAEA
:1044700081F20B3AA41AA41ED2F12003914030FA23
:1044800003F31943904001EBCC71002C01EB045174
:10449000BDE81040A8BF704701F1C0414FF00000D7
:1044A00001F000417047B0FA80F310FA03F100D137
:1044B00010BDE41A173C4805C90AE4E701EB0451B2
:1044C00010BD491001EB0451BDE810404FEA300027
:1044D00002E04FF0000170474A0008BF0042F8D0E8
:1044E000B2F5001F28BF704701F000414FF00000F7
:1044F00070479EEA445F07D011EA5E0FBDE81040A6
:1045000004BF002100207047BDE8104070B5FFF7E0
:10451000BDFD00BF40DFF63E83F00041104670470E
:104520000000E0FF43004FEAD30C4FEA3C0C43404D
:104530001FBF40070CF1605113F0FE4F70471CF095
:10454000006F03D100200CF0004170470CF00043D5
:1045500043EA507010B540EACC0000F00EF800BFFE
:10456000000000924FEA0001FFF7DEBD4FF000416E
:104570004FF00000A1F5002170470EF1020E2EF061
:10458000030E5EF8044B244204D44FEA4102B2F118
:104590007F4F11D84FEA4003B3F17F4F0CD80ED1B3
:1045A0004FEAD07CB2F17F4F0CEB4C0C0CF1020CBB
:1045B00008BF4CEBD17C04E04FF0080C01E04FEA5F
:1045C000D17C0CEB4C0324FA03F404F00704B4F19F
:1045D000040C06D20EEB840CBDE810404CF0010C2C
:1045E0006047DFE80CF0070802024FF00040A0F53A
:1045F000800010BD0846420018BFD2F1807288BF0B
:1046000000F0004010BD4FF04070E1EE100A70471E
:10461000FF2141EAD050C005704700000050C34759
:104620000000AF430000AF4300007A4400401C4646
:104630004FBB610567ACDD3F182D4454FB21E93FBA
:104640009BF681D20B73EF3F182D4454FB21F93FA9
:10465000E2652F227F2B7A3C075C143326A6813C2F
:10466000BDCBF07A8807703C075C143326A6913CDA
:10467000C4EB98999999C9BF711623FEC671BCBF46
:104680006D9A74AFF2B0B3BF9AFDDE522DDEADBFAE
:104690002F6C6A2C44B4A2BF0D5555555555D53FC6
:1046A000FF8300922449C23F6E204CC5CD45B73FE1
:1046B000513DD0A0660DB13FEB0D76244B7BA93F59
:1046C00011DA22E33AAD903F4C5555555555A53F6B
:1046D0007751C1166CC156BF9015CB19A001FA3E97
:1046E000AD529C804F7E92BEC4B1B4BD9EEE213EC1
:1046F000D43888BEE9FAA8BD000000000000000020
:1047000000004054FB21F93F3163621A61B4D03D8F
:104710000000601A61B4D03D7370032E8A19A33B68
:104720000000002E8A19A33BC14920259A837B39BA
:1047300000000000000000006E83F9A22915444E1D
:10474000D15727FCC0DD34F5999562DB4190433C9D
:10475000AB6351FE61C5BBDE3A6E24B7E0D24D4279
:10476000EA2E49061C92D1091CEB1DFE3EA729B179
:10477000F53582E88444BB2E26709CE9417E5FB407
:1047800039D69139F43953838B5F849C3B28F9BD2A
:10479000FF97F81F0F9805DE8B112FEF1F6D0A5A38
:1047A000CF7E366DB709CB27663F464F2DEA5F9E19
:1047B000C7BA27757BF1E5EBF739073DEA92528AD4
:1047C000B15FFB6B085D8D1FA6F810111111813FC1
:1047D000D561C119A0012ABF7DFEB157E31DC73EB7
:1047E000EB9C2B8AE6E55ABE7CD5CF5A3AD9E53DFB
:1047F000104800080000002080000000C4010008EC
:104800009048000880000020B0A20000E0010008ED
:10481000333383400000803F0000803F0000803F32
:104820000000000000000000000000000000000088
:104830000000000000000000000000000000000078
:104840000000000000000000000000000000000068
:104850000000000000000000000000000000000058
:10486000000000000000000000000000007A030AC1
:104870000000000000000000010203040607080910
:1048800000000000010203040102030406070809F6
:0400000508000229C4
:00000001FF
